:020000040800F2
:1000000000300020C52A0008ED120008EF12000899
:10001000F1120008F3120008F512000800000000B9
:10002000000000000000000000000000F7120008BF
:10003000F912000800000000FB120008FD12000881
:10004000152B0008152B0008152B0008152B000890
:10005000152B0008152B0008152B0008152B000880
:10006000152B0008152B0008152B0008152B000870
:10007000152B0008152B0008152B0008152B000860
:10008000152B0008152B0008152B0008152B000850
:10009000152B0008152B0008152B0008152B000840
:1000A000152B0008152B0008152B0008152B000830
:1000B000152B0008152B000800000000152B000868
:1000C000152B00080000000000000000152B0008A0
:1000D00000000000152B0008152B0008152B000848
:1000E000152B0008152B0008000000000000000080
:1000F0000000000000000000000000000000000000
:1001000000000000000000000000000000000000EF
:100110000000000000000000152B0008152B00084F
:1001200000000000000000000000000000000000CF
:1001300000000000000000000000000000000000BF
:10014000152B0008152B000800000000000000001F
:10015000000000000000000000000000000000009F
:10016000000000000000000000000000000000008F
:10017000000000000000000000000000000000007F
:0801800000000000152B00082F
:1001880010B5054C237833B9044B13B10448AFF3C9
:1001980000800123237010BD0C0000200000000027
:1001A800D03B000808B5034B1BB103490348AFF324
:1001B800008008BD0000000010000020D03B0008AF
:1001C80081F0004102E000BF83F0004330B54FEA00
:1001D80041044FEA430594EA050F08BF90EA020F6D
:1001E8001FBF54EA000C55EA020C7FEA645C7FEA00
:1001F800655C00F0E2804FEA5454D4EB5555B8BF23
:100208006D420CDD2C4480EA020281EA030382EA93
:10021800000083EA010180EA020281EA0303362D25
:1002280088BF30BD11F0004F4FEA01314FF4801CF8
:100238004CEA113102D0404261EB410113F0004F0A
:100248004FEA03334CEA133302D0524263EB4303C1
:1002580094EA050F00F0A780A4F10104D5F1200E5F
:100268000DDB02FA0EFC22FA05F2801841F10001BA
:1002780003FA0EF2801843FA05F359410EE0A5F18E
:1002880020050EF1200E012A03FA0EFC28BF4CF0BF
:10029800020C43FA05F3C01851EBE37101F0004575
:1002A80007D54FF0000EDCF1000C7EEB00006EEB82
:1002B8000101B1F5801F1BD3B1F5001F0CD349080C
:1002C8005FEA30004FEA3C0C04F101044FEA445263
:1002D80012F5800F80F09A80BCF1004F08BF5FEAEA
:1002E800500C50F1000041EB045141EA050130BDCA
:1002F8005FEA4C0C404141EB0101013C28BFB1F5DC
:10030800801FE9D291F0000F04BF01460020B1FA26
:1003180081F308BF2033A3F10B03B3F120020CDAF9
:100328000C3208DD02F1140CC2F10C0201FA0CF0D7
:1003380021FA02F10CE002F11402D8BFC2F1200C3C
:1003480001FA02F120FA0CFCDCBF41EA0C019040F2
:10035800E41AA2BF01EB0451294330BD6FEA04043B
:100368001F3C1CDA0C340EDC04F11404C4F1200226
:1003780020FA04F001FA02F340EA030021FA04F338
:1003880045EA030130BDC4F10C04C4F1200220FA8F
:1003980002F001FA04F340EA0300294630BD21FACD
:1003A80004F0294630BD94F0000F83F4801306BF93
:1003B80081F480110134013D4EE77FEA645C18BF87
:1003C8007FEA655C29D094EA050F08BF90EA020F1E
:1003D80005D054EA000C04BF1946104630BD91EA16
:1003E800030F1EBF0021002030BD5FEA545C05D119
:1003F8004000494128BF41F0004130BD14F5800458
:100408003CBF01F5801130BD01F0004545F0FE41CB
:1004180041F470014FF0000030BD7FEA645C1ABF00
:10042800194610467FEA655C1CBF0B46024650EA37
:10043800013406BF52EA033591EA030F41F4002163
:1004480030BD00BF90F0000F04BF0021704730B5E9
:100458004FF4806404F132044FF000054FF00001BE
:1004680050E700BF90F0000F04BF0021704730B57F
:100478004FF4806404F1320410F0004548BF404254
:100488004FF000013EE700BF42004FEAE2014FEAA9
:1004980031014FEA02701FBF12F07F4393F07F4F84
:1004A80081F06051704732F07F4208BF704793F087
:1004B8007F4F04BF41F40021704730B54FF460749A
:1004C80001F0004521F000411CE700BF50EA01029D
:1004D80008BF704730B54FF000050AE050EA010246
:1004E80008BF704730B511F0004502D5404261EBB6
:1004F80041014FF4806404F132045FEA915C3FF4F7
:10050800D8AE4FF003025FEADC0C18BF03325FEA93
:10051800DC0C18BF033202EBDC02C2F1200300FA44
:1005280003FC20FA02F001FA03FE40EA0E0021FA69
:1005380002F11444BDE600BF70B54FF0FF0C4CF457
:10054800E06C1CEA11541DBF1CEA135594EA0C0F09
:1005580095EA0C0F00F0DEF82C4481EA030621EA44
:100568004C5123EA4C5350EA013518BF52EA03357F
:1005780041F4801143F4801338D0A0FB02CE4FF031
:100588000005E1FB02E506F00042E0FB03E54FF061
:100598000006E1FB03569CF0000F18BF4EF0010E59
:1005A800A4F1FF04B6F5007F64F5407404D25FEA55
:1005B8004E0E6D4146EB060642EAC62141EA555108
:1005C8004FEAC52040EA5E504FEACE2EB4F1FD0C4A
:1005D80088BFBCF5E06F1ED8BEF1004F08BF5FEAC8
:1005E800500E50F1000041EB045170BD06F000467A
:1005F80046EA010140EA020081EA0301B4EB5C0427
:10060800C2BFD4EB0C0541EA045170BD41F480111E
:100618004FF0000E013C00F3AB8014F1360FDEBF43
:10062800002001F0004170BDC4F10004203C35DA1F
:100638000C341BDC04F11404C4F1200500FA05F3A2
:1006480020FA04F001FA05F240EA020001F0004243
:1006580021F0004110EBD37021FA04F642EB0601B9
:100668005EEA430E08BF20EAD37070BDC4F10C04E3
:10067800C4F1200500FA04F320FA05F001FA04F2A7
:1006880040EA020001F0004110EBD37041F1000193
:100698005EEA430E08BF20EAD37070BDC4F120059E
:1006A80000FA05F24EEA020E20FA04F301FA05F206
:1006B80043EA020321FA04F001F0004121FA04F2AE
:1006C80020EA020000EBD3705EEA430E08BF20EA7E
:1006D800D37070BD94F0000F0FD101F000464000B8
:1006E80041EB010111F4801F08BF013CF7D041EA3A
:1006F800060195F0000F18BF704703F0004652003E
:1007080043EB030313F4801F08BF013DF7D043EA0E
:100718000603704794EA0C0F0CEA135518BF95EAC4
:100728000C0F0CD050EA410618BF52EA4306D1D14B
:1007380081EA030101F000414FF0000070BD50EA6A
:10074800410606BF1046194652EA430619D094EAF4
:100758000C0F02D150EA013613D195EA0C0F05D1DE
:1007680052EA03361CBF104619460AD181EA030132
:1007780001F0004141F0FE4141F470014FF00000EA
:1007880070BD41F0FE4141F4780170BD70B54FF085
:10079800FF0C4CF4E06C1CEA11541DBF1CEA135505
:1007A80094EA0C0F95EA0C0F00F0A7F8A4EB0504E7
:1007B80081EA030E52EA03354FEA013100F08880DE
:1007C8004FEA03334FF0805545EA131343EA1263A7
:1007D8004FEA022245EA111545EA10654FEA00265C
:1007E8000EF000419D4208BF964244F1FD0404F515
:1007F800407402D25B084FEA3202B61A65EB030571
:100808005B084FEA32024FF480104FF4002CB6EB2D
:10081800020E75EB030E22BFB61A754640EA0C00AD
:100828005B084FEA3202B6EB020E75EB030E22BFED
:10083800B61A754640EA5C005B084FEA3202B6EB2E
:10084800020E75EB030E22BFB61A754640EA9C00ED
:100858005B084FEA3202B6EB020E75EB030E22BFBD
:10086800B61A754640EADC0055EA060E18D04FEA7B
:10087800051545EA16754FEA06164FEAC30343EA1B
:1008880052734FEAC2025FEA1C1CC0D111F4801FE8
:100898000BD141EA00014FF000004FF0004CB6E7E1
:1008A80011F4801F04BF01430020B4F1FD0C88BF80
:1008B800BCF5E06F3FF6AFAEB5EB030C04BFB6EB8B
:1008C800020C5FEA500C50F1000041EB045170BD7E
:1008D8000EF0004E4EEA113114EB5C04C2BFD4EBAB
:1008E8000C0541EA045170BD41F480114FF0000E2F
:1008F800013C90E645EA060E8DE60CEA135594EAAB
:100908000C0F08BF95EA0C0F3FF43BAF94EA0C0FAD
:100918000AD150EA01347FF434AF95EA0C0F7FF422
:1009280025AF104619462CE795EA0C0F06D152EA76
:1009380003353FF4FDAE1046194622E750EA41065A
:1009480018BF52EA43067FF4C5AE50EA41047FF46B
:100958000DAF52EA43057FF4EBAE12E74FF0FF3CD0
:1009680006E000BF4FF0010C02E000BF4FF0010CA1
:100978004DF804CD4FEA410C7FEA6C5C4FEA430C1A
:1009880018BF7FEA6C5C1BD001B050EA410C0CBF69
:1009980052EA430C91EA030F02BF90EA020F0020CB
:1009A800704710F1000F91EA030F58BF994208BF32
:1009B80090422CBFD8176FEAE37040F001007047EF
:1009C8004FEA410C7FEA6C5C02D150EA013C07D146
:1009D8004FEA430C7FEA6C5CD6D152EA033CD3D091
:1009E8005DF8040B704700BF8446104662468C468B
:1009F8001946634600E000BF01B5FFF7B7FF0028BE
:100A080048BF10F1000F01BD4DF808EDFFF7F4FFE6
:100A18000CBF012000205DF808FB00BF4DF808ED71
:100A2800FFF7EAFF34BF012000205DF808FB00BF94
:100A38004DF808EDFFF7E0FF94BF012000205DF8B6
:100A480008FB00BF4DF808EDFFF7CEFF94BF01206B
:100A580000205DF808FB00BF4DF808EDFFF7C4FF64
:100A680034BF012000205DF808FB00BF4FEA4102B7
:100A780012F5001215D211D56FF47873B3EB6252E8
:100A880012D94FEAC12343F0004343EA505311F00F
:100A9800004F23FA02F018BF404270474FF00000A1
:100AA800704750EA013005D111F0004008BF6FF0DF
:100AB800004070474FF00000704700BF4A0011D255
:100AC80012F5001211D20DD56FF47873B3EB6252A0
:100AD8000ED44FEAC12343F0004343EA505323FAAC
:100AE80002F070474FF00000704750EA013002D121
:100AF8004FF0FF3070474FF00000704772B6FEE7C6
:100B080000B597B0282200210CA802F000F80023B5
:100B18000793089309930A930B9301930293039302
:100B280004930593069302230C930122109210223A
:100B3800119213934FF4C01315930CA801F08AF97E
:100B4800D0B90F23079302230893002309934FF486
:100B580080620A920B93012107A801F0BDFC68B9D5
:100B68004FF4805301930023069301A801F088FDF8
:100B780030B917B05DF804FBFFF7C0FFFFF7BEFF01
:100B8800FFF7BCFF000000002DE9F041ADF6483D3D
:100B980001F03CF9FFF7B4FF00F0DCF800F03EFA92
:100BA80000F04CFB00F0B0FA00F0EEFA00F00CF99F
:100BB8005F4C0021204600F05DFF0021204601F037
:100BC8000DF85C4D0021284600F054FF002128460E
:100BD80001F004F80C21584800F04CFF0821204689
:100BE80000F0FCFF0021554800F044FF544800F095
:100BF800DDFC00220221534801F0E6FE002415E046
:100C08002046FFF72FFC46A3D3E90023FFF794FC07
:100C180000224D4BFFF7BAFD41EC100B01F0A4FF89
:100C280002AB03EBC40383ED000B0134B4F5B47FCE
:100C3800E6DB6DE0454B1C68621C1A60444D85FB81
:100C480002311144D317C3EB21234FF4B47707FBC8
:100C5800132302AA02EBC30133A3D3E90023D1E98A
:100C68000001FFF769FC30A3D3E90023FFF7AEFAD0
:100C7800FFF724FF86B2ADF8006004F1790285FB26
:100C880002311144D317C3EB212307FB132302AA14
:100C980002EBC30124A3D3E90023D1E90001FFF744
:100CA8004BFC21A3D3E90023FFF790FAFFF706FFD7
:100CB8001FFA80F8ADF8028004F1F10385FB0325E3
:100CC8001D44DA17C2EB252207FB123202AB03EBF5
:100CD800C20115A3D3E90023D1E90001FFF72CFCD9
:100CE80011A3D3E90023FFF771FAFFF7E7FE80B2FB
:100CF800ADF804000E4B1B685E630E4A1268C2F81A
:100D080034800D4A12681064D8630C4B1B68586312
:100D18000B4B1B6800225A625A6AC72AFCD989E71A
:100D2800182D4454FB2109400000000000C0624017
:100D38005C0100202C000020C400002010010020CD
:100D48007800002000040048008066402800002049
:100D5800B7600BB630B589B00024039404940594A9
:100D680006940794164B5A6942F480025A615A69EC
:100D780002F480020092009A5A6942F480225A6171
:100D88005A6902F480220192019A5A6942F40032A7
:100D98005A615B6903F400330293029B094D2246B2
:100DA8000221284601F010FE022303930123049335
:100DB8000594069403A9284601F028FD09B030BD22
:100DC800001002400004004800B585B000230193DC
:100DD800029303930E480F4A026007224260836021
:100DE8004FF6FF72C260836100F066FC50B90023C1
:100DF8000193039301A9064800F062FF28B905B0E2
:100E08005DF804FBFFF77AFEF1E7FFF777FEF6E7F8
:100E1800780000200010004082B003680F4A934217
:100E280004D0B3F1804F0CD002B070470C4B9A69D4
:100E380042F400629A619B6903F400630093009B8B
:100E4800F2E703F50433DA6942F00102DA61DB699B
:100E580003F001030193019BE6E700BF002C01406A
:100E68000010024084B00368154A934207D0154A1F
:100E780093420FD0144A934217D004B07047134BD3
:100E8800DA6942F00202DA61DB6903F002030193D6
:100E9800019BF2E70D4BDA6942F01002DA61DB6977
:100EA80003F010030293029BE7E7084B9A6942F4A8
:100EB80000329A619B6903F400330393039BDCE7D8
:100EC80000040040001000400044014000100240AF
:100ED80030B58DB000230793089309930A930B93B9
:100EE8000368484A93420AD0B3F1804F32D0464A49
:100EF800934247D0454A934259D00DB030BD444B38
:100F08005A6942F480025A615A6902F480020192D5
:100F1800019A5A6942F400325A615B6903F400335A
:100F28000293029B012307930225089506240B943C
:100F380007A9384801F06AFC4FF410630793089535
:100F4800002309930A930B9407A94FF0904001F0EE
:100F58005DFCD2E703F504335A6942F400325A6162
:100F68005B6903F400330393039B4FF40043079337
:100F78000223089301230B9307A94FF0904001F037
:100F880045FCBAE7224B5A6942F480225A615B69F0
:100F980003F480230493049B80230793022308937C
:100FA8000A230B9307A91C4801F030FCA5E7184B4E
:100FB8005A6942F400325A615A6902F400320592C1
:100FC800059A5A6942F480225A615B6903F48023C6
:100FD8000693069B4FF48053079302250895012436
:100FE8000B9407A94FF0904001F010FC40230793A1
:100FF8000895002309930A930B9407A9064801F062
:1010080005FC7AE7002C0140000400400044014040
:1010180000100240001400480004004810B596B0C3
:1010280000241394149415940C940D940E940F9416
:101038001094119412942C22214601A801F067FD06
:101048002E482F4B03604460846040F2FF33C36036
:1010580004614461846100F05FFB00283FD12023D4
:101068001393002314938023159313A9234800F0A6
:1010780027FE002836D1234B0C9300220D920E92A6
:101088000F9204231093119212920CA91B4800F09E
:10109800B1FB50BB60230C9308220F9200231093DE
:1010A8000CA9164800F0A6FB10BB0023019302937D
:1010B8000393049305934FF4005206920793089301
:1010C8004FF0007209920A930B9301A90B4800F0A4
:1010D80033FE80B90948FFF7FBFE16B010BDFFF7D5
:1010E8000DFDBCE7FFF70AFDC5E7FFF707FDD1E7F0
:1010F800FFF704FDD9E7FFF701FDEBE75C010020EE
:10110800002C01406000010000B58BB0002307935C
:10111800089309930093019302930393049305930F
:10112800069318484FF0804202604360836040F2A3
:10113800FF32C2600361836100F0EEFAC0B9002398
:101148000793099307A90F4800F0BAFD98B96023DF
:10115800009300220192029204926946094800F025
:1011680049FB58B90748FFF7B3FE0BB05DF804FB1D
:10117800FFF7C4FCE3E7FFF7C1FCE8E7FFF7BEFCB5
:10118800F0E700BF1001002000B591B000230B93D9
:101198000C930D930E930F93089309930A9301935D
:1011A8000293039304930593069307932148224AD5
:1011B80002604360836040F2FF32C2600361836172
:1011C80000F07AFA30BB1B4800F0A6FA28BB0623C9
:1011D8000B9300230C930BA9164800F013FCF8B9E5
:1011E800002308930A9308A9124800F069FDD0B9B2
:1011F8006023019300230293039305930C2201A912
:101208000C4800F0F7FA88B90A48FFF761FE11B0F8
:101218005DF804FBFFF772FCD5E7FFF76FFCD6E734
:10122800FFF76CFCDCE7FFF769FCE1E7FFF766FC1A
:10123800EAE700BFC40000200004004010B592B0E7
:1012480000240B940C940D940E940F941094119404
:101258002C222146684601F05AFC2048204B0360A6
:101268004460846040F2FF33C36004614461846178
:1012780000F022FA30BB194800F04EFA28BB602370
:101288000B9300220C920D920E920F9210921192D3
:101298000BA9124800F0AEFAD0B9002300930193CD
:1012A8000293039304934FF40052059206930A9312
:1012B80069460A4800F040FD68B90848FFF708FE8B
:1012C80012B010BDFFF71AFCD5E7FFF717FCD6E7F9
:1012D800FFF714FCE1E7FFF711FCEEE72C00002014
:1012E80000440140FEE7FEE7FEE7FEE7FEE7704741
:1012F8007047704708B500F09BFD08BD82B00A4BE7
:101308009A6942F001029A619A6902F00102009218
:10131800009ADA6942F08052DA61DB6903F080539F
:101328000193019B02B070470010024030B4026A7A
:10133800036A23F0010303624468836923F480335A
:1013480023F073030D681D4322F002028B681343D8
:10135800184A90420BD002F5A052904207D002F5ED
:101368008062904203D002F58062904205D123F05A
:101378000803CA681A4322F004030E4A90420BD0AD
:1013880002F5A052904207D002F58062904203D045
:1013980002F58062904205D124F440744A692243E0
:1013A8008C691443446085614A684263036230BCB7
:1013B800704700BF002C014030B4036A026A22F46F
:1013C800807202624268C46924F4803C2CF0730C79
:1013D8000C6844EA0C0523F400738C6843EA042380
:1013E800124CA0420BD0124CA0420FD004F58064DE
:1013F800A0420BD004F58064A0420FD106E023F48C
:101408000063CC6843EA042323F4806322F4405247
:101418004C6942EA04128C6942EA04124260C561CE
:101428004A68C263036230BC704700BF002C0140A9
:101438000040014030B4026A036A23F48053036217
:101448004468C36923F0807323F4E6430D6843EAD4
:10145800052322F400528D6842EA05320D4DA84258
:101468000BD005F5A055A84207D005F58065A84220
:1014780003D005F58065A84204D124F480444D6961
:1014880044EA85144460C3614B680364026230BC5B
:10149800704700BF002C014030B4036A026A22F48E
:1014A800803202624468426D22F4803222F0700277
:1014B8000D682A4323F400338D6843EA05430D4D34
:1014C800A8420BD005F5A055A84207D005F58065C0
:1014D800A84203D005F58065A84204D124F48034DD
:1014E8004D6944EA0524446042654A68826503629E
:1014F80030BC7047002C014030B4026A036A23F400
:10150800801303624468436D23F0807323F4E0433F
:101518000D6843EA052322F400128D6842EA055259
:101528000D4DA8420BD005F5A055A84207D005F5EA
:101538008065A84203D005F58065A84204D124F44B
:1015480080244D6944EA8524446043654B68C3653B
:10155800026230BC704700BF002C014010B4036A1F
:10156800046A24F001040462846924F0F00C4CEA53
:10157800021223F00A030B43826103625DF8044BF5
:10158800704710B4036A046A24F010040462846982
:1015980024F4704C4CEA023223F0A00343EA01130E
:1015A800826103625DF8044B7047000090F83D309B
:1015B800DBB2012B25D1022380F83D300368144AA1
:1015C800934210D0B3F1804F0DD0A2F594329342DC
:1015D80009D002F59E32934205D01A6842F0010202
:1015E8001A600020704799680A4A0A40062A0AD0F9
:1015F800B2F5803F09D01A6842F001021A60002053
:10160800704701207047002070470020704700BFD6
:10161800002C0140070001000368264A904206D0CA
:10162800B0F1804F03D0A2F59432904203D123F059
:1016380070034A6813431F4A904212D0B0F1804F9A
:101648000FD0A2F5943290420BD002F59E32904210
:1016580007D002F58062904203D002F58062904282
:1016680003D123F44073CA68134323F080034A6903
:10167800134303608B68C3620B6883620D4B984207
:101688000BD003F5A053984207D003F58063984226
:1016980003D003F58063984201D10B6903630123EA
:1016A8004361036913F0010F03D0036923F00103B9
:1016B80003617047002C014060B310B5044690F8F0
:1016C8003D3013B3022384F83D30214651F8040B12
:1016D800FFF7A2FF012384F8483084F83E3084F8ED
:1016E8003F3084F8403084F8413084F8423084F840
:1016F800433084F8443084F8453084F8463084F820
:10170800473084F83D30002010BD80F83C30FFF7AA
:10171800A9FBD7E70120704760B310B5044690F8DD
:101728003D3013B3022384F83D30214651F8040BB1
:10173800FFF772FF012384F8483084F83E3084F8BC
:101748003F3084F8403084F8413084F8423084F8DF
:10175800433084F8443084F8453084F8463084F8BF
:10176800473084F83D30002010BD80F83C30FFF74A
:1017780053FBD7E70120704730B4036A026A22F0AE
:10178800100202624268846924F0807C2CF4E64CE2
:101798000C684CEA042423F020038D6843EA0513FF
:1017A800124DA8420BD0124DA8420FD005F5806506
:1017B800A8420BD005F58065A8420FD106E023F0BA
:1017C8008003CD6843EA051323F0400322F4406206
:1017D8004D6942EA85028D6942EA85024260846168
:1017E8004A688263036230BC704700BF002C014026
:1017F8000040014038B590F83C30012B00F095804E
:1018080004460D46012380F83C30142A00F28880F3
:10181800DFE802F00B8686861F86868634868686F3
:10182800488686865D86868671000068FFF77EFD9D
:101838002268936943F0080393612268936923F04F
:10184800040393612268936929690B43936100201B
:1018580067E00068FFF790FF2268936943F400632C
:1018680093612268936923F4806393612268936982
:10187800296943EA01239361002052E00068FFF7D9
:101888009BFD2268D36943F00803D3612268D369BA
:1018980023F00403D3612268D36929690B43D36118
:1018A80000203EE00068FFF7C5FD2268D36943F4D5
:1018B8000063D3612268D36923F48063D36122680B
:1018C800D369296943EA0123D361002029E000682C
:1018D800FFF7E2FD2268536D43F008035365226861
:1018E800536D23F0040353652268536D29690B4334
:1018F8005365002015E00068FFF7FEFD2268536D70
:1019080043F4006353652268536D23F48063536581
:101918002268536D296943EA01235365002000E0DA
:101928000120002384F83C3038BD0220FCE710B4C5
:10193800846824F47F4C42EA03220A4342EA0C02F8
:1019480082605DF8044B704710B50468A26822F005
:1019580070024B68134323F4803323F007030A68AB
:101968001A43A2604B68502B32D00BD9602B36D06B
:10197800702B43D10B698A68C9680068FFF7D7FFE5
:1019880000200FE0402B0ED001D901200AE0202BC7
:101998002CD003D9302B2FD1002003E043B3102BD8
:1019A80028D1002010BD0B68052B29D003681C6ABC
:1019B8001A6A22F001021A620268936923F0F0039E
:1019C800096943EA0113936103681C620020E9E78F
:1019D8000A6989680068FFF7C1FD0020E2E70A6923
:1019E80089680068FFF7CDFD0020DBE70020D9E714
:1019F8000020D7E70120D5E70120D3E70120D1E770
:101A08000120CFE790F83C30012B22D010B50446D6
:101A1800012380F83C30022380F83D30FFF794FF23
:101A280080B92268D36823F04003D3602268D36862
:101A380023F48043D360012384F83D30002384F8E5
:101A48003C3010BD012084F83D00002384F83C3070
:101A5800F7E70220704701F01F014FF0010C0CFA64
:101A680001FC036A23EA0C030362036A8A401343F6
:101A78000362704710B5044610293CD8DFE801F02E
:101A8800093B3B3B1F3B3B3B263B3B3B2D3B3B3B0F
:101A9800340090F83E30DBB2013B18BF0123002B25
:101AA80040F0828010296DD8DFE801F02C6C6C6C56
:101AB8005C6C6C6C606C6C6C646C6C6C680090F842
:101AC8003F30DBB2013B18BF0123E8E790F8403014
:101AD800DBB2013B18BF0123E1E790F84130DBB2EC
:101AE800013B18BF0123DAE790F84230DBB2013B33
:101AF80018BF0123D3E790F84330DBB2013B18BF8E
:101B08000123CCE7022384F83E3001222068FFF746
:101B1800A2FF2368274A93420BD002F5A0529342B2
:101B280007D002F58062934203D002F580629342A7
:101B380003D15A6C42F400425A6423681D4A934206
:101B480024D0B3F1804F21D0A2F5943293421DD016
:101B580002F59E32934219D01A6842F001021A60C7
:101B6800002022E0022384F83F30CEE7022384F8E5
:101B78004030CAE7022384F84130C6E7022384F8DC
:101B88004230C2E7022384F84330BEE799680A4A24
:101B98000A40062A0AD0B2F5803F09D01A6842F0F6
:101BA80001021A60002000E0012010BD0020FCE7BF
:101BB8000020FAE7002C01400700010001F00F01A6
:101BC8004FF0040C0CFA01FC036A23EA0C030362CD
:101BD800036A8A40134303627047000010B5044645
:101BE800084659BB94F84430DBB2013B18BF0123C7
:101BF800002B5AD100283AD1022384F84430042219
:101C080001462068FFF7DAFF2268536C43F400436B
:101C180053642368284A934239D0B3F1804F36D0B1
:101C2800A2F59432934232D002F59E3293422ED0DE
:101C38001A6842F001021A60002037E0042908D02F
:101C480008290DD094F84730DBB2013B18BF0123B7
:101C5800CEE794F84530DBB2013B18BF0123C7E754
:101C680094F84630DBB2013B18BF0123C0E70428D3
:101C780005D0082807D0022384F84730BFE702239D
:101C880084F84530BBE7022384F84630B7E7996803
:101C98000A4A0A40062A0AD0B2F5803F09D01A68D3
:101CA80042F001021A60002000E0012010BD00206F
:101CB800FCE70020FAE700BF002C01400700010004
:101CC80090F83C20012A33D030B40346012280F832
:101CD8003C20022280F83D20006842688468154D47
:101CE800A84220D022F070020D682A4342601A6888
:101CF800104882420AD0B2F1804F07D0A0F5943044
:101D0800824203D000F59E30824204D124F0800440
:101D1800896821439160012283F83D20002083F8DF
:101D28003C0030BC704722F470024D682A43D9E762
:101D380002207047002C014090F83C30012B3BD02A
:101D480010B40246012380F83C30CB6823F440737A
:101D58008868034323F480634868034323F40063DB
:101D68000868034323F480530869034323F40053AA
:101D78004869034323F48043886A034323F47023A8
:101D8800886943EA004310680C4CA04206D04364BB
:101D9800002082F83C005DF8044B704723F4700380
:101DA8004C6A43EA045323F08073CC69234323F03D
:101DB8000073096A0B43EAE702207047002C0140D0
:101DC80010B504460E4B1A784FF47A73B3FBF2F34E
:101DD8000C4A1068B0FBF3F000F052FE68B90F2C03
:101DE80001D901200AE0002221464FF0FF3000F01F
:101DF80037FE054B1C60002000E0012010BD00BF2D
:101E080000000020080000200400002008B5074A50
:101E1800136843F010031360032000F00FFE002046
:101E2800FFF7CEFFFFF76AFA002008BD0020024046
:101E3800034A1168034B1B780B441360704700BFBB
:101E4800A801002000000020014B1868704700BF5F
:101E5800A8010020002800F0FF8270B582B0044677
:101E6800036813F0010F3BD0B44B5B6803F00C031D
:101E7800042B1ED0B14B5B6803F00C03082B13D066
:101E88006368B3F5803F68D0002B40F0928003F17F
:101E9800804303F504331A6822F480321A601A6802
:101EA80022F480221A605DE0A44B5B6813F4803F43
:101EB800E6D04FF4003393FAA3F3A04B19684FF41C
:101EC800003393FAA3F3B3FA83F303F01F03012259
:101ED80002FA03F30B4203D06368002B00F0BE82C2
:101EE800236813F0020F00F0C480944B5B6813F072
:101EF8000C0F00F09C80914B5B6803F00C03082BDF
:101F080000F08F802369002B00F0F080012292FA04
:101F1800A2F3B3FA83F303F1845303F584139B000C
:101F28001A60FFF791FF0546022393FAA3F3834B48
:101F38001968022393FAA3F3B3FA83F303F01F0398
:101F4800012202FA03F30B4240F0C280FFF77CFF44
:101F5800401B0228E8D9032089E2784A136843F431
:101F680080331360754AD36A23F00F03A1680B43CB
:101F7800D3626368002B36D0FFF766FF05464FF43F
:101F8800003393FAA3F36D4B19684FF4003393FAB7
:101F9800A3F3B3FA83F303F01F03012202FA03F356
:101FA8000B429DD1FFF750FF401B6428E7D903205F
:101FB8005DE2B3F5A02F09D0604B1A6822F4803295
:101FC8001A601A6822F480221A60CBE703F1804372
:101FD800A3F53C331A6842F480221A601A6842F466
:101FE80080321A60BEE7FFF72FFF05464FF4003333
:101FF80093FAA3F3514B19684FF4003393FAA3F300
:10200800B3FA83F303F01F03012202FA03F30B422E
:102018003FF466AFFFF718FF401B6428E6D903209A
:1020280025E2464B5B6813F4803F7FF46BAF0223D5
:1020380093FAA3F3414B1968022393FAA3F3B3FA73
:1020480083F303F01F03012202FA03F30B4203D0C8
:102058002369934240F004823848036823F0F80368
:102068006169F82292FAA2F2B2FA82F291400B4325
:102078000360236813F0080F00F08C80A369002B1D
:1020880060D0012191FAA1F2B2FA82F22C4B1344EA
:102098009B001960FFF7D8FE0546022393FAA3F2C6
:1020A80093FAA3F293FAA3F2244A516A93FAA3F398
:1020B800B3FA83F303F01F03012202FA03F30B427E
:1020C80068D1FFF7C1FE401B0228E6D90320CEE104
:1020D8001A48036823F0F8036169F82292FAA2F219
:1020E800B2FA82F291400B430360C2E7012393FAEC
:1020F800A3F3B3FA83F303F1845303F584139B002A
:1021080000221A60FFF7A0FE0546022393FAA3F304
:102118000A4B1968022393FAA3F3B3FA83F303F083
:102128001F03012202FA03F30B42A2D0FFF78CFE31
:10213800401B0228E9D9032099E100BF00100240A2
:1021480020819010012292FAA2F2B2FA82F2B74BE1
:1021580013449B0000221A60FFF776FE054602230F
:1021680093FAA3F293FAA3F293FAA3F2B04A516A4C
:1021780093FAA3F3B3FA83F303F01F03012202FADD
:1021880003F30B4206D0FFF75FFE401B0228E6D997
:1021980003206CE1236813F0040F00F0A980A44B1E
:1021A800DB6913F0805F20D1A14BDA6942F08052DD
:1021B800DA61DB6903F080530193019B01259D4B94
:1021C8001B6813F4807F12D0E368012B23D073BB04
:1021D80003F1804303F504331A6A22F001021A62FC
:1021E8001A6A22F004021A621AE00025E7E7914A07
:1021F800136843F480731360FFF726FE06468D4B81
:102208001B6813F4807FDFD1FFF71EFE801B642854
:10221800F5D903202BE1864A136A43F001031362C0
:10222800E368002B3CD0FFF70FFE06462EE0052B97
:1022380009D07F4B1A6A22F001021A621A6A22F048
:1022480004021A62ECE77A4B1A6A42F004021A6234
:102258001A6A42F001021A62E2E7022393FAA3F330
:10226800734B596A022393FAA3F3B3FA83F303F087
:102278001F03012202FA03F3194238D1FFF7E4FDE4
:10228800801B41F28833984200F2EC80022393FAD3
:10229800A3F293FAA3F3002BDFD0654B196AE1E7A9
:1022A800FFF7D2FD064618E0022393FAA3F3604B2A
:1022B800596A022393FAA3F3B3FA83F303F01F03D3
:1022C800012202FA03F3194211D0FFF7BDFD801B6A
:1022D80041F28833984200F2C780022393FAA3F2AE
:1022E80093FAA3F3002BDFD0514B196AE1E7B5BB92
:1022F800E369002B00F0BA804D4A526802F00C02E4
:10230800082A00F09980022B2FD04FF0807393FA9F
:10231800A3F3B3FA83F303F1845303F584139B0007
:1023280000221A60FFF790FD04464FF0007393FAFD
:10233800A3F33F4B19684FF0007393FAA3F3B3FA72
:1023480083F303F01F03012202FA03F319426BD04F
:10235800FFF77AFD001B0228E7D9032087E0344AFB
:10236800D36923F08053D361C2E74FF0807393FAA7
:10237800A3F3B3FA83F303F1845303F584139B00A7
:1023880000221A60FFF760FD05464FF0007393FACC
:10239800A3F3274B19684FF0007393FAA3F3B3FA2A
:1023A80083F303F01F03012202FA03F3194206D054
:1023B800FFF74AFD401B0228E7D9032057E01C49D4
:1023C8004B6823F47413626A206A024313434B6018
:1023D8004FF0807393FAA3F3B3FA83F303F18453B2
:1023E80003F584139B0001221A60FFF72DFD0446B4
:1023F8004FF0007393FAA3F30D4B19684FF0007375
:1024080093FAA3F3B3FA83F303F01F03012202FA4A
:1024180003F3194206D1FFF717FD001B0228E7D97D
:10242800032024E0002022E0002020E020819010FA
:102438000010024000700040012B1AD0104B5B685E
:1024480003F48031226A914215D103F47013626A51
:10245800934212D100200AE001207047012006E0D3
:10246800012004E0032002E0032000E0002002B085
:1024780070BD0120FBE70120F9E70120F7E700BF65
:10248800001002400F4B5B6803F00C02082A01D0D1
:102498000D487047C3F383420C49885C094AD26AE5
:1024A80002F00F020A498A5C13F4803F05D0064BFC
:1024B800B3FBF2F303FB00F07047064B03FB00F09D
:1024C800704700BF0010024000127A00F83B000875
:1024D800E83B000800093D00002800F0BE8070B508
:1024E8000D460446614B1B6803F007038B420BD271
:1024F8005E4A136823F007030B431360136803F065
:1025080007038B4240F0AB80236813F0020F06D01C
:10251800574A536823F0F003A1680B4353602368BC
:1025280013F0010F5AD06368012B2DD0022B40D035
:10253800022292FAA2F24E4A1068022292FAA2F2FB
:10254800B2FA82F202F01F02012101FA02F21042ED
:1025580000F0878046494A6822F0030213434B6023
:10256800FFF772FC0646424B5B6803F00C03626897
:10257800B3EB820F32D0FFF767FC801B41F2883340
:102588009842F0D9032067E04FF4003292FAA2F2A1
:10259800374A10684FF4003292FAA2F2B2FA82F285
:1025A80002F01F02012101FA02F20242D2D10120F7
:1025B80052E04FF0007292FAA2F22D4A10684FF0E2
:1025C800007292FAA2F2B2FA82F202F01F0201211C
:1025D80001FA02F21042BDD101203DE0234B1B68F5
:1025E80003F00703AB420AD9204A136823F0070314
:1025F8002B431360136803F00703AB4233D12368FE
:1026080013F0040F06D01A4A536823F4E063E16814
:102618000B435360236813F0080F07D0144A53681C
:1026280023F46053216943EAC1035360FFF72AFF8B
:102638000F4B5B6803F0F003F02292FAA2F2B2FAB1
:1026480082F2D3400B4AD35CD8400B4B18600B4B3B
:102658001868FFF7B5FB002070BD01207047012006
:10266800FAE70120F8E70120F6E700BF0020024062
:1026780000100240083C0008080000200400002068
:10268800F0B583B00446036813F4803F44D05C4B34
:10269800DB6913F0805F6DD1594BDA6942F08052E3
:1026A800DA61DB6903F080530193019B0125554BE7
:1026B8001B6813F4807F5FD0514B1B6A13F440737F
:1026C80021D0626802F440729A421CD04C48016AD8
:1026D80021F440764FF4803393FAA3F2B2FA82F2EF
:1026E800494F3A4492004FF0010CC2F800C093FAE7
:1026F800A3F3B3FA83F33B449B0000221A600662FB
:1027080011F0010F4CD13E4A136A23F440736168FB
:102718000B431362002D69D1236813F0010F06D013
:10272800374A136B23F00303A1680B431363236831
:1027380013F0200F06D0324A136B23F01003E16820
:102748000B431363236813F0800F06D02C4AD36A17
:1027580023F4F87321690B43D362236813F4805F71
:102768004BD0274A136B23F4807361690B431363BF
:10277800002043E000259AE7224A136843F4807357
:102788001360FFF761FB06461E4B1B6813F4807F3E
:1027980092D1FFF759FB801B6428F5D903202DE05F
:1027A800FFF752FB064617E0022393FAA3F3144BF4
:1027B800596A022393FAA3F3B3FA83F303F01F03CE
:1027C800012202FA03F30B429DD1FFF73DFB801B68
:1027D80041F2883398420ED8022393FAA3F293FA6F
:1027E800A3F3002BE0D0064B196AE2E7D36923F084
:1027F8008053D36190E7032000E0002003B0F0BDD0
:10280800001002400070004000819010F0B583B0C5
:10281800002362E085685E000324B44025EA0405CD
:10282800CC68B4402C438460456825EA0C054C68A4
:10283800C4F300149C402C4344605FE0DD08083575
:1028480050F8254003F0070C4FEA8C0C4FF00F0EA0
:102858000EFA0CFE24EA0E0E0C6904FA0CF444EA93
:102868000E0440F8254060E0032400E0002404FA48
:102878000EF42C430CF1020C4F4D45F82C404F4CF4
:10288800A568D44325EA02064F6817F4801F01D0D3
:1028980042EA0506494DAE60ED6804EA05064F6850
:1028A80017F4001F01D042EA0506444DEE606D683A
:1028B80004EA05064F6817F4003F01D042EA05060E
:1028C8003E4D6E602D682C404E6816F4803F01D056
:1028D80042EA0504394A146001330A6832FA03F4FB
:1028E80068D04FF0010C0CFA03FC1CEA0202F3D08A
:1028F8004C6804F00304013C012C8BD94C6804F0AB
:102908000304032C0CD0C4685D004FF0030C0CFAD0
:1029180005FC24EA0C0C8C68AC4044EA0C04C46046
:102928004C6804F00304022C88D004684FEA430E74
:102938004FF0030C0CFA0EFC24EA0C0C4C6804F063
:10294800030404FA0EF444EA0C0404604C6814F41A
:10295800403FC1D01A4CA56945F00105A561A4699D
:1029680004F001040194019C4FEA930C0CF1020558
:10297800114C54F8255003F0030E4FEA8E0E0F2425
:1029880004FA0EF425EA0405B0F1904F3FF46EAF57
:102998000C4CA0420AD004F58064A04208D004F58B
:1029A8008064A0423FF460AF052460E701245EE73D
:1029B80002245CE703B0F0BD0000014000040140C0
:1029C80000100240000400480AB18161704781622A
:1029D80070470000002808DB0901C9B200F1604017
:1029E80000F5614080F80013704700F00F000901FE
:1029F800C9B2014B1954704714ED00E000B500F05E
:102A08000700C0F1070CBCF1040F28BF4FF0040CFD
:102A1800031D062B0FD9C31E4FF0FF3E0EFA0CF014
:102A280021EA000199400EFA03FE22EA0E0241EA69
:102A380002005DF804FB0023EEE70000074AD368B4
:102A480023F4E0631B041B0C000200F4E060034362
:102A580043F0BF6343F40033D360704700ED00E0F8
:102A680010B50446054BD868C0F30220FFF7C6FF2F
:102A780001462046FFF7AEFF10BD00BF00ED00E0A5
:102A88000138B0F1807F0BD24FF0E0235861054A3E
:102A9800F02182F823100020986107221A617047FC
:102AA8000120704700ED00E0034AD2F8883043F473
:102AB8007003C2F88830704700ED00E0DFF834D0CA
:102AC800FFF7F2FF0C480D490D4A002302E0D458E5
:102AD800C4500433C4188C42F9D30A4A0A4C002360
:102AE80001E013600432A242FBD300F019F8FEF7AC
:102AF8004BF8FEE700300020000000200C0000200A
:102B0800F83D00080C000020AC010020FEE702445C
:102B18000346934200D1704703F8011BF9E7000010
:102B280070B50D4D0D4C641BA4100026A64209D1AA
:102B38000B4D0C4C01F048F8641BA4100026A6426B
:102B480005D170BD55F8043B98470136EEE755F8B6
:102B5800043B98470136F2E7F03D0008F03D0008D5
:102B6800F03D0008F43D00081FB553EC102B264833
:102B780023F00041814206D89FED211B05B05DF886
:102B880004EB00F099BD2148814208D91046194646
:102B9800FDF71AFB41EC100B05B05DF804FB684625
:102BA80000F036F800F0030001280BD0022815D0F9
:102BB800D8B99DED021B9DED000B00F07DFD51EC99
:102BC800100BE7E79DED021B9DED000B00F03CFEAE
:102BD80053EC102B104603F10041DBE79DED021B7F
:102BE8009DED000B00F068FDF2E79DED021B9DEDE9
:102BF800000B012000F028FEE1E700BFAFF30080E2
:102C08000000000000000000FB21E93FFFFFEF7F0C
:102C18002DE9F04F57EC106BC54B8DB027F00048ED
:102C280098450446049707D80022002380ED000B3E
:102C3800C0E90223002528E0BE4B984578D8049BBC
:102C4800BD4D002B3046ACA3D3E90023394638DD0F
:102C5800FDF7BAFAA84506460F461AD0A8A3D3E945
:102C68000023FDF7B1FA02460B46804689463046F6
:102C78003946FDF7A9FAA2A3D3E90023FDF7A4FA80
:102C8800C4E90089C4E90201012528460DB0BDE860
:102C9800F08F9DA3D3E90023FDF796FA9CA3D3E90F
:102CA800002306460F46FDF78FFA02460B4680467C
:102CB800894630463946FDF787FA95A3D3E90023BC
:102CC800DCE7FDF783FAA84506460F4618D08CA323
:102CD800D3E90023FDF77AFA02460B468046894677
:102CE80030463946FDF770FA85A3D3E90023FDF78E
:102CF8006DFA4FF0FF35C4E90089C4E90201C4E761
:102D080081A3D3E90023FDF761FA81A3D3E9002366
:102D180006460F46FDF75AFA02460B468046894694
:102D280030463946FDF750FA79A3D3E90023DEE7A8
:102D3800824B984500F2D18000F040FE57EC106BB2
:102D480075A3D3E9002330463946FDF7F5FB7C4BE4
:102D58000022FDF73BFAFDF789FE0546FDF782FBE9
:102D680002460B46CDE9022363A3D3E90023FDF70E
:102D7800E3FB02460B4630463946FDF725FA60A3C9
:102D8800D3E9002382468B46DDE90201FDF7D4FB37
:102D98001F2D06460F460CDC6A4B6A1E53F822307C
:102DA800434506D032463B4650465946FDF70CFA95
:102DB8000EE03B46324650465946FDF705FA4FEAC3
:102DC80028530593C1F30A53C3EB1853102B02DCA5
:102DD800C4E9000139E04CA3D3E90023DDE902018D
:102DE800FDF7AAFB06460F4602460B4650465946D3
:102DF800FDF7EAF902460B46804689465046594691
:102E0800FDF7E2F932463B46FDF7DEF940A3D3E988
:102E1800002306460F46DDE90201FDF78DFB324629
:102E28003B46FDF7D1F902460B4606460F4640469B
:102E38004946FDF7C9F9059AC1F30A53D31A312B4C
:102E480020DCC4E90001C246CB46D4E900895046DB
:102E580042464B465946FDF7B7F93B463246FDF721
:102E6800B3F9049B002BC4E90201BFF60EAF09F1C8
:102E78000043636001F10043C4F80080A060E36090
:102E88006D4202E726A3D3E90023DDE90201FDF73D
:102E980053FB06460F4602460B4640464946FDF799
:102EA80093F902460B4682468B4640464946FDF753
:102EB8008BF932463B46FDF787F91BA3D3E900237C
:102EC80006460F46DDE90201FDF736FB32463B4672
:102ED800FDF77AF906460F4664E71B4B984535D946
:102EE80032463B4630463946FDF76EF9C4E90201E1
:102EF800C4E900019EE600BF00004054FB21F93FF1
:102F08003163621A61B4D03D0000601A61B4D03DEB
:102F18007370032E8A19A33B83C8C96D305FE43FE1
:102F28000000002E8A19A33BC14920259A837B39CA
:102F3800FB21E93F7BD90240FB21F93FFB213941C5
:102F48000000E03F183C0008FFFFEF7F4FEA2855DC
:102F5800A5F21645A8EB055130460F46FDF786FD4C
:102F6800FDF780FA02460B4630463946CDE906237E
:102F7800FDF72AF9224B0022FDF7DEFA0F46064636
:102F8800FDF774FDFDF76EFA02460B4630463946EA
:102F9800CDE90823FDF718F9194B0022FDF7CCFA03
:102FA800CDE90A010DF130094FF00308002600278A
:102FB80079E9020132463B46C24608F1FF38FDF77F
:102FC80023FD0028F4D10F4B0193022300932A46D6
:102FD8005346214606A800F017F8049B002B054627
:102FE800BFF653AED4E9002101F10043C4E9002340
:102FF800D4E9022101F10043C4E9022340E700BFFC
:1030080000007041983C00082DE9F04F2DED028B2F
:10301800ADF5197D12F1140F06930491BE4BA499D6
:10302800089053F821300093069B03F1FF33A8BFA3
:10303800D41E0593B2BF0024182394FBF3F46FF059
:10304800170304FB033303EB020B009B059A9FED68
:10305800AE8B03EB0208A59BA71A20AE03EB8709EA
:103068000025454513DD069B20AA02EBC3050DF597
:10307800E07A4FF00008009B984531DC9FEDA27B79
:10308800DDF820908DED027B2F4600261BE0EF42F5
:1030980007D459F82500FDF7E5F9E6E802010135FE
:1030A800DFE751EC180BF8E7D7E90023F9E802014C
:1030B800FDF742FA02460B46DDE90201FDF786F804
:1030C800CDE902010136059B9E42A7F10807EBDD19
:1030D8009DED027B08F10108AAEC027B0835CAE7DE
:1030E800009BDDF800800CAA02EB83030A93A59BE2
:1030F80003EB840309934FEAC8030B9398AB03EBE4
:10310800C80313ED287B8DED027B0CAC70AB03EB91
:10311800C805A146C246BAF1000FA5F1080577DC3B
:1031280058469DED020B00F053FC57EC106B002243
:103138004FF07F5330463946FDF7FEF941EC100B4E
:1031480000F0C6FC754B51EC100B0022FDF7F4F9AA
:1031580002460B4630463946FDF736F80F46064616
:10316800FDF784FC0290FDF77DF902460B463046D8
:103178003946FDF729F8BBF1000F06460F466CDD0E
:1031880008F1FF310CAB029D53F82130CBF1180048
:1031980043FA00F2154482409B1A0CAA029542F8A1
:1031A8002130CBF1170243FA02F9B9F1000F64DDBF
:1031B800029B00220133029315466FF07F41904530
:1031C80000F3B880BBF1000F07DDBBF1010F00F081
:1031D800BF80BBF1020F00F0C680B9F1020F4CD1DD
:1031E80032463B464E490020FCF7EEFF06460F46A6
:1031F800002D42D058469FED460B00F0E9FB3046C3
:10320800394653EC102BFCF7DFFF06460F4634E037
:10321800444B0022DDE90201FDF78EF9FDF726FC9B
:10322800FDF720F9404B002206460F46FDF784F9CA
:1032380002460B46DDE90201FCF7C6FFFDF716FC66
:10324800D5E9002349F8040B39463046FCF7BEFFA0
:103258000AF1FF3ACDE902015DE707D108F1FF3332
:103268000CAA52F823304FEAE3599EE72F4B00226D
:10327800FDF7E8FB002843D18146002200233046B1
:103288003946FDF7C1FB002800F0BF8008F1FF3385
:10329800002200998B426EDA002A00F0898008F13A
:1032A800FF380CABABF1180B53F82830002BF6D0D5
:1032B80058469FED170B00F08BFB08F10103DA006D
:1032C800059255EC104B70AADFF858B002EBC30713
:1032D80046464FF0000A002E80F2CF804446002C6C
:1032E800C0F2FD80124B1F4670AB03EBC40306937C
:1032F8004FF0000A4FF0000B0026A8EB0405E2E0AF
:103308004FF0020954E700BF000000000000000071
:10331800000000000000F03FE03D000800002040F1
:103328000000F03F0000703E000070410000E03FE8
:10333800A03D000854F8043B45B923B1C3F180739C
:1033480044F8043C012301321D4638E7CB1AF7E75D
:1033580008F1FF320CAB53F82230C3F316030CA963
:1033680041F8223039E708F1FF320CAB53F822302C
:10337800C3F31503F3E70CA951F82310013B0A43E3
:1033880087E7013453F8042D002AFAD00B9B03F584
:1033980018730DEB0305069B20AA434408F10107A7
:1033A800983D02EBC3064444BC4204DAA046A2E6B8
:1033B8000A9B0124E6E7099B53F82700FDF752F81A
:1033C8009FEDB17BE6E802018DED027BDDF82090F0
:1033D800B2464FF00008059B984505DD9DED027B40
:1033E8000137A5EC027BDFE77AE90223F9E802015D
:1033F800FDF7A2F802460B46DDE90201FCF7E6FEFE
:1034080008F10108CDE90201E5E7CBF1000047EC3E
:10341800106B00F0DDFA55EC104B9D4B0022204656
:103428002946FDF70FFB00B39A4B00222046294698
:10343800FDF782F8FDF71AFB0646FDF713F8944BE3
:103448000022FDF779F80B46024629462046FCF78C
:10345800BBFEFDF70BFB0CAB0BF1180B43F8280078
:1034680008F1010843F8286022E720462946FDF7BD
:10347800FDFA0CAB43F828001AE70CAB53F826000A
:10348800FCF7F0FF22462B46FDF756F8524667E94F
:1034980002015B4620462946FDF74EF8013E0446E8
:1034A8000D4618E70699F1E802230691F7E80201AC
:1034B800FDF742F802460B4650465946FCF786FE91
:1034C800013682468B46009B9E4201DCB542E9DA12
:1034D80048AB03EBC505C5E900AB013CFFE6A49B7F
:1034E800022B0BDC002B39DC5DD0029B03F00700BC
:1034F8000DF5197DBDEC028BBDE8F08FA49B032B65
:10350800F3D1059B03F518730DEB0304A4F5A4741C
:103518002546C246BAF1000FA5F108056BDC454601
:10352800012DA4F1080400F38780059C48AB1C44D6
:1035380000200021B8F1010F00F39C80DDE94878F4
:10354800DDE94A56B9F1000F40F0A680049BC3E9B3
:103558000078C3E90256C3E90401C6E7059D48ABF4
:103568001D44444600200021002C35DAB9F1000F33
:1035780038D0024601F10043049CC4E90023024606
:103588000B46DDE94801FCF71FFE4AAD0124A045C2
:103598002BDAB9F1000F02D001F100431946049B60
:1035A800C3E90201A1E7059C48AB1C4400200021A7
:1035B800B8F1000F09DAB9F1000F02D001F10043A8
:1035C8001946049BC3E900018FE774E90223FCF75D
:1035D800FDFD08F1FF38EBE775E90223FCF7F6FD7E
:1035E800013CC1E702460B46C6E7F5E80223FCF7B3
:1035F800EDFD0134CBE795ED007B8DED007B95ED7E
:10360800027BDDE9000153EC172B8DED067BFCF7FF
:10361800DDFD02460B4606460F46DDE90001FCF7D4
:10362800D3FDDDE90623FCF7D1FD0AF1FF3AC5E930
:103638000201C5E900676DE794ED007BD4E902ABB0
:1036480051EC170B52465B468DED007BFCF7BEFD37
:1036580002460B4606460F46DDE90001FCF7B4FDBD
:1036680052465B46FCF7B2FD013DC4E90201C4E9DC
:10367800006755E774E90223FCF7A8FD08F1FF3855
:1036880058E700BFAFF30080000000000000000012
:10369800000070410000703E049B049A1F6008F10E
:1036A80000445C609D6006F10043D36001F1004373
:1036B8001061536119E700BF2DE9F74F57EC106B04
:1036C80027F00048B8F1795F8DED001B06D230462F
:1036D8003946FDF7CBF9002800F0888032463B4692
:1036E80030463946FCF728FF514B002204460D4668
:1036F800FCF722FF40A3D3E9002382468B462046ED
:103708002946FCF719FF3EA3D3E90023FCF75EFD29
:1037180022462B46FCF710FF3BA3D3E90023FCF716
:1037280053FD22462B46FCF707FF39A3D3E90023B4
:10373800FCF74CFD22462B46FCF7FEFE36A3D3E9E8
:103748000023FCF741FD22462B46FCF7F5FE34A387
:10375800D3E90023FCF73AFD22462B46FCF7ECFEA2
:1037680022462B46FCF7E8FEDDE9002304460D4619
:1037780030463946FCF7E0FE0B460246294620460D
:10378800FCF722FD2B4B984506460F4610D80246FB
:103798000B4650465946FCF717FD0B46264902468C
:1037A8000020FCF711FD41EC100B03B0BDE8F08FD1
:1037B800224B214998458CBF214DA8F500150024BE
:1037C80022462B460020FCF7FFFC2246804689460D
:1037D8002B4650465946FCF7F7FC32463B46FCF769
:1037E800F3FC02460B4640464946DAE79FED0E0BCE
:1037F800DBE700BFAFF30080D43888BEE9FAA8BD84
:10380800C4B1B4BD9EEE213EAD529C804F7E923E27
:103818009015CB19A001FA3E7751C1166CC1563FDD
:103828004C5555555555A53F000000000000F03F88
:103838000000E03F3233D33F0000F03F0000E93F93
:103848000000D23F000000002DE9F04F55EC104B6E
:1038580025F0004385B0B3F1795F8DED021B8046FA
:1038680005D220462946FDF701F9002852D0224604
:103878002B4620462946FCF75FFE82468B460246C9
:103888000B4620462946FCF757FE42A3D3E90023FE
:10389800CDE9000150465946FCF74EFE3FA3D3E957
:1038A8000023FCF791FC52465B46FCF745FE3DA31E
:1038B800D3E90023FCF78AFC52465B46FCF73CFE42
:1038C8003AA3D3E90023FCF77FFC52465B46FCF79A
:1038D80033FE38A3D3E90023FCF778FC06460F46ED
:1038E800B8F1000F1BD102460B4650465946FCF76B
:1038F80023FE25A3D3E90023FCF766FCDDE90023BA
:10390800FCF71AFE02460B4620462946FCF75EFCE9
:1039180004460D4645EC104B05B0BDE8F08FDDE9D7
:1039280002011B4B0022FCF707FE324680468946FF
:103938003B46DDE90001FCF7FFFD02460B46404629
:103948004946FCF741FC52465B46FCF7F5FDDDE9CC
:103958000223FCF739FC0CA3D3E9002306460F46E3
:10396800DDE90001FCF7E8FD02460B463046394622
:10397800FCF72CFC02460B4620462946FCF724FCA3
:10398800C6E700BFAFF30080495555555555C53FAB
:103998000000E03F7CD5CF5A3AD9E53DEB9C2B8A15
:1039A800E6E55A3E7DFEB157E31DC73ED561C11914
:1039B800A0012A3FA6F810111111813F51EC100BFC
:1039C800024621F0004343EC102B70470000000032
:1039D80070B555EC104BC5F30A5106462B4691B904
:1039E80025F0004323433DD0354B2046294600228D
:1039F800FCF7A2FD334B9E4204460D460FDA28A37E
:103A0800D3E900231EE040F2FF7291420BD1224617
:103A180020462946FCF7DAFB04460D4622E00B4611
:103A2800C1F30A5136394CF2503296420DDD002D61
:103A38001DA1D1E9000102DA1DA1D1E900011AA3F3
:103A4800D3E90023FCF778FDE6E7721840F2FE712F
:103A58008A42ECDC002A08DD23F0FF4323F4E0036C
:103A680043EA025545EC104B70BD12F1350F08DAE8
:103A7800002D0BA1D1E90001C1DA0FA1D1E90001A4
:103A8800BDE723F0FF43363223F4E00343EA02554F
:103A980020460D4B29460022D4E700BFAFF3008033
:103AA80059F3F8C21F6EA5019C7500883CE4377E67
:103AB8009C7500883CE437FE59F3F8C21F6EA58157
:103AC80000005043B03CFFFF0000903C00000000A5
:103AD80051EC100BC1F30A532DE9F041A3F2FF3664
:103AE800132E0C460546804634DC002E17DA32A326
:103AF800D3E90023FCF76AFB00220023FCF7ACFFA4
:103B080050B1002C55DA24F000442C430025AC4277
:103B18002B4C08BF4FF000442146284623E0294F8C
:103B2800374101EA070303431DD023A3D3E9002348
:103B3800FCF74CFB00220023FCF78EFF0028EBD09B
:103B4800002CBEBF4FF480133341E41824EA070465
:103B58000025E1E7332E0ADDB6F5806F03D1024672
:103B68000B46FCF733FB41EC100BBDE8F081A3F2E8
:103B780013434FF0FF37DF400742F4D00EA3D3E9D9
:103B88000023FCF723FB00220023FCF765FF002835
:103B9800C2D0002C0ADA142E01D1013406E0C6F195
:103BA80034060123B3401D444545F6D325EA0705ED
:103BB800B2E700252C46AFE79C7500883CE4377EC9
:103BC8000000F0BFFFFF0F00F8B500BFF8BC08BC4D
:103BD8009E467047F8B500BFF8BC08BC9E467047C3
:103BE8000102030405060708090A0B0C0D0E0F1045
:103BF80002030405060708090A0B0C0D0E0F101026
:103C08000000000000000000010203040607080984
:103C1800FB21F93FFB2109407CD91240FB211940C7
:103C28007A6A1F407CD92240BBFD2540FB212940F0
:103C38003A462C407A6A2F405C4731407CD9324062
:103C48009C6B3440BBFD3540DB8F3740FB2139404E
:103C58001BB43A403A463C405AD83D407A6A3F4005
:103C68004C7E40405C4741406C1042407CD9424009
:103C78008CA243409C6B4440AC344540BBFD45405E
:103C8800CBC64640DB8F4740EB584840FB214940B4
:103C980083F9A200444E6E00FC291500D157270075
:103CA800DD34F50062DBC0003C999500419043008B
:103CB8006351FE00BBDEAB00B761C5003A6E24005D
:103CC800D24D42004906E00009EA2E001C92D100BC
:103CD800EB1DFE0029B11C00E83EA700F535820067
:103CE80044BB2E009CE98400B4267000417E5F002E
:103CF800D6913900538339009CF439008B5F8400D6
:103D080028F9BD00F81F3B00DEFF97000F9805005B
:103D1800112FEF000A5A8B006D1F6D00CF7E360001
:103D280009CB2700464FB7009E663F002DEA5F008B
:103D3800BA277500E5EBC7003D7BF100F7390700AE
:103D480092528A00FB6BEA001FB15F00085D8D008C
:103D5800300356007BFC4600F0AB6B0020BCCF0064
:103D680036F49A00E3A91D005E619100081BE60085
:103D780085996500A0145F008D40680080D8FF0019
:103D880027734D0006063100CA561500C9A87300EE
:103D98007BE260006B8CC00000000040FB21F93F13
:103DA800000000002D44743E000000809846F83C56
:103DB8000000006051CC783B00000080831BF03984
:103DC8000000004020257A38000000802282E33677
:103DD800000000001DF36935020000000300000028
:083DE8000400000006000000C9
:043DF000AD01000819
:043DF4008901000839
:0C3DF800010000001000000000127A0022
:0400000508002AC500
:00000001FF
