:020000040800F2
:1000000000300020095A00088D1A00088F1A0008D5
:10001000911A0008931A0008951A000800000000C1
:10002000000000000000000000000000971A000817
:10003000991A0008000000009B1A00089D1A000889
:10004000595A0008595A0008595A0008595A0008C4
:10005000595A0008595A0008595A0008595A0008B4
:10006000595A0008595A0008595A0008A51A000898
:10007000595A0008595A0008B51A0008C51A00084C
:10008000595A0008595A0008595A0008595A000884
:10009000595A0008595A0008595A0008595A000874
:1000A000595A0008595A0008595A0008595A000864
:1000B000D51A0008595A000800000000595A0008D3
:1000C000595A00080000000000000000595A0008BA
:1000D00000000000E51A0008595A0008595A0008A3
:1000E000595A0008595A000800000000000000009A
:1000F0000000000000000000000000000000000000
:1001000000000000000000000000000000000000EF
:100110000000000000000000595A0008595A000869
:1001200000000000000000000000000000000000CF
:1001300000000000000000000000000000000000BF
:10014000595A0008595A0008000000000000000039
:10015000000000000000000000000000000000009F
:10016000000000000000000000000000000000008F
:10017000000000000000000000000000000000007F
:0801800000000000595A0008BC
:1001900010B5054C237833B9044B13B10448AFF3C1
:1001A00000800123237010BDD40100200000000056
:1001B0001096000808B5034B1BB103490348AFF381
:1001C000008008BD00000000D80100201096000843
:1001D00001F0FF01102A2BDB10F0070F08D010F8F8
:1001E000013B013A8B422DD010F0070F42B3F6D1FC
:1001F000F0B441EA012141EA014122F007047FF015
:1002000000070023F0E80256083C85EA010586EA6B
:10021000010685FA47F5A3FA87F586FA47F6A5FAA7
:1002200087F68EB9EED1F0BC01F0FF0102F00702B3
:1002300032B110F8013B013A83EA010313B1F8D15E
:100240000020704701387047002D06BF354603383F
:10025000073815F0010F07D1013015F4807F02BF78
:10026000013015F4C03F0130F0BC0138704700BFC9
:10027000034613F8012B002AFBD1181A01387047E6
:1002800081F0004102E000BF83F0004330B54FEA47
:1002900041044FEA430594EA050F08BF90EA020FB4
:1002A0001FBF54EA000C55EA020C7FEA645C7FEA47
:1002B000655C00F0E2804FEA5454D4EB5555B8BF6A
:1002C0006D420CDD2C4480EA020281EA030382EADB
:1002D000000083EA010180EA020281EA0303362D6D
:1002E00088BF30BD11F0004F4FEA01314FF4801C40
:1002F0004CEA113102D0404261EB410113F0004F52
:100300004FEA03334CEA133302D0524263EB430308
:1003100094EA050F00F0A780A4F10104D5F1200EA6
:100320000DDB02FA0EFC22FA05F2801841F1000101
:1003300003FA0EF2801843FA05F359410EE0A5F1D5
:1003400020050EF1200E012A03FA0EFC28BF4CF006
:10035000020C43FA05F3C01851EBE37101F00045BC
:1003600007D54FF0000EDCF1000C7EEB00006EEBC9
:100370000101B1F5801F1BD3B1F5001F0CD3490853
:100380005FEA30004FEA3C0C04F101044FEA4452AA
:1003900012F5800F80F09A80BCF1004F08BF5FEA31
:1003A000500C50F1000041EB045141EA050130BD11
:1003B0005FEA4C0C404141EB0101013C28BFB1F523
:1003C000801FE9D291F0000F04BF01460020B1FA6E
:1003D00081F308BF2033A3F10B03B3F120020CDA41
:1003E0000C3208DD02F1140CC2F10C0201FA0CF01F
:1003F00021FA02F10CE002F11402D8BFC2F1200C84
:1004000001FA02F120FA0CFCDCBF41EA0C01904039
:10041000E41AA2BF01EB0451294330BD6FEA040482
:100420001F3C1CDA0C340EDC04F11404C4F120026D
:1004300020FA04F001FA02F340EA030021FA04F37F
:1004400045EA030130BDC4F10C04C4F1200220FAD6
:1004500002F001FA04F340EA0300294630BD21FA14
:1004600004F0294630BD94F0000F83F4801306BFDA
:1004700081F480110134013D4EE77FEA645C18BFCE
:100480007FEA655C29D094EA050F08BF90EA020F65
:1004900005D054EA000C04BF1946104630BD91EA5D
:1004A000030F1EBF0021002030BD5FEA545C05D160
:1004B0004000494128BF41F0004130BD14F580049F
:1004C0003CBF01F5801130BD01F0004545F0FE4113
:1004D00041F470014FF0000030BD7FEA645C1ABF48
:1004E000194610467FEA655C1CBF0B46024650EA7F
:1004F000013406BF52EA033591EA030F41F40021AB
:1005000030BD00BF90F0000F04BF0021704730B530
:100510004FF4806404F132044FF000054FF0000105
:1005200050E700BF90F0000F04BF0021704730B5C6
:100530004FF4806404F1320410F0004548BF40429B
:100540004FF000013EE700BF42004FEAE2014FEAF0
:1005500031014FEA02701FBF12F07F4393F07F4FCB
:1005600081F06051704732F07F4208BF704793F0CE
:100570007F4F04BF41F40021704730B54FF46074E1
:1005800001F0004521F000411CE700BF50EA0102E4
:1005900008BF704730B54FF000050AE050EA01028D
:1005A00008BF704730B511F0004502D5404261EBFD
:1005B00041014FF4806404F132045FEA915C3FF43E
:1005C000D8AE4FF003025FEADC0C18BF03325FEADB
:1005D000DC0C18BF033202EBDC02C2F1200300FA8C
:1005E00003FC20FA02F001FA03FE40EA0E0021FAB1
:1005F00002F11444BDE600BF70B54FF0FF0C4CF49F
:10060000E06C1CEA11541DBF1CEA135594EA0C0F50
:1006100095EA0C0F00F0DEF82C4481EA030621EA8B
:100620004C5123EA4C5350EA013518BF52EA0335C6
:1006300041F4801143F4801338D0A0FB02CE4FF078
:100640000005E1FB02E506F00042E0FB03E54FF0A8
:100650000006E1FB03569CF0000F18BF4EF0010EA0
:10066000A4F1FF04B6F5007F64F5407404D25FEA9C
:100670004E0E6D4146EB060642EAC62141EA55514F
:100680004FEAC52040EA5E504FEACE2EB4F1FD0C91
:1006900088BFBCF5E06F1ED8BEF1004F08BF5FEA0F
:1006A000500E50F1000041EB045170BD06F00046C1
:1006B00046EA010140EA020081EA0301B4EB5C046E
:1006C000C2BFD4EB0C0541EA045170BD41F4801166
:1006D0004FF0000E013C00F3AB8014F1360FDEBF8B
:1006E000002001F0004170BDC4F10004203C35DA67
:1006F0000C341BDC04F11404C4F1200500FA05F3EA
:1007000020FA04F001FA05F240EA020001F000428A
:1007100021F0004110EBD37021FA04F642EB060100
:100720005EEA430E08BF20EAD37070BDC4F10C042A
:10073000C4F1200500FA04F320FA05F001FA04F2EE
:1007400040EA020001F0004110EBD37041F10001DA
:100750005EEA430E08BF20EAD37070BDC4F12005E5
:1007600000FA05F24EEA020E20FA04F301FA05F24D
:1007700043EA020321FA04F001F0004121FA04F2F5
:1007800020EA020000EBD3705EEA430E08BF20EAC5
:10079000D37070BD94F0000F0FD101F000464000FF
:1007A00041EB010111F4801F08BF013CF7D041EA81
:1007B000060195F0000F18BF704703F00046520085
:1007C00043EB030313F4801F08BF013DF7D043EA56
:1007D0000603704794EA0C0F0CEA135518BF95EA0C
:1007E0000C0F0CD050EA410618BF52EA4306D1D193
:1007F00081EA030101F000414FF0000070BD50EAB2
:10080000410606BF1046194652EA430619D094EA3B
:100810000C0F02D150EA013613D195EA0C0F05D125
:1008200052EA03361CBF104619460AD181EA030179
:1008300001F0004141F0FE4141F470014FF0000031
:1008400070BD41F0FE4141F4780170BD70B54FF0CC
:10085000FF0C4CF4E06C1CEA11541DBF1CEA13554C
:1008600094EA0C0F95EA0C0F00F0A7F8A4EB05042E
:1008700081EA030E52EA03354FEA013100F0888025
:100880004FEA03334FF0805545EA131343EA1263EE
:100890004FEA022245EA111545EA10654FEA0026A3
:1008A0000EF000419D4208BF964244F1FD0404F55C
:1008B000407402D25B084FEA3202B61A65EB0305B8
:1008C0005B084FEA32024FF480104FF4002CB6EB75
:1008D000020E75EB030E22BFB61A754640EA0C00F5
:1008E0005B084FEA3202B6EB020E75EB030E22BF35
:1008F000B61A754640EA5C005B084FEA3202B6EB76
:10090000020E75EB030E22BFB61A754640EA9C0034
:100910005B084FEA3202B6EB020E75EB030E22BF04
:10092000B61A754640EADC0055EA060E18D04FEAC2
:10093000051545EA16754FEA06164FEAC30343EA62
:1009400052734FEAC2025FEA1C1CC0D111F4801F2F
:100950000BD141EA00014FF000004FF0004CB6E728
:1009600011F4801F04BF01430020B4F1FD0C88BFC7
:10097000BCF5E06F3FF6AFAEB5EB030C04BFB6EBD2
:10098000020C5FEA500C50F1000041EB045170BDC5
:100990000EF0004E4EEA113114EB5C04C2BFD4EBF2
:1009A0000C0541EA045170BD41F480114FF0000E76
:1009B000013C90E645EA060E8DE60CEA135594EAF2
:1009C0000C0F08BF95EA0C0F3FF43BAF94EA0C0FF5
:1009D0000AD150EA01347FF434AF95EA0C0F7FF46A
:1009E00025AF104619462CE795EA0C0F06D152EABE
:1009F00003353FF4FDAE1046194622E750EA4106A2
:100A000018BF52EA43067FF4C5AE50EA41047FF4B2
:100A10000DAF52EA43057FF4EBAE12E74FF0FF3C17
:100A200006E000BF4FF0010C02E000BF4FF0010CE8
:100A30004DF804CD4FEA410C7FEA6C5C4FEA430C61
:100A400018BF7FEA6C5C1BD001B050EA410C0CBFB0
:100A500052EA430C91EA030F02BF90EA020F002012
:100A6000704710F1000F91EA030F58BF994208BF79
:100A700090422CBFD8176FEAE37040F00100704736
:100A80004FEA410C7FEA6C5C02D150EA013C07D18D
:100A90004FEA430C7FEA6C5CD6D152EA033CD3D0D8
:100AA0005DF8040B704700BF8446104662468C46D2
:100AB0001946634600E000BF01B5FFF7B7FF002805
:100AC00048BF10F1000F01BD4DF808EDFFF7F4FF2E
:100AD0000CBF012000205DF808FB00BF4DF808EDB9
:100AE000FFF7EAFF34BF012000205DF808FB00BFDC
:100AF0004DF808EDFFF7E0FF94BF012000205DF8FE
:100B000008FB00BF4DF808EDFFF7CEFF94BF0120B2
:100B100000205DF808FB00BF4DF808EDFFF7C4FFAB
:100B200034BF012000205DF808FB00BF4FEA410CF4
:100B30007FEA6C5C02D150EA013C0AD14FEA430CD7
:100B40007FEA6C5C02D152EA033C02D14FF0000014
:100B500070474FF0010070474FEA410212F5001252
:100B600015D211D56FF47873B3EB625212D94FEAF4
:100B7000C12343F0004343EA505311F0004F23FADE
:100B800002F018BF404270474FF00000704750EA33
:100B9000013005D111F0004008BF6FF000407047F0
:100BA0004FF00000704700BF4FEA4102B2F1E0434E
:100BB00024BFB3F5001CDCF1FE5C0DD901F0004C44
:100BC0004FEAC0024CEA5070B2F1004F40EB830094
:100BD00008BF20F00100704711F0804F21D113F1C0
:100BE0003872BCBF01F00040704741F480114FEAF9
:100BF0005252C2F11802C2F1200C10FA0CF320FA82
:100C000002F018BF40F001004FEAC1234FEAD3239E
:100C100003FA0CFC40EA0C0023FA02F34FEA430308
:100C2000CCE77FEA625307D150EA01331EBF4FF091
:100C3000FE4040F44000704701F0004040F0FE40AC
:100C400040F40000704700BF10B50146054CC4F8E1
:100C50001004204600F087F80023C4F80C34C4F8D0
:100C6000143410BDF001002070B501460D4C204633
:100C700000F0A1F8D4F80C3403B170BD204600F0A8
:100C8000C4F885B2C4F814540123C4F80C34D4F861
:100C90001064204600F0C5F82A462118304603F0BB
:100CA000F1FBEAE7F001002010B5044602E0013450
:100CB000FFF7DAFF20780028F9D110BD134BD3F8E5
:100CC0001034834200D0704770B5104CD4F814141F
:100CD000204600F0A9F8204600F097F884B224B925
:100CE0000A4B0022C3F80C2470BD084DC5F814440B
:100CF0000123C5F80C34D5F81064284600F091F8AB
:100D000022462918304603F0BDFBEDE7F001002034
:100D100000B583B00BE00D48B0F80014D0F80C34E7
:100D20005B6F1B685B68C91A89B200F091F80748CD
:100D300000F05AF80028EED00DF10701034800F04A
:100D400020F89DF8070003B05DF804FB08060020BA
:100D5000B0F80034D0F80824526F126852689B1A19
:100D6000A0F8023470474FF48063A0F800340023E9
:100D7000A0F80234A0F80434A0F80634C0F808142F
:100D8000704738B504460D46FFF7E2FFB4F8042477
:100D9000B4F802349A420CD0531C9BB2B4F800143D
:100DA000994200D80023A25C2A70A4F804340020E1
:100DB00038BD0120FCE7B0F80224531C9BB2B0F808
:100DC00000C49C4500D80023B0F804C49C4504D05E
:100DD0008154A0F8023400207047B0F80634013383
:100DE000A0F806340120704710B50446FFF7B0FFA5
:100DF000B4F80234B4F80404834201D3181A10BDC5
:100E0000B4F800241344181AF9E7B0F80224B0F833
:100E100004349A4201D3D01A7047B0F80024D01A93
:100E20007047B0F80404704703E00133A0F80434BD
:100E3000013900290BDDB0F8043403F1010CB0F8DE
:100E400000249445F1DB0023A0F80434F0E7704758
:100E5000A0F80214704702460023184602E0520828
:100E60000133DBB20F2B05D812F0010FF7D00130A0
:100E7000C0B2F4E700F001007047000030B583B065
:100E800040F48044ADF806402046FFF7E4FF44EA12
:100E9000C034ADF806400024ADF8044022461021CD
:100EA0004FF0904002F09CFA134D4FF0FF330122B7
:100EB0000DF10601284602F0D6FE012210214FF066
:100EC000904002F08DFA224610214FF0904002F03F
:100ED00087FA4FF0FF33012201A9284603F038F9C1
:100EE000012210214FF0904002F07AFABDF8040080
:100EF000C0F30D0003B030BDB81D002008B543F6A7
:100F0000FF70FFF7BBFF00B208BD00004308054AB1
:100F1000A2FB03235B0A40F2924202FB130398B246
:100F2000704700BFE1000EE030B583B0B1F5A07F9F
:100F300028BF4FF4A07107EE901AF8EEE77A294B1C
:100F400083FB00120244921240F2924C0CFB1202FC
:100F5000254C04EB820292ED007A27EE877A37EE79
:100F6000877ABCEEC77A17EE102A91B2ADF800105E
:100F700000F5437E83FB0E52724492120CFB12E288
:100F800004EB820292ED007A27EE877A37EE877AB9
:100F9000BCEEC77A17EE102A92B2ADF8022000F527
:100FA000C37083FB00E303449B120CFB130304EBAD
:100FB000830494ED007A27EE877A77EE877AFCEE49
:100FC000E77A17EE903A9BB2ADF804300748006814
:100FD0004163074909684A63064A12681364C36398
:100FE00003B030BDE1000EE0340A0020641D002093
:100FF000801C0020CC1C00200146164BA3FB0023C4
:101000009B0903F13002144802704FF47A7202FB1C
:10101000131292B2114BA3FB02C25209303242703A
:10102000A3FB01235B09642202FB13139BB20C4A4E
:10103000A2FB03C3DB0830338370A2FB0123DB0870
:1010400003EB8303A1EB43013031C1700023037133
:10105000704700BFD34D6210200A00201F85EB515E
:10106000CDCCCCCC08B5FFF729FE08BD10B50446A1
:10107000C0B2FFF7F9FD204610BD08B5FFF748FEE6
:1010800008BD0000594B834200D0704710B5FFF7F0
:1010900035FF80B2564B1B68C01A80B200F5005075
:1010A00000B24342C0F30C04C3F30C0358BF5C42CC
:1010B0002046FFF72BFF4F4B1B78082B5AD04D4A89
:1010C0001378013313704C4BB3F900304B4AB2F92B
:1010D00000209B1A4A490A681A440A6007EE903AAF
:1010E000F8EEE77A9FED477A67EE877A07EE102AE7
:1010F000B8EEC77ADFED446A27EE267A77EE877A74
:10110000FDEEE77A17EE903A1BB240490B8041F6AC
:1011100058318A4249DD3A4A1160B3F5A07F4ADD71
:101120003A4B4FF4A0721A80384B1B8809339BB29C
:10113000122B02D8354B00221A80354B1B7813B185
:10114000324B00221A80314BB3F9001000293ADDEE
:1011500000F592702F4A82FB00320244C317C3EBA2
:10116000A22340F2924202FB130389B298B2FFF726
:10117000DBFE10BD1F4B00221A70274B1B88E31AA1
:101180009AB21BB21D490B80B3F5805F05DDA2F555
:1011900000520A80204B1C8091E713F5805FF9DA3A
:1011A00002F50052154B1A80F4E71C498A42B4DA62
:1011B000134A1160B1E713F5A07FB5DA134B4FF670
:1011C000C0621A80B0E700F26D30124A82FB003232
:1011D0000244C317C3EBA22340F2924202FB130363
:1011E000494289B298B2FFF79FFEC2E7181D00205E
:1011F0007C1C00201E0A0020280A00202A0A002049
:10120000180A00209A99993F0AD7233D260A002000
:1012100000000020E1000EE01C0A0020A8E4FFFF0F
:1012200072B6FEE700B597B0282200210CA805F0A1
:10123000BBFA00230793089309930A930B93019336
:101240000293039304930593069302230C930122C4
:1012500010921022119213934FF4C01315930CA8FF
:1012600001F0D2FAC8B90F23079302230893002391
:1012700009930A930B93012107A801F007FE70B9A7
:1012800041F20103019300230393069301A801F0A7
:1012900003FF30B917B05DF804FBFFF7C1FFFFF79C
:1012A000BFFFFFF7BDFF000030B583B001F074FA57
:1012B000FFF7B8FF00F036F903F0DEFD00F080FA2A
:1012C00000F08EFB00F0F0FA00F02EFB02F0B2FA14
:1012D00003F012F803F0FAFD774C236800215868F8
:1012E00005F012F823680021986805F00DF82368CE
:1012F0000021D86805F008F87048FFF7A5FC704C8D
:101300000021204601F078F80021204601F028F95C
:101310006C4D0021284601F06FF80021284601F0AD
:101320001FF90C21684801F067F80821204601F0F8
:1013300017F900220221654802F052F8644C00219E
:10134000204604F0D1F803226249204604F032F826
:1013500020B9614805F0B8F9002425E05F4805F0A0
:10136000B3F9F9E72046FFF7DDF800225C4BFFF701
:1013700043F94DA3D3E90023FFF768FA4CA3D3E95F
:101380000023FFF739F90022564BFFF75FFA41ECD3
:10139000100B07F00DF951EC100BFFF705FC524B49
:1013A00003EB84031860013440F291439C42D9DD81
:1013B0004E48FFF779FC4E48FFF776FC6421002089
:1013C000FFF7B2FD4FF47A7001F00AFAFFF796FDCD
:1013D000484C2060FFF792FD20604748FFF764FC0F
:1013E0002088FFF709FEFFF75FFC4448FFF75CFC2D
:1013F0004348FFF759FC434800F0D4FC0023ADF804
:10140000043040258DF80450C0248DF80540022298
:1014100001A92A4803F00EFD8DF804508DF805400F
:1014200004E09DF80520384805F04EF99DF80410B9
:10143000FF29F6D19DF80530FF2BF2D1334805F096
:10144000ABF91DE00133012B08DC03F108026A440B
:1014500012F8042CD209F5D0DBB200E000230833E7
:101460006B4413F8043CFF2B0AD05B005BB213F112
:10147000780F13DA264A012111705B00254A138088
:10148000254BB3F90030254AB2F900202149B1F9C2
:101490000010234805F018F90023D4E71C4A002166
:1014A0001170EAE7AFF300800000000000489240AE
:1014B000182D4454FB21094018000020A41E0020D0
:1014C000641D0020801C0020CC1C0020000400486B
:1014D000701F00202C0A002028960008449600085F
:1014E0000080764000806640340A0020589600084C
:1014F000689600087C1C00207C96000888960008EE
:101500008C960008181D0020A0960008B0960008D0
:1015100000000020280A00202A0A0020260A0020B5
:10152000B896000870B588B000240394049405941C
:10153000069407941E4B5A6942F480025A615A6914
:1015400002F480020092009A5A6942F400325A6111
:101550005A6902F400320192019A5A6942F48022D7
:101560005A615B6903F480230293029B2246102197
:101570004FF0904001F034FF0E4D224602212846E4
:1015800001F02EFF10230393012604960594069480
:1015900003A94FF0904001F045FE02230393049607
:1015A0000594069403A9284601F03CFE08B070BDDE
:1015B000001002400004004800B583B00368144ADC
:1015C000934205D0B3F1804F0DD003B05DF804FB1A
:1015D000104B9A6942F400629A619B6903F40063BC
:1015E0000093009BF1E703F50433DA6942F001024E
:1015F000DA61DB6903F001030193019B00221146CC
:101600001C2002F067F81C2002F074F8DDE700BF30
:10161000002C01400010024082B003680E4A934241
:1016200004D00E4A93420CD002B070470C4BDA69DA
:1016300042F00202DA61DB6903F002030093009BCF
:10164000F2E7074B9A6942F400329A619B6903F40E
:1016500000330193019BE7E7000400400044014090
:101660000010024070B58CB00023079308930993D3
:101670000A930B9303684C4A93420AD0B3F1804F0C
:1016800034D04A4A934249D0494A93425BD00CB085
:1016900070BD484B5A6942F480025A615A6902F49B
:1016A00080020192019A5A6942F400325A615B69E0
:1016B00003F400330293029B01230793022608964A
:1016C00003250A9506240B9407A93B4801F0AAFDBF
:1016D0004FF4106307930896002309930A950B941F
:1016E00007A94FF0904001F09DFDD0E703F50433CA
:1016F0005A6942F400325A615B6903F40033039380
:10170000039B4FF4004307930223089301230B9399
:1017100007A94FF0904001F085FDB8E7254B5A69C5
:1017200042F480225A615B6903F480230493049B92
:1017300080230793022308930A230B9307A91F48CA
:1017400001F070FDA3E71B4B5A6942F400325A6165
:101750005A6902F400320592059A5A6942F48022CD
:101760005A615B6903F480230693069B4FF4805310
:1017700007930226089603250A9501240B9407A9CE
:101780004FF0904001F04EFD402307930896002350
:1017900009930A950B9407A9084801F043FD4FF4FB
:1017A000803001F0C9FF72E7002C014000040040C6
:1017B00000440140001002400014004800040048AA
:1017C00010B596B000241394149415940C940D94B1
:1017D0000E940F941094119412942C22214601A877
:1017E00004F0E2FF2D482E4B03604460846040F219
:1017F000FF33C36004614461846100F04FFC002842
:101800003DD120231393002314938023159313A910
:10181000224800F017FF002834D1224B0C930022FD
:101820000D920E920F9204231093119212920CA912
:101830001A4800F0A1FC40BB60230C9308220F92D1
:101840000CA9164800F098FC10BB002301930293EA
:101850000393049305934FF4005206920793089361
:101860004FF0007209920A930B9301A90B4800F004
:1018700025FF80B90948FFF7F5FE16B010BDFFF748
:10188000CFFCBEE7FFF7CCFCC7E7FFF7C9FCD3E707
:10189000FFF7C6FCD9E7FFF7C3FCEBE7641D0020A8
:1018A000002C01406000010000B58BB000230793BD
:1018B0000893099300930193029303930493059370
:1018C000069318484FF08042026003224260836012
:1018D00040F2E732C2600361836100F0DFFBC0B910
:1018E00000230793099307A90E4800F0ABFE98B9AF
:1018F00060230093002201920292049269460948F3
:1019000000F03AFC58B90748FFF7ACFE0BB05DF8A1
:1019100004FBFFF785FCE3E7FFF782FCE8E7FFF74E
:101920007FFCF0E7181D002000B591B000230B9359
:101930000C930D930E930F93089309930A930193BD
:101940000293039304930593069307932248234A33
:1019500002604360836040F2FF32C26003618361D2
:1019600000F06CFB40BB1C4800F098FB38BB062322
:101970000B9300230C930BA9174800F005FD08BB3F
:10198000002308930A9308A9134800F05BFEE0B90E
:1019900060230193002302930393042305930C22F5
:1019A0000DEB03010C4800F0E7FB88B90A48FFF78C
:1019B00059FE11B05DF804FBFFF732FCD3E7FFF7E7
:1019C0002FFCD4E7FFF72CFCDAE7FFF729FCDFE771
:1019D000FFF726FCEAE700BFCC1C00200004004013
:1019E00010B592B000240B940C940D940E940F94A7
:1019F000109411942C222146684604F0D5FE21480B
:101A0000214B03604460846040F2FF33C360046193
:101A10004461846100F012FB38BB1A4800F03EFBC1
:101A200030BB60230B9300220C920D920E92042384
:101A30000F93109211920BA9124800F09DFBD0B9A0
:101A40000023009301930293039304934FF40052F5
:101A5000059206930A9369460A4800F02FFE68B97A
:101A60000848FFF7FFFD12B010BDFFF7D9FBD4E720
:101A7000FFF7D6FBD5E7FFF7D3FBE1E7FFF7D0FB96
:101A8000EEE700BF801C002000440140FEE7FEE7B7
:101A9000FEE7FEE7FEE770477047704708B500F0C5
:101AA0008DFE08BD08B5024801F074FD08BD00BFF9
:101AB0002C1F002008B5024801F06CFD08BD00BFD6
:101AC0001C1E002008B5024801F064FD08BD00BFDF
:101AD000601E002008B5024800F0A2F908BD00BF52
:101AE000181D002008B5024802F08AFD08BD00BF9D
:101AF000A41E002082B00A4B9A6942F001029A614A
:101B00009A6902F001020092009ADA6942F080526A
:101B1000DA61DB6903F080530193019B02B07047E7
:101B20000010024030B4026A036A23F0010303622A
:101B30004468836923F4803323F073030D681D43E5
:101B400022F002028B681343184A90420BD002F530
:101B5000A052904207D002F58062904203D002F575
:101B60008062904205D123F00803CA681A4322F02C
:101B700004030E4A90420BD002F5A052904207D0C7
:101B800002F58062904203D002F58062904205D156
:101B900024F440744A6922438C691443446085618B
:101BA0004A684263036230BC704700BF002C0140AA
:101BB00030B4036A026A22F4807202624268C46925
:101BC00024F4803C2CF0730C0C6844EA0C0523F4DC
:101BD00000738C6843EA0423124CA0420BD0124CD1
:101BE000A0420FD004F58064A0420BD004F58064BD
:101BF000A0420FD106E023F40063CC6843EA04233B
:101C000023F4806322F440524C6942EA04128C6946
:101C100042EA04124260C5614A68C263036230BC92
:101C2000704700BF002C01400040014030B4026A00
:101C3000036A23F4805303624468C36923F080730A
:101C400023F4E6430D6843EA052322F400528D682D
:101C500042EA05320D4DA8420BD005F5A055A84229
:101C600007D005F58065A84203D005F58065A84238
:101C700004D124F480444D6944EA85144460C3616E
:101C80004B680364026230BC704700BF002C014007
:101C900030B4036A026A22F4803202624468426D00
:101CA00022F4803222F070020D682A4323F40033BC
:101CB0008D6843EA05430D4DA8420BD005F5A055AC
:101CC000A84207D005F58065A84203D005F58065D8
:101CD000A84204D124F480344D6944EA05244460C8
:101CE00042654A688265036230BC7047002C01403F
:101CF00030B4026A036A23F4801303624468436DBC
:101D000023F0807323F4E0430D6843EA052322F4B3
:101D100000128D6842EA05520D4DA8420BD005F520
:101D2000A055A84207D005F58065A84203D005F567
:101D30008065A84204D124F480244D6944EA8524B6
:101D4000446043654B68C365026230BC704700BFA6
:101D5000002C014010B4036A046A24F001040462F8
:101D6000846924F0F00C4CEA021223F00A030B43BE
:101D7000826103625DF8044B704710B4036A046A21
:101D800024F010040462846924F4704C4CEA02329A
:101D900023F0A00343EA0113826103625DF8044B60
:101DA0007047000090F83D30DBB2012B2AD10223AE
:101DB00080F83D300268D36843F00103D3600368C4
:101DC000134A934210D0B3F1804F0DD0A2F5943254
:101DD000934209D002F59E32934205D01A6842F030
:101DE00001021A600020704799680A4A0A40062AD0
:101DF0000AD0B2F5803F09D01A6842F001021A6099
:101E00000020704701207047002070470020704775
:101E1000002C014007000100704770477047704771
:101E200070B504460368DE681D6915F0020F10D016
:101E300016F0020F0DD06FF002021A610123037732
:101E400003689B6913F0030F64D0FFF7E6FF0023DC
:101E5000237715F0040F12D016F0040F0FD023686B
:101E60006FF004021A610223237723689B6913F43D
:101E7000407F55D02046FFF7D0FF0023237715F091
:101E8000080F12D016F0080F0FD023686FF0080269
:101E90001A61042323772368DB6913F0030F46D00C
:101EA0002046FFF7BAFF0023237715F0100F12D05A
:101EB00016F0100F0FD023686FF010021A6108237C
:101EC00023772368DB6913F4407F37D02046FFF780
:101ED000A4FF0023237715F0010F02D016F0010FA5
:101EE00033D115F0800F02D016F0800F35D115F4E4
:101EF000807F02D016F0800F37D115F0400F02D04E
:101F000016F0400F39D115F0200F02D016F0200F37
:101F10003BD170BDFFF780FF2046FFF77FFF96E7BC
:101F20002046FFF779FF2046FFF778FFA5E7204618
:101F3000FFF772FF2046FFF771FFB4E72046FFF777
:101F40006BFF2046FFF76AFFC3E723686FF00102CB
:101F50001A612046FFF796F8C3E723686FF0800206
:101F60001A61204600F0EFFBC1E723686FF480722E
:101F70001A61204600F0E8FBBFE723686FF04002DB
:101F80001A612046FFF74BFFBDE723686FF0200280
:101F90001A61204600F0D6FBBBE700000368264A22
:101FA000904206D0B0F1804F03D0A2F59432904217
:101FB00003D123F070034A6813431F4A904212D0A2
:101FC000B0F1804F0FD0A2F5943290420BD002F5C1
:101FD0009E32904207D002F58062904203D002F513
:101FE0008062904203D123F44073CA68134323F004
:101FF00080034A69134303608B68C3620B68836282
:102000000D4B98420BD003F5A053984207D003F52F
:102010008063984203D003F58063984201D10B6935
:10202000036301234361036913F0010F03D00369C4
:1020300023F0010303617047002C014060B310B529
:10204000044690F83D3013B3022384F83D30214616
:1020500051F8040BFFF7A2FF012384F8483084F8FD
:102060003E3084F83F3084F8403084F8413084F8C2
:10207000423084F8433084F8443084F8453084F8A2
:10208000463084F8473084F83D30002010BD80F899
:102090003C30FFF7C1FAD7E70120704760B310B5B5
:1020A000044690F83D3013B3022384F83D302146B6
:1020B00051F8040BFFF772FF012384F8483084F8CD
:1020C0003E3084F83F3084F8403084F8413084F862
:1020D000423084F8433084F8443084F8453084F842
:1020E000463084F8473084F83D30002010BD80F839
:1020F0003C30FFF761FAD7E70120704730B4036A3C
:10210000026A22F0100202624268846924F0807C34
:102110002CF4E64C0C684CEA042423F020038D6870
:1021200043EA0513124DA8420BD0124DA8420FD01E
:1021300005F58065A8420BD005F58065A8420FD152
:1021400006E023F08003CD6843EA051323F0400343
:1021500022F440624D6942EA85028D6942EA8502B5
:10216000426084614A688263036230BC704700BF8A
:10217000002C01400040014038B590F83C30012B64
:1021800000F0958004460D46012380F83C30142A67
:1021900000F28880DFE802F00B8686861F8686863E
:1021A00034868686488686865D86868671000068C7
:1021B000FFF7B8FC2268936943F008039361226833
:1021C000936923F0040393612268936929690B439F
:1021D0009361002067E00068FFF790FF2268936931
:1021E00043F4006393612268936923F480639361ED
:1021F00022689369296943EA01239361002052E030
:102200000068FFF7D5FC2268D36943F00803D36167
:102210002268D36923F00403D3612268D369296952
:102220000B43D36100203EE00068FFF7FFFC22680B
:10223000D36943F40063D3612268D36923F48063D4
:10224000D3612268D369296943EA0123D36100205D
:1022500029E00068FFF71CFD2268536D43F0080376
:1022600053652268536D23F0040353652268536D50
:1022700029690B435365002015E00068FFF738FD1E
:102280002268536D43F4006353652268536D23F451
:10229000806353652268536D296943EA01235365BE
:1022A000002000E00120002384F83C3038BD0220EB
:1022B000FCE710B4846824F47F4C42EA03220A430A
:1022C00042EA0C0282605DF8044B704710B5046866
:1022D000A26822F070024B68134323F4803323F08A
:1022E00007030A681A43A2604B68502B32D00BD9FF
:1022F000602B36D0702B43D10B698A68C96800689F
:10230000FFF7D7FF00200FE0402B0ED001D90120AE
:102310000AE0202B2CD003D9302B2FD1002003E052
:1023200043B3102B28D1002010BD0B68052B29D0FA
:1023300003681C6A1A6A22F001021A620268936931
:1023400023F0F003096943EA0113936103681C62F7
:102350000020E9E70A6989680068FFF7FBFC0020B4
:10236000E2E70A6989680068FFF707FD0020DBE7FC
:102370000020D9E70020D7E70120D5E70120D3E7E7
:102380000120D1E70120CFE790F83C30012B22D08B
:1023900010B50446012380F83C30022380F83D301C
:1023A000FFF794FF80B92268D36823F04003D3601D
:1023B0002268D36823F48043D360012384F83D303E
:1023C000002384F83C3010BD012084F83D00002338
:1023D00084F83C30F7E70220704701F01F014FF00E
:1023E000010C0CFA01FC036A23EA0C030362036A82
:1023F0008A4013430362704710B5044610293CD845
:10240000DFE801F0093B3B3B1F3B3B3B263B3B3BB3
:102410002D3B3B3B340090F83E30DBB2013B18BF14
:102420000123002B40F0828010296DD8DFE801F0F5
:102430002C6C6C6C5C6C6C6C606C6C6C646C6C6C40
:10244000680090F83F30DBB2013B18BF0123E8E79A
:1024500090F84030DBB2013B18BF0123E1E790F870
:102460004130DBB2013B18BF0123DAE790F842307C
:10247000DBB2013B18BF0123D3E790F84330DBB256
:10248000013B18BF0123CCE7022384F83E30012230
:102490002068FFF7A2FF2368274A93420BD002F57A
:1024A000A052934207D002F58062934203D002F516
:1024B0008062934203D15A6C42F400425A6423680A
:1024C0001D4A934224D0B3F1804F21D0A2F594321B
:1024D00093421DD002F59E32934219D01A6842F001
:1024E00001021A60002022E0022384F83F30CEE788
:1024F000022384F84030CAE7022384F84130C6E75B
:10250000022384F84230C2E7022384F84330BEE756
:1025100099680A4A0A40062A0AD0B2F5803F09D0D3
:102520001A6842F001021A60002000E0012010BD8C
:102530000020FCE70020FAE7002C01400700010022
:1025400001F00F014FF0040C0CFA01FC036A23EABE
:102550000C030362036A8A4013430362704700005E
:1025600010B50446084659BB94F84430DBB2013B31
:1025700018BF0123002B5AD100283AD1022384F836
:102580004430042201462068FFF7DAFF2268536CCA
:1025900043F4004353642368284A934239D0B3F18B
:1025A000804F36D0A2F59432934232D002F59E325B
:1025B00093422ED01A6842F001021A60002037E0E0
:1025C000042908D008290DD094F84730DBB2013B2C
:1025D00018BF0123CEE794F84530DBB2013B18BFAA
:1025E0000123C7E794F84630DBB2013B18BF012353
:1025F000C0E7042805D0082807D0022384F8473014
:10260000BFE7022384F84530BBE7022384F8463055
:10261000B7E799680A4A0A40062A0AD0B2F5803F0D
:1026200009D01A6842F001021A60002000E001207F
:1026300010BD0020FCE70020FAE700BF002C01409D
:102640000700010090F83C20012A33D030B4034643
:10265000012280F83C20022280F83D200068426878
:102660008468154DA84220D022F070020D682A43DC
:1026700042601A68104882420AD0B2F1804F07D0F7
:10268000A0F59430824203D000F59E30824204D1FE
:1026900024F08004896821439160012283F83D2061
:1026A000002083F83C0030BC704722F470024D6873
:1026B0002A43D9E702207047002C014090F83C30B3
:1026C000012B3BD010B40246012380F83C30CB688C
:1026D00023F440738868034323F48063486803430A
:1026E00023F400630868034323F480530869034319
:1026F00023F400534869034323F48043886A034367
:1027000023F47023886943EA004310680C4CA0420C
:1027100006D04364002082F83C005DF8044B70470B
:1027200023F470034C6A43EA045323F08073CC69AA
:10273000234323F00073096A0B43EAE70220704742
:10274000002C0140704770477047000010B50446E8
:102750000E4B1A784FF47A73B3FBF2F30C4A1068FD
:10276000B0FBF3F000F0D4FF68B90F2C01D90120C1
:102770000AE0002221464FF0FF3000F0ABFF054B8E
:102780001C60002000E0012010BD00BF01000020FF
:10279000080000200400002008B5074A136843F031
:1027A00010031360032000F083FF0020FFF7CEFF2B
:1027B000FFF7A0F9002008BD00200240034A11687D
:1027C000034B1B780B441360704700BFB01D002003
:1027D00001000020014B1868704700BFB01D0020A9
:1027E00038B50446FFF7F6FF0546B4F1FF3F02D0C7
:1027F000044B1B781C44FFF7EDFF401BA042FAD3AB
:1028000038BD00BF01000020002800F0FF8270B535
:1028100082B00446036813F0010F3BD0B44B5B68F1
:1028200003F00C03042B1ED0B14B5B6803F00C03C8
:10283000082B13D06368B3F5803F68D0002B40F0BD
:10284000928003F1804303F504331A6822F4803246
:102850001A601A6822F480221A605DE0A44B5B685B
:1028600013F4803FE6D04FF4003393FAA3F3A04B68
:1028700019684FF4003393FAA3F3B3FA83F303F028
:102880001F03012202FA03F30B4203D06368002BFB
:1028900000F0BE82236813F0020F00F0C480944B56
:1028A0005B6813F00C0F00F09C80914B5B6803F0A9
:1028B0000C03082B00F08F802369002B00F0F080C0
:1028C000012292FAA2F3B3FA83F303F1845303F5DE
:1028D00084139B001A60FFF77DFF0546022393FADD
:1028E000A3F3834B1968022393FAA3F3B3FA83F398
:1028F00003F01F03012202FA03F30B4240F0C280EF
:10290000FFF768FF401B0228E8D9032089E2784AD4
:10291000136843F480331360754AD36A23F00F03BE
:10292000A1680B43D3626368002B36D0FFF752FFD8
:1029300005464FF4003393FAA3F36D4B19684FF437
:10294000003393FAA3F3B3FA83F303F01F030122D6
:1029500002FA03F30B429DD1FFF73CFF401B6428B2
:10296000E7D903205DE2B3F5A02F09D0604B1A68C8
:1029700022F480321A601A6822F480221A60CBE7AF
:1029800003F18043A3F53C331A6842F480221A60B5
:102990001A6842F480321A60BEE7FFF71BFF054653
:1029A0004FF4003393FAA3F3514B19684FF40033FB
:1029B00093FAA3F3B3FA83F303F01F03012202FA9D
:1029C00003F30B423FF466AFFFF704FF401B64289C
:1029D000E6D9032025E2464B5B6813F4803F7FF481
:1029E0006BAF022393FAA3F3414B1968022393FAC6
:1029F000A3F3B3FA83F303F01F03012202FA03F3F4
:102A00000B4203D02369934240F0048238480368A4
:102A100023F0F8036169F82292FAA2F2B2FA82F284
:102A200091400B430360236813F0080F00F08C8083
:102A3000A369002B60D0012191FAA1F2B2FA82F2CF
:102A40002C4B13449B001960FFF7C4FE054602237C
:102A500093FAA3F293FAA3F293FAA3F2244A516AE7
:102A600093FAA3F3B3FA83F303F01F03012202FAEC
:102A700003F30B4268D1FFF7ADFE401B0228E6D9F5
:102A80000320CEE11A48036823F0F8036169F822B5
:102A900092FAA2F2B2FA82F291400B430360C2E7CB
:102AA000012393FAA3F3B3FA83F303F1845303F5F9
:102AB00084139B0000221A60FFF78CFE0546022358
:102AC00093FAA3F30A4B1968022393FAA3F3B3FA18
:102AD00083F303F01F03012202FA03F30B42A2D097
:102AE000FFF778FE401B0228E9D9032099E100BFD7
:102AF0000010024020819010012292FAA2F2B2FA54
:102B000082F2B74B13449B0000221A60FFF762FE6B
:102B10000546022393FAA3F293FAA3F293FAA3F2DF
:102B2000B04A516A93FAA3F3B3FA83F303F01F0395
:102B3000012202FA03F30B4206D0FFF74BFE401BC3
:102B40000228E6D903206CE1236813F0040F00F09B
:102B5000A980A44BDB6913F0805F20D1A14BDA6917
:102B600042F08052DA61DB6903F080530193019BEC
:102B700001259D4B1B6813F4807F12D0E368012B65
:102B800023D073BB03F1804303F504331A6A22F0A8
:102B900001021A621A6A22F004021A621AE000257F
:102BA000E7E7914A136843F480731360FFF712FE5E
:102BB00006468D4B1B6813F4807FDFD1FFF70AFEBA
:102BC000801B6428F5D903202BE1864A136A43F061
:102BD00001031362E368002B3CD0FFF7FBFD0646C0
:102BE0002EE0052B09D07F4B1A6A22F001021A62EF
:102BF0001A6A22F004021A62ECE77A4B1A6A42F06F
:102C000004021A621A6A42F001021A62E2E702231F
:102C100093FAA3F3734B596A022393FAA3F3B3FA1B
:102C200083F303F01F03012202FA03F3194238D1A0
:102C3000FFF7D0FD801B41F28833984200F2EC8010
:102C4000022393FAA3F293FAA3F3002BDFD0654B90
:102C5000196AE1E7FFF7BEFD064618E0022393FA82
:102C6000A3F3604B596A022393FAA3F3B3FA83F3F5
:102C700003F01F03012202FA03F3194211D0FFF7F8
:102C8000A9FD801B41F28833984200F2C7800223DD
:102C900093FAA3F293FAA3F3002BDFD0514B196AF6
:102CA000E1E7B5BBE369002B00F0BA804D4A5268FA
:102CB00002F00C02082A00F09980022B2FD04FF06E
:102CC000807393FAA3F3B3FA83F303F1845303F508
:102CD00084139B0000221A60FFF77CFD04464FF02E
:102CE000007393FAA3F33F4B19684FF0007393FA04
:102CF000A3F3B3FA83F303F01F03012202FA03F3F1
:102D000019426BD0FFF766FD001B0228E7D90320AC
:102D100087E0344AD36923F08053D361C2E74FF090
:102D2000807393FAA3F3B3FA83F303F1845303F5A7
:102D300084139B0000221A60FFF74CFD05464FF0FC
:102D4000007393FAA3F3274B19684FF0007393FABB
:102D5000A3F3B3FA83F303F01F03012202FA03F390
:102D6000194206D0FFF736FD401B0228E7D90320A1
:102D700057E01C494B6823F47413626A206A0243CB
:102D800013434B604FF0807393FAA3F3B3FA83F3CA
:102D900003F1845303F584139B0001221A60FFF7AB
:102DA00019FD04464FF0007393FAA3F30D4B196815
:102DB0004FF0007393FAA3F3B3FA83F303F01F0306
:102DC000012202FA03F3194206D1FFF703FD001BAB
:102DD0000228E7D9032024E0002022E0002020E0A0
:102DE000208190100010024000700040012B1AD08A
:102DF000104B5B6803F48031226A914215D103F4D1
:102E00007013626A934212D100200AE001207047D9
:102E1000012006E0012004E0032002E0032000E09E
:102E2000002002B070BD0120FBE70120F9E701207E
:102E3000F7E700BF001002400F4B5B6803F00C0285
:102E4000082A01D00D487047C3F383420C49885CBF
:102E5000094AD26A02F00F020A498A5C13F4803FE1
:102E600005D0064BB3FBF2F303FB00F07047064BB3
:102E700003FB00F0704700BF0010024000127A0010
:102E8000E0960008D096000800093D00002800F0F8
:102E9000BE8070B50D460446614B1B6803F0070306
:102EA0008B420BD25E4A136823F007030B43136077
:102EB000136803F007038B4240F0AB80236813F0E4
:102EC000020F06D0574A536823F0F003A1680B4362
:102ED0005360236813F0010F5AD06368012B2DD083
:102EE000022B40D0022292FAA2F24E4A106802222D
:102EF00092FAA2F2B2FA82F202F01F02012101FA62
:102F000002F2104200F0878046494A6822F003022C
:102F100013434B60FFF75EFC0646424B5B6803F0D1
:102F20000C036268B3EB820F32D0FFF753FC801BB7
:102F300041F288339842F0D9032067E04FF4003221
:102F400092FAA2F2374A10684FF4003292FAA2F2D3
:102F5000B2FA82F202F01F02012101FA02F20242E9
:102F6000D2D1012052E04FF0007292FAA2F22D4A23
:102F700010684FF0007292FAA2F2B2FA82F202F0F6
:102F80001F02012101FA02F21042BDD101203DE0F1
:102F9000234B1B6803F00703AB420AD9204A13688E
:102FA00023F007032B431360136803F00703AB42BE
:102FB00033D1236813F0040F06D01A4A536823F460
:102FC000E063E1680B435360236813F0080F07D0F8
:102FD000144A536823F46053216943EAC1035360E0
:102FE000FFF72AFF0F4B5B6803F0F003F02292FA21
:102FF000A2F2B2FA82F2D3400B4AD35CD8400B4B18
:1030000018600B4B1868FFF7A1FB002070BD012072
:1030100070470120FAE70120F8E70120F6E700BF3A
:103020000020024000100240F8960008080000202E
:1030300004000020014B1868704700BF0800002002
:1030400008B5FFF7F7FF074B5B6803F4E0634FF445
:10305000E06292FAA2F2B2FA82F2D340024AD35C60
:10306000D84008BD00100240F096000808B5FFF7F0
:10307000E1FF074B5B6803F460534FF4605292FA30
:10308000A2F2B2FA82F2D340024AD35CD84008BD21
:1030900000100240F0960008F0B583B004460368C3
:1030A00013F4803F44D05C4BDB6913F0805F6DD13B
:1030B000594BDA6942F08052DA61DB6903F08053E0
:1030C0000193019B0125554B1B6813F4807F5FD052
:1030D000514B1B6A13F4407321D0626802F44072B2
:1030E0009A421CD04C48016A21F440764FF4803358
:1030F00093FAA3F2B2FA82F2494F3A4492004FF0A7
:10310000010CC2F800C093FAA3F3B3FA83F33B4473
:103110009B0000221A60066211F0010F4CD13E4A5A
:10312000136A23F4407361680B431362002D69D165
:10313000236813F0010F06D0374A136B23F0030303
:10314000A1680B431363236813F0200F06D0324AA3
:10315000136B23F01003E1680B431363236813F030
:10316000800F06D02C4AD36A23F4F87321690B43ED
:10317000D362236813F4805F4BD0274A136B23F488
:10318000807361690B431363002043E000259AE7D5
:10319000224A136843F480731360FFF71BFB064653
:1031A0001E4B1B6813F4807F92D1FFF713FB801B2B
:1031B0006428F5D903202DE0FFF70CFB064617E045
:1031C000022393FAA3F3144B596A022393FAA3F34D
:1031D000B3FA83F303F01F03012202FA03F30B4255
:1031E0009DD1FFF7F7FA801B41F2883398420ED841
:1031F000022393FAA3F293FAA3F3002BE0D0064B39
:10320000196AE2E7D36923F08053D36190E7032082
:1032100000E0002003B0F0BD00100240007000404C
:1032200000819010F0B583B0002362E085685E00F5
:103230000324B44025EA0405CC68B4402C438460E0
:10324000456825EA0C054C68C4F300149C402C43E7
:1032500044605FE0DD08083550F8254003F0070CB6
:103260004FEA8C0C4FF00F0E0EFA0CFE24EA0E0EF5
:103270000C6904FA0CF444EA0E0440F8254060E0BE
:10328000032400E0002404FA0EF42C430CF1020C99
:103290004F4D45F82C404F4CA568D44325EA020613
:1032A0004F6817F4801F01D042EA0506494DAE6011
:1032B000ED6804EA05064F6817F4001F01D042EAE2
:1032C0000506444DEE606D6804EA05064F6817F484
:1032D000003F01D042EA05063E4D6E602D682C404D
:1032E0004E6816F4803F01D042EA0504394A146062
:1032F00001330A6832FA03F468D04FF0010C0CFA7B
:1033000003FC1CEA0202F3D04C6804F00304013C05
:10331000012C8BD94C6804F00304032C0CD0C46836
:103320005D004FF0030C0CFA05FC24EA0C0C8C68D1
:10333000AC4044EA0C04C4604C6804F00304022C62
:1033400088D004684FEA430E4FF0030C0CFA0EFCD1
:1033500024EA0C0C4C6804F0030404FA0EF444EA6A
:103360000C0404604C6814F4403FC1D01A4CA569A9
:1033700045F00105A561A46904F001040194019CD4
:103380004FEA930C0CF10205114C54F8255003F050
:10339000030E4FEA8E0E0F2404FA0EF425EA0405FC
:1033A000B0F1904F3FF46EAF0C4CA0420AD004F540
:1033B0008064A04208D004F58064A0423FF460AF6E
:1033C000052460E701245EE702245CE703B0F0BD5A
:1033D00000000140000401400010024000040048C9
:1033E0000AB1816170478162704730B40124056C75
:1033F000AC40C56B6C60046863604368102B05D0FB
:10340000036899600368DA6030BC704703689A60AB
:103410000368D960F8E700000268054B1344054AC9
:10342000A2FB03231B099B000364034BC363704788
:10343000F8FFFDBFCDCCCCCC0000024020B310B5CE
:103440000446022380F8213001680A6822F47F5282
:1034500022F03002436880680343E0680343206938
:10346000034360690343A0690343E06903431343D3
:103470000B602046FFF7D0FF0020A063012384F8F3
:10348000213084F8200010BD0120704738B5044673
:1034900090F82000012831D0012084F8200094F811
:1034A0002100012804D0002384F82030022038BDF8
:1034B000022084F821000020A0632568286820F0FD
:1034C000010028602046FFF790FFE36A5BB12268A5
:1034D000136843F00E0313602268136843F001037E
:1034E00013600020E3E72268136843F00A031360C7
:1034F0002268136823F004031360EDE70220D6E787
:10350000034600B390F82120022A06D004228263E9
:10351000002280F820200120704701680A6822F00C
:103520000E020A6001680A6822F001020A60026C59
:10353000C06B012101FA02F2426083F821100020E1
:1035400083F8200070470120704708B590F82130BB
:10355000022B03D004238363012008BD0268136893
:1035600023F00E0313600268136823F00103136055
:10357000036CC16B012202FA03F34B6080F8212037
:10358000002380F82030436B13B198470020E4E714
:103590000020E2E738B5C36B1A6804682568016C3F
:1035A00004238B40134213D015F0040F10D023686E
:1035B00013F0200F03D1236823F004032360016C70
:1035C000C26B04238B405360C36A03B1984738BD74
:1035D00002238B4013421AD015F0020F17D0236834
:1035E00013F0200F06D1236823F00A032360012380
:1035F00080F82130016CC26B02238B4053600023A2
:1036000080F82030836A002BE1D09847DFE7082359
:103610008B401342DBD015F0080FD8D0236823F07D
:103620000E032360026CC16B012303FA02F24A60AD
:10363000836380F82130002380F82030036B002B57
:10364000C5D09847C3E70000002808DB0901C9B2CC
:1036500000F1604000F5614080F80013704700F011
:103660000F000901C9B2014B1954704714ED00E075
:1036700000B500F00700C0F1070CBCF1040F28BF33
:103680004FF0040C031D062B0FD9C31E4FF0FF3E55
:103690000EFA0CF021EA000199400EFA03FE22EA2C
:1036A0000E0241EA02005DF804FB0023EEE7000091
:1036B000074AD36823F4E0631B041B0C000200F4E8
:1036C000E060034343F0BF6343F40033D3607047CB
:1036D00000ED00E010B50446054BD868C0F30220A9
:1036E000FFF7C6FF01462046FFF7AEFF10BD00BF43
:1036F00000ED00E0002807DB00F01F024009012375
:103700009340024A42F82030704700BF00E100E0D9
:103710000138B0F1807F0BD24FF0E0235861054AA9
:10372000F02182F823100020986107221A61704767
:103730000120704700ED00E082B0084B9A6942F02A
:1037400001029A619B6903F001030193019B044A02
:1037500013680343136002B0704700BF00100240BB
:1037600000000140034AD2F8883043F47003C2F8E5
:103770008830704700ED00E010B503460C4A0D4953
:103780000D48006840B10C4800680344521A934247
:1037900006D8094A136010BD0748084C0460F2E7D8
:1037A00003F030F80C2303604FF0FF30F3E700BF65
:1037B0000030002000040000B41D00201021002073
:1037C0000120704708B503F01DF8162303604FF081
:1037D000FF3008BD08B54FF0FF31FFF7F3FFFEE7FC
:1037E00070B50C461646002506E0FDF746FC21465E
:1037F00001F8010B01350C46B542F6DB304670BDD1
:1038000070B50C461646002504E014F8010BFDF7D0
:103810002DFC0135B542F8DB304670BD4FF0FF306E
:1038200070474FF400534B600020704701207047F1
:103830000020704708B51148114B03604FF48273A4
:103840004360002383604FF47062C2600222026111
:10385000012242614FF4007282610822C261036258
:10386000436283620722C2620363436300F08CF900
:1038700000B908BDFDF7D4FCFBE700BFB81D002070
:103880000030014000B589B00023039304930593F1
:10389000069307930268144B9A4202D009B05DF870
:1038A00004FB03F560439A6942F480529A619A6975
:1038B00002F480520192019A5A6942F400325A612C
:1038C0005B6903F400330293029BE023039302231A
:1038D0000493032306930523079303A94FF0904015
:1038E000FFF7A0FCDAE700BF003001402DE9F04708
:1038F00082B00546884617461E46FEF76BFF0A9BB8
:103900001B1A03EB0609FEF765FF8246284B1B686E
:10391000C3F3CB3309FB03F301932B689C6838EAAC
:1039200004040CBF01230023BB423DD0B6F1FF3F8E
:10393000F3D0FEF74FFFA0EB0A00484507D2019AEB
:1039400002B14A46019B013B01939146E5E72A6893
:10395000536823F0E00353606B68B3F5827F0BD0AC
:10396000AB6AB3F5005F14D0012385F85D30002306
:1039700085F85C30032018E0AB68B3F5004F02D047
:10398000B3F5806FECD12A68136823F0400313600D
:10399000E6E72A68136823F4005313602A68136863
:1039A00043F400531360DFE7002002B0BDE8F08766
:1039B000080000202DE9F04782B006460C46154667
:1039C0001F4600238DF80330FEF704FF0A9B1B1AE5
:1039D00003EB0708FEF7FEFE8146D6F800A0304B49
:1039E0001B6803EB8303C3EBC3031B0D08FB03F34B
:1039F000019302E0B7F1FF3F12D133689B6803EAFD
:103A0000040CAC4547D0B4F5C06FF3D1002DF1D113
:103A10009AF80C30DBB28DF803309DF80330E9E7FB
:103A2000FEF7D8FEA0EB0900404507D2019A02B18B
:103A30004246019B013B01939046DEE732685368A2
:103A400023F0E00353607368B3F5827F0BD0B36A51
:103A5000B3F5005F14D0012386F85D30002386F8AB
:103A60005C30032018E0B368B3F5004F02D0B3F523
:103A7000806FECD13268136823F040031360E6E7EF
:103A80003268136823F4005313603268136843F4F8
:103A900000531360DFE7002002B0BDE8F08700BFED
:103AA0000800002070B582B004460D46164600920C
:103AB0000B4600224FF4C051FFF77CFFB0B90096CF
:103AC0002B46002280212046FFF710FFA8B9009660
:103AD0002B4600224FF4C0612046FFF76BFF50B128
:103AE000236E43F020032366032004E0236E43F09B
:103AF00020032366032002B070BD236E43F0200331
:103B000023660320F7E770B582B004460D461646DB
:103B10004368B3F5827F0DD000962B4600228021AA
:103B20002046FFF7E3FE90B96368B3F5827F14D0B7
:103B300002B070BD8368B3F5004F02D0B3F5806F5B
:103B4000EAD12268136823F040031360E4E7236E90
:103B500043F0200323660320EAE7A368B3F5004F90
:103B600002D0B3F5806FE3D100962B4600224FF4CC
:103B7000C0612046FFF71EFF0028D9D0236E43F016
:103B8000200323660320D3E700286AD010B504463B
:103B9000436A33B94368B3F5827F05D00023C3611C
:103BA00002E00023036143610023A36294F85D30C7
:103BB000002B4DD0022384F85D302268136823F077
:103BC00040031360E368B3F5E06F47D90022B3F513
:103BD000706F04D0B3F5E06F01D00023A362636877
:103BE00003F48273A16801F404410B43216901F0DD
:103BF00002010B43616901F001010B43A16901F46A
:103C000000710B43E16901F038010B43216A01F0B7
:103C100080010B43A16A01F4005120680B4303604B
:103C2000638B03F00403616A01F010010B43616BC5
:103C300001F008010B43E16801F470610B43216856
:103C40001A434A6000202066012384F85D3010BDCD
:103C500084F85C302046FFF715FEABE74FF4805246
:103C6000B5E7012070472DE9F04383B01D4690F879
:103C70005C30012B00F0F480044688469146012315
:103C800080F85C30FEF7A6FD074694F85D60F6B25A
:103C9000012E40F0DD80B8F1000F00F0DA80B9F1BC
:103CA000000F00F0D680032384F85D3000232366E4
:103CB000C4F83880A4F83C90A4F83E902364A4F89B
:103CC0004430A4F846302365E364A368B3F5004F9D
:103CD0001ED023681A6812F0400F03D11A6842F010
:103CE00040021A60E368B3F5E06F44D9636813B12A
:103CF000B9F1010F20D1A26B23681288DA60A36B9F
:103D00000233A363E38F9BB2013B9BB2E38713E0D3
:103D10002268136823F0400313602268136843F499
:103D200080431360D5E7FEF755FDC01BA84202D3C0
:103D3000B5F1FF3F1AD1CDB1E38F9BB2002B6FD00D
:103D400023689A6812F0020FEDD0A26B1288DA6035
:103D5000A36B0233A363B4F83EC01FFA8CFC0CF1D2
:103D6000FF3C1FFA8CFCA4F83EC0E5E7012384F871
:103D70005D3003266DE0636813B1B9F1010F32D1F4
:103D8000E38F9BB2012B0CD9A26B23681288DA60F7
:103D9000A36B0233A363E38F9BB2023B9BB2E38727
:103DA00021E0A26B236812781A73A36B0133A3631B
:103DB000E38F9BB2013B9BB2E38714E0A36B1B78BC
:103DC0001373A36B0133A363E38F9BB2013B9BB2DD
:103DD000E38708E0FEF7FEFCC01BA84202D3B5F162
:103DE000FF3F18D1BDB1E38F9BB2CBB1226893687E
:103DF00013F0020FEED0E38F9BB2012BDED9A36B41
:103E00001B88D360A36B0233A363E38F9BB2023B97
:103E10009BB2E387E7E7012384F85D30032618E0CF
:103E20003A4629462046FFF73DFE08B12023236687
:103E3000A36833B901932368DA6801929B68019300
:103E4000019B236E2BB9012384F85D30002600E02E
:103E50000226002384F85C30304603B0BDE8F083CE
:103E60000226F9E72DE9F8431F46089D90F85C30DB
:103E7000012B00F06B81044688469146012380F8AF
:103E80005C30FEF7A7FC064694F85D30DBB2626852
:103E9000012B0AD0B2F5827F40F04681A268002A49
:103EA00040F04881042B40F04781B8F1000F00F04A
:103EB0004581B9F1000F00F04381002F00F04281ED
:103EC00094F85D30DBB2042B02D0052384F85D301A
:103ED00000232366C4F84090A4F84670A4F8447008
:103EE000C4F83880E787A787E3642365E368B3F500
:103EF000E06F01D8012F23D92268536823F480533F
:103F0000536023681A6812F0400F03D11A6842F018
:103F100040021A60E368B3F5E06F5CD963680BB1E7
:103F2000012F0BD1A26B23681288DA60A36B0233D6
:103F3000A363E38F9BB2013B9BB2E387012730E091
:103F40002268536843F480535360DAE7A26B128807
:103F5000DA60A36B0233A363E38F9BB2013B9BB296
:103F6000E387002723689A6812F0010F11D0B4F894
:103F7000462092B26AB1DA68236C1A80236C02334D
:103F80002364B4F846309BB2013B9BB2A4F84630A0
:103F90000127FEF71FFC831BAB4202D3B5F1FF3FA5
:103FA00014D1E38F9BB22BB9B4F846309BB2002BEF
:103FB00000F0AB8023689A6812F0020FD2D0E28F33
:103FC00092B2002ACED0002FCCD0BFE7012384F8D4
:103FD0005D300320A9E063680BB1012F0FD1E38F9F
:103FE0009BB2012B0DD9A26B23681288DA60A36BF8
:103FF0000233A363E38F9BB2023B9BB2E3870127AB
:1040000049E0A26B236812781A73A36B0133A36390
:10401000E38F9BB2013B9BB2E387F0E7E28F92B262
:10402000012A0CD9A26B1288DA60A36B0233A36356
:10403000E38F9BB2023B9BB2E38700273DE0A26B7C
:1040400012781A73A36B0133A363E38F9BB2013B16
:104050009BB2E387002730E02268536843F4805323
:10406000536001270DE0226C1B7B1370236C01331E
:104070002364B4F846309BB2013B9BB2A4F84630AF
:104080000127FEF7A7FB801BA84202D3B5F1FF3F33
:1040900036D1002D34D0E38F9BB223B9B4F846302B
:1040A0009BB2002B31D023689A6812F0020F04D023
:1040B000E28F92B20AB1002FB0D123689A6812F051
:1040C000010FDED0B4F8462092B2002AD9D0B4F85D
:1040D000462092B2012AC6D9DA68236C1A80236C72
:1040E00002332364B4F846309BB2023B9BB2A4F87F
:1040F0004630B4F846309BB2012BADD90127C0E75A
:10410000012384F85D3003200FE032462946204623
:10411000FFF7C8FC10B1202323660120236E9BB952
:10412000012384F85D3000E00220002384F85C3035
:10413000BDE8F8830220F8E70220F6E70120F4E763
:104140000120F2E70120F0E70120EEE70220EFE78F
:104150002DE9F04383B0044690F85D60F6B2012E7D
:1041600040F0C080884691461D464368B3F5827F83
:104170003DD094F85C30012B00F0BC80012384F822
:104180005C30FEF727FB0746B8F1000F00F0AB806C
:10419000B9F1000F00F0A780042384F85D300023FC
:1041A0002366C4F84080A4F84490A4F84690A36322
:1041B000A387E387E3642365E368B3F5E06F23D95E
:1041C0002268536823F480535360A368B3F5004F0B
:1041D00020D023681A6812F0400F03D11A6842F009
:1041E00040021A60E368B3F5E06F27D94CE08368BA
:1041F000002BBED1042380F85D30009513460A469B
:10420000FFF730FE064671E02268536843F480539E
:104210005360DAE72268136823F0400313602268D2
:10422000136823F480431360D3E7FEF7D3FAC01B6F
:10423000A84202D3B5F1FF3F18D1BDB1B4F8463062
:104240009BB2002B3FD023689A6812F0010FECD08C
:10425000226C1B7B1370236C01332364B4F846304B
:104260009BB2013B9BB2A4F84630E7E7012384F8F8
:104270005D30032637E0FEF7ADFAC01BA84202D33B
:10428000B5F1FF3F1AD1CDB1B4F846309BB2D3B1EE
:1042900023689A6812F0010FEDD0DA68236C1A8057
:1042A000236C02332364B4F846C01FFA8CFC0CF173
:1042B000FF3C1FFA8CFCA4F846C0E5E7012384F814
:1042C0005D3003260FE03A4629462046FFF71BFCE7
:1042D00008B120232366236E2BB9012384F85D30B7
:1042E000002600E00226002384F85C30304603B04C
:1042F000BDE8F0830226F9E708B50B480B4B0360D5
:104300004FF46133436000238360C36003610C2278
:1043100042618361C3610362436200F006FD00B93C
:1043200008BDFCF77DFFFBE7A41E0020003801401C
:1043300010B588B000230393049305930693079365
:104340000268304B9A4201D008B010BD044603F514
:1043500058439A6942F480429A619A6902F4804211
:104360000192019A5A6942F400325A615B6903F47E
:1043700000330293029B4FF4C06303930223049320
:10438000032306930723079303A94FF09040FEF7FA
:1043900049FF1D481D4B036000234360836080225A
:1043A000C26003614361202383614FF40053C36102
:1043B000FFF744F800BB144B63675C621448154B6D
:1043C000036010234360002383608022C260036186
:1043D000436183614FF40053C361FFF72FF870B955
:1043E0000B4B23675C62002211462520FFF772F910
:1043F0002520FFF77FF9A7E7FCF712FFDBE7FCF7C3
:104400000FFFEDE700380140601E00205800024019
:104410001C1E002044000240026852E8003F23F0C6
:10442000C00342E800310029F6D12023C36770475A
:10443000026852E8003F23F4907342E800310029FB
:10444000F6D1026802F1080353E8003F23F00103AC
:10445000083242E800310029F3D1036E012B06D067
:104460002023C0F88030002303668366704702680B
:1044700052E8003F23F0100342E800310029F6D152
:10448000EEE700001346C26F202A3BD110B5044668
:10449000002939D0002B39D0C164A0F85030A0F8E1
:1044A00052300022C0F884202122C267026FC2B1BC
:1044B00017499162026F1749D162026F1649116361
:1044C000026F0021516302682832C16C006FFEF751
:1044D000DDFF30B11023C4F884302023E3670120CE
:1044E0000FE0236840221A62226802F1080353E8B1
:1044F000003F43F08003083242E800310029F3D145
:10450000002010BD022070470120FAE70120F8E7E3
:104510001D450008854500089545000808B5416A15
:104520008369202B18D00023A1F852300A6802F1C9
:10453000080353E8003F23F08003083242E80030CC
:104540000028F3D10A6852E8003F43F0400342E8F4
:1045500000300028F6D108BD0846FCF783FDFAE7D5
:1045600008B5026852E8003F23F0400342E80031FA
:104570000029F6D12023C3670023C366FCF772FD30
:1045800008BD704708B5406AFFF7FBFF08BD7047DC
:104590007047704738B5446AE26FD4F8805023689A
:1045A0009B6813F0800F01D0212A10D023689B68EC
:1045B00013F0400F01D0222D10D0D4F8843043F0F6
:1045C0001003C4F884302046FFF7E3FF38BD002312
:1045D000A4F852302046FFF71FFFE7E70023A4F8B6
:1045E0005A302046FFF724FFE7E708B5406A00236A
:1045F000A0F85A30A0F85230FFF7CBFF08BD704743
:1046000070B504460268D3691168906840F60F0CD3
:1046100013EA0C0F0AD113F0200F0DD011F0200F68
:104620000AD0A36E0BB3204698471EE010F0010598
:104630001CD1AB4E314219D1256E012D00F0A48062
:1046400013F4801F03D010F4800F40F0368113F074
:10465000800F03D011F0800F40F0368113F0400F2F
:1046600003D011F0400F40F0368170BD13F0010F00
:1046700009D011F4807F06D001201062D4F8842084
:104680000243C4F8842013F0020F09D045B1226818
:1046900002201062D4F8842042F00402C4F884207E
:1046A00013F0040F09D045B1226804201062D4F839
:1046B000842042F00202C4F8842013F0080F0BD0CB
:1046C00011F0200F00D13DB1226808201062D4F80B
:1046D00084200243C4F8842013F4006F0CD011F03E
:1046E000806F09D022684FF400601062D4F88420F3
:1046F00042F02002C4F88420D4F88420002AB4D0E8
:1047000013F0200F06D011F0200F03D0A36E0BB1D1
:1047100020469847D4F8842023689B6813F0400F04
:1047200002D112F0280F28D02046FFF781FE23681F
:104730009B6813F0400F1CD0226802F1080353E875
:10474000003F23F04003083242E800310029F3D152
:10475000636F53B1634A5A63606FFEF7F6FE002839
:1047600083D0606F436B98477FE72046FFF711FFC8
:104770007BE72046FFF70DFF77E72046FFF709FFAD
:104780000023C4F8843070E713F0100F3FF458AFE3
:1047900011F0100F3FF454AF1023136223689B688D
:1047A00013F0400F4FD0626F13685B689BB2002B11
:1047B0003FF45BAFB4F8581099427FF656AFA4F8B7
:1047C0005A309369202B31D0226852E8003F23F4FD
:1047D000807342E800310029F6D1226802F1080313
:1047E00053E8003F23F00103083242E8003100297A
:1047F000F3D1226802F1080353E8003F23F040039D
:10480000083242E800310029F3D12023C4F8803077
:1048100000232366226852E8003F23F0100342E899
:1048200000310029F6D1606FFEF76AFE022363664D
:10483000B4F85810B4F85A309BB2C91A89B220465D
:10484000FFF7DDFE11E7B4F85810B4F85A309BB208
:10485000C91A89B2B4F85A309BB2002B3FF405AFA5
:1048600000293FF402AF226852E8003F23F490731E
:1048700042E800300028F6D1226802F1080353E82C
:10488000003F23F00103083242E800300028F3D152
:104890002023C4F8803000232366A366226852E8F0
:1048A000003F23F0100342E800300028F6D1022335
:1048B00063662046FFF7A3FED7E64FF4801313622A
:1048C000204600F0D7FAD0E6E36E002B3FF4CDAEE1
:1048D00020469847C9E62046FFF742FEC5E600BFDE
:1048E00020010004EB45000808B5406A0123436637
:1048F000036E012B02D0FFF74BFE08BDB0F8581035
:104900004908FFF77CFEF8E708B50346406A9B6953
:10491000202B29D00023A0F85A30026852E8003F2B
:1049200023F4807342E800310029F6D1026802F1D5
:10493000080353E8003F23F00103083242E8003146
:104940000029F3D1026802F1080353E8003F23F085
:104950004003083242E800310029F3D12023C0F897
:104960008030036E012B07D000234366036E012BBA
:104970000CD0FFF70CFE08BD026852E8003F23F0A0
:10498000100342E800310029F6D1EDE7B0F85810E5
:10499000FFF735FEEFE7000010B5044683680269B3
:1049A000134342691343C2691343016808684E4ABE
:1049B00002401A430A602268536823F44053E168B6
:1049C0000B435360A269236A1A4321688B6823F45E
:1049D000306313438B602368444A934214D0444AA3
:1049E000934227D002F5806293421FD01023E069E2
:1049F000B0F5004F20D0082B70D8DFE803F04A60F4
:104A0000486F636F6F6F66003A4B1B6B03F00303D5
:104A1000032B09D8DFE803F00204060C0023E6E7C5
:104A20000423E4E70823E2E71023E0E70023DEE7BE
:104A30000223DCE70023DAE7082B49D8DFE803F09C
:104A4000051F2548224848480900FEF7F9FA0028C2
:104A500040D06268530803EB4003B3FBF2F3A3F1C9
:104A600010014FF6EF72914236D89AB222F00F023F
:104A7000C3F3420313432268D36000201BE0FEF718
:104A8000F5FAE4E7FEF7D8F9E1E71B48E1E71A4851
:104A900002E0FEF7D5FA18B3636800EB5300B0FBF1
:104AA000F3F0A0F110024FF6EF739A421AD8236880
:104AB00080B2D86000200023A366E36610BDFEF735
:104AC000D5FAE8E7FEF7B8F9E5E74FF40040E3E789
:104AD0000120F0E70020EEE70120ECE70120EAE703
:104AE0000020E8E70120E6E7F369FFEF0038014026
:104AF000004400400010024000127A00436A13F0A4
:104B0000080F06D00268536823F40043416B0B433F
:104B10005360436A13F0010F06D00268536823F410
:104B20000033816A0B435360436A13F0020F06D0CF
:104B30000268536823F48033C16A0B435360436AAD
:104B400013F0040F06D00268536823F48023016B2E
:104B50000B435360436A13F0100F06D0026893684A
:104B600023F48053816B0B439360436A13F0200F4F
:104B700006D00268936823F40053C16B0B43936023
:104B8000436A13F0400F0AD00268536823F480137D
:104B9000016C0B435360036CB3F5801F0BD0436A69
:104BA00013F0800F06D00268536823F40023816C51
:104BB0000B43536070470268536823F4C003416C91
:104BC0000B435360EBE72DE9F84305460E461746C5
:104BD0009946DDF820802B68DC6936EA04040CBFB6
:104BE00001240024BC4236D1B8F1FF3FF3D0FDF7D9
:104BF000F1FDA0EB0900404530D8B8F1000F2FD0EF
:104C00002B681A6812F0040FE5D0802EE3D0402EF6
:104C1000E1D0DA6912F0080F11D1DA6912F4006FED
:104C2000D9D04FF400621A622846FFF701FC202316
:104C3000C5F88430002385F8783003200CE0082480
:104C40001C622846FFF7F4FBC5F88440002385F872
:104C50007830012000E00020BDE8F8830320FBE766
:104C60000320F9E730B583B004460023C0F8843050
:104C7000FDF7B0FD05462268126812F0080F0FD14B
:104C800023681B6813F0040F26D12023E367C4F8C0
:104C9000803000202066606684F8780003B030BD64
:104CA0006FF07E430093034600224FF4001120462C
:104CB000FFF789FF0028E3D0226852E8003F23F085
:104CC000800342E800310029F6D12023E367002366
:104CD00084F878300320E1E76FF07E4300932B46A1
:104CE00000224FF480012046FFF76DFF0028CCD052
:104CF000226852E8003F23F4907342E80031002913
:104D0000F6D1226802F1080353E8003F23F00103C3
:104D1000083242E800310029F3D12023C4F8803062
:104D2000002384F878300320B8E768B310B5044650
:104D3000C36F03B32423E3672268136823F00103DE
:104D40001360636AE3B92046FFF726FE012811D0FD
:104D50002268536823F4904353602268936823F0D9
:104D60002A0393602268136843F00103136020460E
:104D7000FFF778FF10BD80F87830FFF7D9FAD9E750
:104D80002046FFF7BBFEDEE70120704710B5044662
:104D900013464165A0F858200022C0F88420222242
:104DA000C0F88020426F8AB11F499162426F1F494B
:104DB000D162426F1E491163426F00215163016845
:104DC000426D2431406FFEF761FB20BB236943B184
:104DD000226852E8003F43F4807342E80031002922
:104DE000F6D1226802F1080353E8003F43F00103C3
:104DF000083242E800310029F3D1226802F10803A9
:104E000053E8003F43F04003083242E800310029F4
:104E1000F3D1002010BD1023C4F884302023C4F83F
:104E200080300120F6E700BF09490008E948000882
:104E30009545000838B5D0F88030202B14D1A9B1A1
:104E4000B2B10023036603685B6813F4000F08D057
:104E5000046854E8003F43F0806344E80035002DC7
:104E6000F6D1FFF793FF00E0022038BD0120FCE7F8
:104E70000120FAE77047000000B583B0124B5A6971
:104E800042F001025A615B6903F001030193019B47
:104E9000002211460B20FEF71DFC0B20FEF72AFC1A
:104EA000002211460E20FEF715FC0E20FEF722FC14
:104EB000002211460F20FEF70DFC0F20FEF71AFC12
:104EC00003B05DF804FB00BF0010024000B58BB0DA
:104ED0000023079308930993019302930393049388
:104EE0000593069328484FF0A04202604FF44032E9
:104EF0004260836001220261427680F82030C36202
:104F00008262C3600321C16180F8302004224261C3
:104F10000376436300F044F930BB0023079307A9ED
:104F2000194800F0E5FC10BB012301930293002314
:104F3000049304220392059306930DEB0201124899
:104F400000F01EFBB0B90223029301A90E4800F045
:104F500017FB90B90323029301A90B4800F010FB43
:104F600070B90BB05DF804FBFCF75AF9D5E7FCF714
:104F700057F9D9E7FCF754F9E5E7FCF751F9E9E708
:104F8000FCF74EF9EDE700BF701F002010B588B0A8
:104F90000023039304930593069307930368B3F1E7
:104FA000A04F01D008B010BD044603F1704303F5D3
:104FB00004335A6942F080525A615A6902F08052B1
:104FC0000192019A5A6942F400325A615B6903F412
:104FD00000330293029B072303930323049303A943
:104FE0004FF09040FEF71EF90B480C4B0360002376
:104FF000436083608022C26003614361202282613A
:10500000C361FEF71BFA18B9034BA3635C62C9E7DF
:10501000FCF706F9F8E700BF2C1F0020080002404B
:1050200070477047704738B50268936803F0030310
:10503000012B01D0002038BD0446136813F0010F86
:1050400033D0936803F00D03012B09D0036C43F0B8
:1050500010030364436C43F0010343640120EAE757
:10506000936843F002039360036803221A60FDF71C
:10507000B1FB054623689B6813F0010F13D0FDF7C1
:10508000A9FB401B0228F5D923689B6813F0010F88
:10509000F0D0236C43F010032364636C43F00103EE
:1050A00063640120C7E70020C5E70020C3E70000D4
:1050B00038B504460268936803F00303012B0DD052
:1050C00091681A4B19420FD0236C43F010032364EC
:1050D000636C43F001036364012038BD136813F06F
:1050E000010FEDD00020F8E7936843F001039360CF
:1050F000FDF770FB054623681B6813F0010F13D101
:10510000FDF768FB431B022BF5D923681B6813F0DE
:10511000010FF0D1236C43F010032364636C43F060
:10512000010363640120D8E70020D6E73F00008038
:1051300008B5406A036C43F040030364436C43F0DA
:1051400004034364FFF76EFF08BD08B5406AFFF72C
:1051500068FF08BD08B5436A1A6C12F0500F1AD1E7
:105160001A6C42F400721A641A68D26812F4406F22
:105170000DD15A7E5AB91A6C22F480721A641A6CD4
:1051800012F4805F03D11A6C42F001021A641846CF
:10519000FFF746FF08BD9B6B1B6B9847FAE70000C3
:1051A00030B597B000230193002800F0F780044643
:1051B000036C13F0100F52D1036CABB100202368C5
:1051C0009A6812F0805F03D09B6813F0005F47D0AD
:1051D000236C23F0120343F010032364636C43F049
:1051E0000103636401203BE04364C364836480F88B
:1051F0003C30FFF7CBFE23689B6813F0805F01D043
:105200000020DCE72046FFF70EFF236C13F0100FA1
:10521000D5D10028D3D1236C23F4885323F0020383
:1052200043F0020323642268936823F040539360A1
:105230002268936843F080539360594B1B68594A26
:10524000A2FB03239B0C03EB83035B00019302E0AF
:10525000019B013B0193019B002BF9D1AFE700209B
:10526000236C13F0100F40F09080002840F08D80E8
:105270002368996811F0040140F08780226C22F4C1
:10528000817242F002022264B3F1A04F54D04FF079
:10529000A04202929A6802F00302012A4FD0029BB8
:1052A00023B19A6802F00302012A4DD03E4A936866
:1052B00023F4403365682B439360627E5303656B30
:1052C000012D01D04FF480510B43E1680B43A168DD
:1052D0000B4394F8201001293BD0A26A012A02D086
:1052E000E16A0A4313432268916811F00C0F0CD154
:1052F000D16821F4804121F00201D160217E94F82F
:105300003020520042EA813213432168CD68274A97
:105310002A401A43CA602369012B2DD02268136BDF
:1053200023F00F03136300236364236C23F0030350
:1053300043F0010323642FE01D4A0292AAE71B6891
:1053400013F0010FB9D1AAE71B6813F0010FB4D114
:10535000ACE732B9626A013A43EA424242F480332E
:10536000BBE7226C22F0220242F020022264626C2F
:1053700042F001026264B0E721680B6B23F00F0377
:10538000E269013A13430B63CDE7236C23F0120368
:1053900043F010032364012017B030BD0120FBE768
:1053A0000800002083DE1B430003005007C0F0FF0D
:1053B00000010050F8B504460068806810F0040F42
:1053C00040F083800E46154694F83C30012B7ED089
:1053D000012384F83C303F4B9B6813F01F0F05D02E
:1053E000002384F83C3001273846F8BD2046FFF7FB
:1053F0005FFE0746002864D1236C23F4706323F01A
:10540000010343F480732364324B9B6813F01F0F36
:1054100017D02268B2F1A04F13D0236C43F480134D
:1054200023642D4B9A421BD14FF0A043DB6813F04D
:10543000007F15D0236C23F4405343F4805323643E
:105440000EE0236C23F4801323642368DB6813F0DD
:10545000007F05D0236C23F4405343F4805323642E
:10546000236C13F4805F29D0636C23F0060363641C
:10547000002384F83C30A36B184A9A62A36B184A45
:10548000DA62A36B174A1A6323681C221A60226827
:10549000536843F0100353602268D36843F001035C
:1054A000D36021682B4632464031A06BFDF7EEFFFA
:1054B0002268936843F00403936095E700236364D4
:1054C000D6E7002384F83C308EE702278CE70227DA
:1054D0008AE700BF0003005000010050555100084A
:1054E0004B5100083151000870B590F83C30012B49
:1054F00043D004460D46012380F83C30FFF793FD6E
:105500000646002834D1012323642268936823F0DF
:1055100080439360012D1FD02268936843F00043BD
:105520009360FDF757F9054623689B68002B19DA4D
:10553000FDF750F9431B0A2BF6D923689B68002B13
:10554000F2DA236C23F0120343F0100323640023E8
:1055500084F83C3001260EE02268936843F08043D3
:105560009360D9E7236C23F0030343F00103236422
:10557000002384F83C30304670BD0226FBE7000073
:1055800030B496B00022019290F83C20012A00F03D
:10559000A5810346012280F83C200068826812F051
:1055A000040F40F090814A68042A35D8046B02EB5E
:1055B000420252004FF01F0C0CFA02FC24EA0C0CC1
:1055C0000C6894404CEA040404631868826812F082
:1055D0000C0F6BD10A68092A4FD9846902EB420289
:1055E0001E3A4FF0070C0CFA02FC24EA0C048D68FA
:1055F00005FA02F22243826148691C68E268C2F33C
:10560000C102520090400A69013A032A00F28D80DB
:10561000DFE802F0426A7580092A10D8446B02EB79
:10562000420252001E3A4FF01F0C0CFA02FC24EA10
:105630000C040D6805FA02F222434263C5E70E2A04
:105640000DD8846B02EB420252003C3A1F25954074
:1056500024EA05040D6895402C438463B5E7C46BC8
:1056600002EB420252005A3A1F25954024EA0504F3
:105670000D6895402C43C463A7E7446902EB4202DE
:105680004FF0070C0CFA02FC24EA0C048D6805FAB2
:1056900002F222434261AFE7256E914A2A400D682B
:1056A00040EA85652A4342F0004222661868826813
:1056B00002F00302012A68D0CA68012A6BD0D0F830
:1056C000B02001240D68AC4022EA0402C0F8B020EA
:1056D0000A68102A00F08680112A00F0A480122A9D
:1056E00000F0A7800020F3E0656E7D4A2A400D6837
:1056F00040EA85652A4342F000426266D6E7A56E1D
:10570000774A2A400D6840EA85652A4342F0004204
:10571000A266CBE7E26E724D15400A6840EA8262EB
:10572000154345F00045E566C0E7226E02F0F842F9
:105730000868B2EB806F03D1226E22F0004222662D
:105740001A68506E00F0F8400C68B0EB846F03D11B
:10575000506E20F0004050661A68906E00F0F840DD
:105760000C68B0EB846F03D1906E20F0004090661F
:105770001A68D06E00F0F8400C68B0EB846F95D1D9
:10578000D06E20F00040D06690E7026812F0010F62
:1057900092D000209CE0D0F8B0200D680124AC40ED
:1057A0002243C0F8B0200A68092A0DD91D68A869EB
:1057B00002EB42021B3A0724944020EA04008C6862
:1057C00094402043A86183E71D686869013202EBB9
:1057D00042020724944020EA04008C68944020434D
:1057E000686175E73F49896811F4000F7FF474AF71
:1057F0001868B0F1A04F23D04FF0A041029181680A
:1058000001F0030101291ED0029921B18C6804F036
:105810000304012C21D0102A24D0112A42D0122AAC
:105820004AD0002054E02F49896811F0807FDFD0F2
:1058300055E72C49896811F4800FD9D0002047E042
:1058400029490291DBE7016811F0010FDCD01A6CE5
:1058500042F020021A6401203AE0096811F0010FB9
:10586000F5D1D8E7B0F1A04FD7D11E498A6842F4EC
:1058700000028A601D4A1268A1F14E61A1F58421DF
:10588000A1F27D41A1FB0212920C02EB82025200B6
:10589000019202E0019A013A0192019A002AF9D19B
:1058A000002015E0B0F1A04FB9D10E498A6842F04E
:1058B00080728A6000200BE00A498A6842F4800204
:1058C0008A60002004E01A6C42F020021A64012071
:1058D000002283F83C2016B030BC70470220FAE763
:1058E00000F0FF830003005000010050080000207A
:1058F00030B494B003460268B2F1A04F3DD04FF0EF
:10590000A04000900098002876D093F83CC0BCF1ED
:10591000010F73D04FF0010C83F83CC0926812F075
:10592000040F5ED1826812F0040F5AD10A68002A6F
:1059300032D0334CA26822F4604293F830C04D68F4
:1059400045EA4C3C42EA0C02A2601C68A26802F0E4
:105950000302012A14D0826802F00302012A15D042
:10596000274CA26822F4716222F00F02086889684D
:1059700001430A43A260002038E022480090C1E7BA
:10598000226812F0010FE6D000202FE0026812F02A
:10599000010FE5D0002029E019498A6822F460420D
:1059A0008A6019688A6802F00302012A0DD08268B1
:1059B00002F00302012A0ED011498A6822F47162B2
:1059C00022F00F028A60002010E00A6812F0010F36
:1059D000EDD000200AE0026812F0010FECD00020A8
:1059E00004E01A6C42F020021A640120002283F8BD
:1059F0003C2014B030BC70470120FAE70220F8E7E1
:105A00000003005000010050DFF834D0FDF7AAFE7B
:105A10000C480D490D4A002302E0D458C450043309
:105A2000C4188C42F9D30A4A0A4C002301E01360DF
:105A30000432A242FBD300F0EBFEFBF735FCFEE79D
:105A40000030002000000020D4010020609C0008ED
:105A5000D40100200C210020FEE72DE9FF4757EC80
:105A6000106B002F0C4619463B46BBBF07F10043A5
:105A70001F4600232D230B700D9BDDF830A09146AF
:105A800023F02008BCBF32461646B8F1460F05D0B9
:105A9000B8F1450F00D10134022100E0032103AB2E
:105AA000019302AB009347EC106B5346224600F083
:105AB0005FFFB8F1470F054619D119F0010F0ED05D
:105AC00000EB04090022002330463946FAF7FCFFB8
:105AD00008B1CDF80C903022039B4B451ED3039B9D
