:020000040800F2
:1000000000300020214C0008D1190008D319000845
:10001000D5190008D7190008D919000800000000F8
:10002000000000000000000000000000DB190008D4
:10003000DD19000800000000DF190008E1190008C0
:10004000714C0008714C0008714C0008714C00089C
:10005000714C0008714C0008714C0008714C00088C
:10006000714C0008714C0008714C0008714C00087C
:10007000714C0008714C0008E9190008F9190008D2
:10008000714C0008714C0008714C0008714C00085C
:10009000714C0008714C0008714C0008714C00084C
:1000A000714C0008714C0008714C0008714C00083C
:1000B000714C0008714C000800000000714C0008F1
:1000C000714C00080000000000000000714C0008A6
:1000D00000000000091A0008714C0008714C00086B
:1000E000714C0008714C0008000000000000000086
:1000F0000000000000000000000000000000000000
:1001000000000000000000000000000000000000EF
:100110000000000000000000714C0008714C000855
:1001200000000000000000000000000000000000CF
:1001300000000000000000000000000000000000BF
:10014000714C0008714C0008000000000000000025
:10015000000000000000000000000000000000009F
:10016000000000000000000000000000000000008F
:10017000000000000000000000000000000000007F
:0801800000000000714C0008B2
:1001900010B5054C237833B9044B13B10448AFF3C1
:1001A00000800123237010BDD40100200000000056
:1001B0004887000808B5034B1BB103490348AFF358
:1001C000008008BD00000000D8010020488700081A
:1001D00001F0FF01102A2BDB10F0070F08D010F8F8
:1001E000013B013A8B422DD010F0070F42B3F6D1FC
:1001F000F0B441EA012141EA014122F007047FF015
:1002000000070023F0E80256083C85EA010586EA6B
:10021000010685FA47F5A3FA87F586FA47F6A5FAA7
:1002200087F68EB9EED1F0BC01F0FF0102F00702B3
:1002300032B110F8013B013A83EA010313B1F8D15E
:100240000020704701387047002D06BF354603383F
:10025000073815F0010F07D1013015F4807F02BF78
:10026000013015F4C03F0130F0BC0138704700BFC9
:10027000034613F8012B002AFBD1181A01387047E6
:1002800081F0004102E000BF83F0004330B54FEA47
:1002900041044FEA430594EA050F08BF90EA020FB4
:1002A0001FBF54EA000C55EA020C7FEA645C7FEA47
:1002B000655C00F0E2804FEA5454D4EB5555B8BF6A
:1002C0006D420CDD2C4480EA020281EA030382EADB
:1002D000000083EA010180EA020281EA0303362D6D
:1002E00088BF30BD11F0004F4FEA01314FF4801C40
:1002F0004CEA113102D0404261EB410113F0004F52
:100300004FEA03334CEA133302D0524263EB430308
:1003100094EA050F00F0A780A4F10104D5F1200EA6
:100320000DDB02FA0EFC22FA05F2801841F1000101
:1003300003FA0EF2801843FA05F359410EE0A5F1D5
:1003400020050EF1200E012A03FA0EFC28BF4CF006
:10035000020C43FA05F3C01851EBE37101F00045BC
:1003600007D54FF0000EDCF1000C7EEB00006EEBC9
:100370000101B1F5801F1BD3B1F5001F0CD3490853
:100380005FEA30004FEA3C0C04F101044FEA4452AA
:1003900012F5800F80F09A80BCF1004F08BF5FEA31
:1003A000500C50F1000041EB045141EA050130BD11
:1003B0005FEA4C0C404141EB0101013C28BFB1F523
:1003C000801FE9D291F0000F04BF01460020B1FA6E
:1003D00081F308BF2033A3F10B03B3F120020CDA41
:1003E0000C3208DD02F1140CC2F10C0201FA0CF01F
:1003F00021FA02F10CE002F11402D8BFC2F1200C84
:1004000001FA02F120FA0CFCDCBF41EA0C01904039
:10041000E41AA2BF01EB0451294330BD6FEA040482
:100420001F3C1CDA0C340EDC04F11404C4F120026D
:1004300020FA04F001FA02F340EA030021FA04F37F
:1004400045EA030130BDC4F10C04C4F1200220FAD6
:1004500002F001FA04F340EA0300294630BD21FA14
:1004600004F0294630BD94F0000F83F4801306BFDA
:1004700081F480110134013D4EE77FEA645C18BFCE
:100480007FEA655C29D094EA050F08BF90EA020F65
:1004900005D054EA000C04BF1946104630BD91EA5D
:1004A000030F1EBF0021002030BD5FEA545C05D160
:1004B0004000494128BF41F0004130BD14F580049F
:1004C0003CBF01F5801130BD01F0004545F0FE4113
:1004D00041F470014FF0000030BD7FEA645C1ABF48
:1004E000194610467FEA655C1CBF0B46024650EA7F
:1004F000013406BF52EA033591EA030F41F40021AB
:1005000030BD00BF90F0000F04BF0021704730B530
:100510004FF4806404F132044FF000054FF0000105
:1005200050E700BF90F0000F04BF0021704730B5C6
:100530004FF4806404F1320410F0004548BF40429B
:100540004FF000013EE700BF42004FEAE2014FEAF0
:1005500031014FEA02701FBF12F07F4393F07F4FCB
:1005600081F06051704732F07F4208BF704793F0CE
:100570007F4F04BF41F40021704730B54FF46074E1
:1005800001F0004521F000411CE700BF50EA0102E4
:1005900008BF704730B54FF000050AE050EA01028D
:1005A00008BF704730B511F0004502D5404261EBFD
:1005B00041014FF4806404F132045FEA915C3FF43E
:1005C000D8AE4FF003025FEADC0C18BF03325FEADB
:1005D000DC0C18BF033202EBDC02C2F1200300FA8C
:1005E00003FC20FA02F001FA03FE40EA0E0021FAB1
:1005F00002F11444BDE600BF70B54FF0FF0C4CF49F
:10060000E06C1CEA11541DBF1CEA135594EA0C0F50
:1006100095EA0C0F00F0DEF82C4481EA030621EA8B
:100620004C5123EA4C5350EA013518BF52EA0335C6
:1006300041F4801143F4801338D0A0FB02CE4FF078
:100640000005E1FB02E506F00042E0FB03E54FF0A8
:100650000006E1FB03569CF0000F18BF4EF0010EA0
:10066000A4F1FF04B6F5007F64F5407404D25FEA9C
:100670004E0E6D4146EB060642EAC62141EA55514F
:100680004FEAC52040EA5E504FEACE2EB4F1FD0C91
:1006900088BFBCF5E06F1ED8BEF1004F08BF5FEA0F
:1006A000500E50F1000041EB045170BD06F00046C1
:1006B00046EA010140EA020081EA0301B4EB5C046E
:1006C000C2BFD4EB0C0541EA045170BD41F4801166
:1006D0004FF0000E013C00F3AB8014F1360FDEBF8B
:1006E000002001F0004170BDC4F10004203C35DA67
:1006F0000C341BDC04F11404C4F1200500FA05F3EA
:1007000020FA04F001FA05F240EA020001F000428A
:1007100021F0004110EBD37021FA04F642EB060100
:100720005EEA430E08BF20EAD37070BDC4F10C042A
:10073000C4F1200500FA04F320FA05F001FA04F2EE
:1007400040EA020001F0004110EBD37041F10001DA
:100750005EEA430E08BF20EAD37070BDC4F12005E5
:1007600000FA05F24EEA020E20FA04F301FA05F24D
:1007700043EA020321FA04F001F0004121FA04F2F5
:1007800020EA020000EBD3705EEA430E08BF20EAC5
:10079000D37070BD94F0000F0FD101F000464000FF
:1007A00041EB010111F4801F08BF013CF7D041EA81
:1007B000060195F0000F18BF704703F00046520085
:1007C00043EB030313F4801F08BF013DF7D043EA56
:1007D0000603704794EA0C0F0CEA135518BF95EA0C
:1007E0000C0F0CD050EA410618BF52EA4306D1D193
:1007F00081EA030101F000414FF0000070BD50EAB2
:10080000410606BF1046194652EA430619D094EA3B
:100810000C0F02D150EA013613D195EA0C0F05D125
:1008200052EA03361CBF104619460AD181EA030179
:1008300001F0004141F0FE4141F470014FF0000031
:1008400070BD41F0FE4141F4780170BD70B54FF0CC
:10085000FF0C4CF4E06C1CEA11541DBF1CEA13554C
:1008600094EA0C0F95EA0C0F00F0A7F8A4EB05042E
:1008700081EA030E52EA03354FEA013100F0888025
:100880004FEA03334FF0805545EA131343EA1263EE
:100890004FEA022245EA111545EA10654FEA0026A3
:1008A0000EF000419D4208BF964244F1FD0404F55C
:1008B000407402D25B084FEA3202B61A65EB0305B8
:1008C0005B084FEA32024FF480104FF4002CB6EB75
:1008D000020E75EB030E22BFB61A754640EA0C00F5
:1008E0005B084FEA3202B6EB020E75EB030E22BF35
:1008F000B61A754640EA5C005B084FEA3202B6EB76
:10090000020E75EB030E22BFB61A754640EA9C0034
:100910005B084FEA3202B6EB020E75EB030E22BF04
:10092000B61A754640EADC0055EA060E18D04FEAC2
:10093000051545EA16754FEA06164FEAC30343EA62
:1009400052734FEAC2025FEA1C1CC0D111F4801F2F
:100950000BD141EA00014FF000004FF0004CB6E728
:1009600011F4801F04BF01430020B4F1FD0C88BFC7
:10097000BCF5E06F3FF6AFAEB5EB030C04BFB6EBD2
:10098000020C5FEA500C50F1000041EB045170BDC5
:100990000EF0004E4EEA113114EB5C04C2BFD4EBF2
:1009A0000C0541EA045170BD41F480114FF0000E76
:1009B000013C90E645EA060E8DE60CEA135594EAF2
:1009C0000C0F08BF95EA0C0F3FF43BAF94EA0C0FF5
:1009D0000AD150EA01347FF434AF95EA0C0F7FF46A
:1009E00025AF104619462CE795EA0C0F06D152EABE
:1009F00003353FF4FDAE1046194622E750EA4106A2
:100A000018BF52EA43067FF4C5AE50EA41047FF4B2
:100A10000DAF52EA43057FF4EBAE12E74FF0FF3C17
:100A200006E000BF4FF0010C02E000BF4FF0010CE8
:100A30004DF804CD4FEA410C7FEA6C5C4FEA430C61
:100A400018BF7FEA6C5C1BD001B050EA410C0CBFB0
:100A500052EA430C91EA030F02BF90EA020F002012
:100A6000704710F1000F91EA030F58BF994208BF79
:100A700090422CBFD8176FEAE37040F00100704736
:100A80004FEA410C7FEA6C5C02D150EA013C07D18D
:100A90004FEA430C7FEA6C5CD6D152EA033CD3D0D8
:100AA0005DF8040B704700BF8446104662468C46D2
:100AB0001946634600E000BF01B5FFF7B7FF002805
:100AC00048BF10F1000F01BD4DF808EDFFF7F4FF2E
:100AD0000CBF012000205DF808FB00BF4DF808EDB9
:100AE000FFF7EAFF34BF012000205DF808FB00BFDC
:100AF0004DF808EDFFF7E0FF94BF012000205DF8FE
:100B000008FB00BF4DF808EDFFF7CEFF94BF0120B2
:100B100000205DF808FB00BF4DF808EDFFF7C4FFAB
:100B200034BF012000205DF808FB00BF4FEA410CF4
:100B30007FEA6C5C02D150EA013C0AD14FEA430CD7
:100B40007FEA6C5C02D152EA033C02D14FF0000014
:100B500070474FF0010070474FEA410212F5001252
:100B600015D211D56FF47873B3EB625212D94FEAF4
:100B7000C12343F0004343EA505311F0004F23FADE
:100B800002F018BF404270474FF00000704750EA33
:100B9000013005D111F0004008BF6FF000407047F0
:100BA0004FF00000704700BF4FEA4102B2F1E0434E
:100BB00024BFB3F5001CDCF1FE5C0DD901F0004C44
:100BC0004FEAC0024CEA5070B2F1004F40EB830094
:100BD00008BF20F00100704711F0804F21D113F1C0
:100BE0003872BCBF01F00040704741F480114FEAF9
:100BF0005252C2F11802C2F1200C10FA0CF320FA82
:100C000002F018BF40F001004FEAC1234FEAD3239E
:100C100003FA0CFC40EA0C0023FA02F34FEA430308
:100C2000CCE77FEA625307D150EA01331EBF4FF091
:100C3000FE4040F44000704701F0004040F0FE40AC
:100C400040F40000704700BF10B50146054CC4F8E1
:100C50001004204600F099F80023C4F80C34C4F8BE
:100C6000143410BDF001002070B501460D4C204633
:100C700000F0B3F8D4F80C3403B170BD204600F096
:100C8000D6F885B2C4F814540123C4F80C34D4F84F
:100C90001064204600F0D7F82A462118304603F0A9
:100CA000A3FAEAE7F001002010B5044602E001349F
:100CB000FFF7DAFF20780028F9D110BD134BD3F8E5
:100CC0001034834200D0704770B5104CD4F814141F
:100CD000204600F0BBF8204600F0A9F884B224B901
:100CE0000A4B0022C3F80C2470BD084DC5F814440B
:100CF0000123C5F80C34D5F81064284600F0A3F899
:100D000022462918304603F06FFAEDE7F001002083
:100D100010B50146064CC4F80C04204600F035F826
:100D2000B4F800242146D4F80C0403F035FF10BDBC
:100D30000806002000B583B00BE00D48B0F80014A1
:100D4000D0F80C345B6F1B685B68C91A89B200F07D
:100D500091F8074800F05AF80028EED00DF107018D
:100D6000034800F020F89DF8070003B05DF804FB8D
:100D700008060020B0F80034D0F80824526F12683A
:100D800052689B1AA0F8023470474FF48063A0F8B1
:100D900000340023A0F80234A0F80434A0F806348C
:100DA000C0F80814704738B504460D46FFF7E2FF57
:100DB000B4F80424B4F802349A420CD0531C9BB209
:100DC000B4F80014994200D80023A25C2A70A4F859
:100DD0000434002038BD0120FCE7B0F80224531C85
:100DE0009BB2B0F800C49C4500D80023B0F804C4FE
:100DF0009C4504D08154A0F8023400207047B0F81C
:100E000006340133A0F806340120704710B50446BB
:100E1000FFF7B0FFB4F80234B4F80404834201D3FE
:100E2000181A10BDB4F800241344181AF9E7B0F8E2
:100E30000224B0F804349A4201D3D01A7047B0F8B3
:100E40000024D01A7047B0F80404704703E001335F
:100E5000A0F80434013900290BDDB0F8043403F1A3
:100E6000010CB0F800249445F1DB0023A0F8043411
:100E7000F0E77047A0F802147047024600231846B6
:100E800002E052080133DBB20F2B05D812F0010F3C
:100E9000F7D00130C0B2F4E700F001007047000065
:100EA00030B583B040F48044ADF806402046FFF7EB
:100EB000E4FF44EAC034ADF806400024ADF8044035
:100EC000224610214FF0904002F052F9134D4FF09E
:100ED000FF3301220DF10601284602F076FD0122C2
:100EE00010214FF0904002F043F9224610214FF0BC
:100EF000904002F03DF94FF0FF33012201A928464E
:100F000002F0D8FF012210214FF0904002F030F99A
:100F1000BDF80400C0F30D0003B030BDEC1D00208F
:100F200008B543F6FF70FFF7BBFF00B208BD000035
:100F300010B50446FFF7F4FF001BC0F30C02C0F32A
:100F40004B00054BA3FB0030400A40F2924303FBE9
:100F5000102080B210BD00BFE1000EE030B583B0BC
:100F600007EE901AF8EEE77A284B83FB0012024452
:100F700012124FF4B47C0CFB1202254C04EB8202DB
:100F800092ED007A27EE877A37EE877ABCEEC77A41
:100F900017EE102A91B2ADF8001000F1780E83FB25
:100FA0000E52724412120CFB12E204EB820292ED1A
:100FB000007A27EE877A37EE877ABCEEC77A17EE8B
:100FC000102A92B2ADF80220F03083FB00E3034414
:100FD0001B120CFB130304EB830494ED007A27EE41
:100FE000877A77EE877AFCEEE77A17EE903A9BB233
:100FF000ADF80430074800684163074909684A634F
:10100000064A12681364C36303B030BDB7600BB601
:10101000200A0020981D0020681C0020001D0020D0
:10102000F3EE016AC0EE267A9FED147A67EE877AB6
:10103000FDEEE77A17EE903A03F50071C0EEA67A5E
:1010400067EE877AFDEEE77A17EE903A03F50072C5
:10105000C1EE267A67EE877AFDEEE77A17EE903AD0
:1010600003F50073064800684163064909684A634E
:10107000054A12681364C363704700BF00C07F4411
:10108000981D0020681C0020001D00200146164B02
:10109000A3FB00239B0903F13002144802704FF4B4
:1010A0007A7202FB131292B2114BA3FB02C25209D5
:1010B00030324270A3FB01235B09642202FB13134D
:1010C0009BB20C4AA2FB03C3DB0830338370A2FB44
:1010D0000123DB0803EB8303A1EB43013031C17033
:1010E00000230371704700BFD34D6210180A00201F
:1010F0001F85EB51CDCCCCCC08B5FFF7DFFD08BD8B
:1011000010B50446C0B2FFF7AFFD204610BD08B5CC
:10111000FFF710FE08BD72B6FEE700B597B02822B3
:1011200000210CA804F0DCFB00230793089309932B
:101130000A930B93019302930393049305930693ED
:1011400002230C93012210921022119213934FF458
:10115000C01315930CA801F01FFAC8B90F23079309
:1011600002230893002309930A930B93012107A8F4
:1011700001F054FD70B941F2010301930023039380
:10118000069301A801F050FE30B917B05DF804FBDA
:10119000FFF7C1FFFFF7BFFFFFF7BDFF0000000033
:1011A0002DE9D0432DED028B01F0BEF9FFF7B5FF1D
:1011B00000F036F903F012FD00F0A6FA00F0B4FBDF
:1011C00000F018FB00F056FB00F074F902F0E4F9AF
:1011D00002F044FF804C23680021586804F0A0F915
:1011E00023680021986804F09BF923680021D868DF
:1011F00004F096F9794C2046FFF726FD2046FFF7CC
:1012000087FD774C0021204600F0C2FF00212046D8
:1012100001F072F8734E0021304600F0B9FF002152
:10122000304601F069F80C216F4800F0B1FF082149
:10123000204601F061F800216C4800F0A9FF6C48DD
:1012400000F042FD002202216A4801F091FF0024D3
:1012500021E02046FFF766F90022674BFFF7CCF943
:1012600053A3D3E90023FFF7F1FA53A3D3E90023F3
:10127000FFF7C2F90022614BFFF7E8FA41EC100BCF
:1012800006F032FA51EC100BFFF78EFC5C4B03EBCF
:1012900084031860013440F291439C42D9DD5948DF
:1012A000FFF702FD5848FFF7FFFC32210020FFF74F
:1012B00055FE4FF4FA7001F05BF9FFF731FEFFF7CE
:1012C0002FFE04465148FFF7EFFCA0B2FFF7DEFE09
:1012D000FFF7EAFC4E48FFF7E7FC4E48FFF7E4FC57
:1012E0002046FFF725FE464901EB800393ED007A87
:1012F0009FED496A27EE065A00F26D30474A82FB9D
:1013000000320244C317C3EBA22340F2924202FB15
:10131000130301EB8301D1ED007AF2EE006A67EE70
:10132000A65A67EE867A27EE267A37EE878A75EE1A
:10133000657A17EE900AFFF707F906460F4620A3D5
:10134000D3E90023FFF758F9FFF72EFC08EE900AC7
:101350001DA3D3E9002330463946FFF74DF9064671
:101360000F4618EE100AFFF7EFF819A3D3E9002390
:10137000FFF742F98046894602460B463046394619
:10138000FEF784FFFFF710FC08EE100A42464B46BA
:1013900030463946FEF778FFFFF706FC01EE100AEB
:1013A000F0EE480AB0EE680AFFF73AFE98E700BF91
:1013B0000000000000489240182D4454FB210940D1
:1013C000C9AA8C6FBD20EA3FC9AA8C6FBD20DABFC5
:1013D0003E9865669EA0E63F18000020D81E0020BB
:1013E000981D0020681C0020001D00204C1D0020BE
:1013F000B41C002000040048008076400080664055
:10140000200A002060870008708700088487000891
:10141000908700089487000800000000E1000EE0BB
:1014200070B588B00024039404940594069407943E
:101430001E4B5A6942F480025A615A6902F48002D2
:101440000092009A5A6942F400325A615A6902F4D1
:1014500000320192019A5A6942F480225A615B6912
:1014600003F480230293029B224610214FF0904008
:1014700001F07EFE0E4D22460221284601F078FE44
:1014800010230393012604960594069403A94FF0B4
:10149000904001F08FFD0223039304960594069477
:1014A00003A9284601F086FD08B070BD0010024077
:1014B0000004004800B585B0002301930293039314
:1014C0000E480F4A02600722426083604FF6FF72A7
:1014D000C260836100F07EFC50B900230193039346
:1014E00001A9064800F07AFF28B905B05DF804FBB1
:1014F000FFF711FEF1E7FFF70EFEF6E7B41C002040
:101500000010004082B003680F4A934204D0B3F148
:10151000804F0CD002B070470C4B9A6942F40062C5
:101520009A619B6903F400630093009BF2E703F563
:101530000433DA6942F00102DA61DB6903F0010386
:101540000193019BE6E700BF002C01400010024020
:1015500084B00368154A934207D0154A93420FD0CE
:10156000144A934217D004B07047134BDA6942F023
:101570000202DA61DB6903F002030193019BF2E7E7
:101580000D4BDA6942F01002DA61DB6903F01003F7
:101590000293029BE7E7084B9A6942F400329A6192
:1015A0009B6903F400330393039BDCE700040040D2
:1015B00000100040004401400010024030B58DB0E2
:1015C00000230793089309930A930B930368484AEF
:1015D00093420AD0B3F1804F32D0464A934247D06B
:1015E000454A934259D00DB030BD444B5A6942F43C
:1015F00080025A615A6902F480020192019A5A6982
:1016000042F400325A615B6903F400330293029B97
:10161000012307930225089506240B9407A938484F
:1016200001F0C8FC4FF41063079308950023099359
:101630000A930B9407A94FF0904001F0BBFCD2E74E
:1016400003F504335A6942F400325A615B6903F4CA
:1016500000330393039B4FF4004307930223089343
:1016600001230B9307A94FF0904001F0A3FCBAE7C8
:10167000224B5A6942F480225A615B6903F4802349
:101680000493049B80230793022308930A230B935C
:1016900007A91C4801F08EFCA5E7184B5A6942F4D3
:1016A00000325A615A6902F400320592059A5A6969
:1016B00042F480225A615B6903F480230693069BFF
:1016C0004FF4805307930225089501240B9407A932
:1016D0004FF0904001F06EFC4023079308950023E3
:1016E00009930A930B9407A9064801F063FC7AE773
:1016F000002C014000040040004401400010024062
:10170000001400480004004810B596B0002413945B
:10171000149415940C940D940E940F9410941194A9
:1017200012942C22214601A804F0DAF82E482F4BFF
:1017300003604460846040F2FF33C360046144612D
:10174000846100F077FB00283FD12023139300230E
:1017500014938023159313A9234800F03FFE00281B
:1017600036D1234B0C9300220D920E920F9204233C
:101770001093119212920CA91B4800F0C9FB50BBA8
:1017800060230C9308220F92002310930CA9164893
:1017900000F0BEFB10BB002301930293039304935C
:1017A00005934FF400520692079308934FF000728E
:1017B00009920A930B9301A90B4800F04BFE80B9E4
:1017C0000948FFF7FBFE16B010BDFFF7A4FCBCE70D
:1017D000FFF7A1FCC5E7FFF79EFCD1E7FFF79BFCF5
:1017E000D9E7FFF798FCEBE7981D0020002C01409B
:1017F0006000010000B58BB00023079308930993A4
:10180000009301930293039304930593069318485E
:101810004FF0804202604360836040F2FF32C2605A
:101820000361836100F006FBC0B9002307930993AD
:1018300007A90F4800F0D2FD98B960230093002259
:101840000192029204926946094800F061FB58B97E
:101850000748FFF7B3FE0BB05DF804FBFFF75BFC36
:10186000E3E7FFF758FCE8E7FFF755FCF0E700BFB8
:101870004C1D002000B591B000230B930C930D93E9
:101880000E930F93089309930A9301930293039382
:1018900004930593069307932148224A026043600C
:1018A000836040F2FF32C2600361836100F092FA0C
:1018B00030BB1B4800F0BEFA28BB06230B93002365
:1018C0000C930BA9164800F02BFCF8B900230893E1
:1018D0000A9308A9124800F081FDD0B96023019352
:1018E00000230293039305930C2201A90C4800F0F6
:1018F0000FFB88B90A48FFF761FE11B05DF804FBE1
:10190000FFF709FCD5E7FFF706FCD6E7FFF703FC76
:10191000DCE7FFF700FCE1E7FFF7FDFBEAE700BFCC
:10192000001D00200004004010B592B000240B946C
:101930000C940D940E940F94109411942C22214623
:10194000684603F0CDFF2048204B0360446084606C
:1019500040F2FF33C36004614461846100F03AFAED
:1019600030BB194800F066FA28BB60230B930022B5
:101970000C920D920E920F92109211920BA9124896
:1019800000F0C6FAD0B900230093019302930393A9
:1019900004934FF40052059206930A9369460A484D
:1019A00000F058FD68B90848FFF708FE12B010BDF6
:1019B000FFF7B1FBD5E7FFF7AEFBD6E7FFF7ABFBD1
:1019C000E1E7FFF7A8FBEEE7681C002000440140B8
:1019D000FEE7FEE7FEE7FEE7FEE770477047704769
:1019E00008B500F0B3FD08BD08B5024801F09AFC47
:1019F00008BD00BF501E002008B5024801F092FC4F
:101A000008BD00BF941E002008B5024802F0AAFCE1
:101A100008BD00BFD81E002082B00A4B9A6942F070
:101A200001029A619A6902F001020092009ADA6951
:101A300042F08052DA61DB6903F080530193019B2D
:101A400002B070470010024030B4026A036A23F00B
:101A5000010303624468836923F4803323F0730332
:101A60000D681D4322F002028B681343184A90420E
:101A70000BD002F5A052904207D002F5806290424E
:101A800003D002F58062904205D123F00803CA68B2
:101A90001A4322F004030E4A90420BD002F5A052E2
:101AA000904207D002F58062904203D002F5806236
:101AB000904205D124F440744A6922438C6914434E
:101AC000446085614A684263036230BC704700BF6E
:101AD000002C014030B4036A026A22F48072026270
:101AE0004268C46924F4803C2CF0730C0C6844EA0E
:101AF0000C0523F400738C6843EA0423124CA042C3
:101B00000BD0124CA0420FD004F58064A0420BD041
:101B100004F58064A0420FD106E023F40063CC6892
:101B200043EA042323F4806322F440524C6942EADE
:101B300004128C6942EA04124260C5614A68C263B9
:101B4000036230BC704700BF002C014000400140E0
:101B500030B4026A036A23F4805303624468C369A1
:101B600023F0807323F4E6430D6843EA052322F44F
:101B700000528D6842EA05320D4DA8420BD005F5A2
:101B8000A055A84207D005F58065A84203D005F509
:101B90008065A84204D124F480444D6944EA851448
:101BA0004460C3614B680364026230BC704700BF8D
:101BB000002C014030B4036A026A22F480320262CF
:101BC0004468426D22F4803222F070020D682A438C
:101BD00023F400338D6843EA05430D4DA8420BD032
:101BE00005F5A055A84207D005F58065A84203D0A9
:101BF00005F58065A84204D124F480344D6944EA97
:101C00000524446042654A688265036230BC7047BF
:101C1000002C014030B4026A036A23F4801303628B
:101C20004468436D23F0807323F4E0430D6843EA76
:101C3000052322F400128D6842EA05520D4DA84298
:101C40000BD005F5A055A84207D005F58065A84240
:101C500003D005F58065A84204D124F480244D69A1
:101C600044EA8524446043654B68C365026230BC26
:101C7000704700BF002C014010B4036A046A24F0CE
:101C800001040462846924F0F00C4CEA021223F08F
:101C90000A030B43826103625DF8044B704710B482
:101CA000036A046A24F010040462846924F4704C0A
:101CB0004CEA023223F0A00343EA0113826103627B
:101CC0005DF8044B7047000090F83D30DBB2012B0B
:101CD00025D1022380F83D300368144A934210D086
:101CE000B3F1804F0DD0A2F59432934209D002F5A2
:101CF0009E32934205D01A6842F001021A60002019
:101D0000704799680A4A0A40062A0AD0B2F5803F0D
:101D100009D01A6842F001021A60002070470120C1
:101D20007047002070470020704700BF002C014022
:101D3000070001000368264A904206D0B0F1804FA8
:101D400003D0A2F59432904203D123F070034A6885
:101D500013431F4A904212D0B0F1804F0FD0A2F52A
:101D6000943290420BD002F59E32904207D002F599
:101D70008062904203D002F58062904203D123F446
:101D80004073CA68134323F080034A691343036016
:101D90008B68C3620B6883620D4B98420BD003F5CE
:101DA000A053984207D003F58063984203D003F50F
:101DB0008063984201D10B69036301234361036986
:101DC00013F0010F03D0036923F00103036170478F
:101DD000002C014060B310B5044690F83D3013B3B9
:101DE000022384F83D30214651F8040BFFF7A2FF8F
:101DF000012384F8483084F83E3084F83F3084F87A
:101E0000403084F8413084F8423084F8433084F81C
:101E1000443084F8453084F8463084F8473084F8FC
:101E20003D30002010BD80F83C30FFF791FBD7E734
:101E30000120704760B310B5044690F83D3013B3ED
:101E4000022384F83D30214651F8040BFFF772FF5E
:101E5000012384F8483084F83E3084F83F3084F819
:101E6000403084F8413084F8423084F8433084F8BC
:101E7000443084F8453084F8463084F8473084F89C
:101E80003D30002010BD80F83C30FFF73BFBD7E72A
:101E90000120704730B4036A026A22F01002026225
:101EA0004268846924F0807C2CF4E64C0C684CEA8F
:101EB000042423F020038D6843EA0513124DA84241
:101EC0000BD0124DA8420FD005F58065A8420BD06B
:101ED00005F58065A8420FD106E023F08003CD68A8
:101EE00043EA051323F0400322F440624D6942EABD
:101EF00085028D6942EA8502426084614A68826394
:101F0000036230BC704700BF002C0140004001401C
:101F100038B590F83C30012B00F0958004460D4612
:101F2000012380F83C30142A00F28880DFE802F0B8
:101F30000B8686861F8686863486868648868686B3
:101F40005D86868671000068FFF77EFD22689369D2
:101F500043F0080393612268936923F004039361BB
:101F60002268936929690B439361002067E0006848
:101F7000FFF790FF2268936943F40063936122683E
:101F8000936923F48063936122689369296943EA22
:101F900001239361002052E00068FFF79BFD226857
:101FA000D36943F00803D3612268D36923F00403A3
:101FB000D3612268D36929690B43D36100203EE0D5
:101FC0000068FFF7C5FD2268D36943F40063D3615D
:101FD0002268D36923F48063D3612268D3692969B5
:101FE00043EA0123D361002029E00068FFF7E2FD06
:101FF0002268536D43F0080353652268536D23F044
:10200000040353652268536D29690B43536500200F
:1020100015E00068FFF7FEFD2268536D43F400638E
:1020200053652268536D23F4806353652268536DB2
:10203000296943EA01235365002000E001200023C1
:1020400084F83C3038BD0220FCE710B4846824F4E6
:102050007F4C42EA03220A4342EA0C0282605DF8A6
:10206000044B704710B50468A26822F070024B68F8
:10207000134323F4803323F007030A681A43A26052
:102080004B68502B32D00BD9602B36D0702B43D1FC
:102090000B698A68C9680068FFF7D7FF00200FE066
:1020A000402B0ED001D901200AE0202B2CD003D9DF
:1020B000302B2FD1002003E043B3102B28D1002078
:1020C00010BD0B68052B29D003681C6A1A6A22F020
:1020D00001021A620268936923F0F003096943EA76
:1020E0000113936103681C620020E9E70A698968AB
:1020F0000068FFF7C1FD0020E2E70A69896800680F
:10210000FFF7CDFD0020DBE70020D9E70020D7E76F
:102110000120D5E70120D3E70120D1E70120CFE757
:1021200090F83C30012B22D010B50446012380F8F2
:102130003C30022380F83D30FFF794FF80B92268DD
:10214000D36823F04003D3602268D36823F480432C
:10215000D360012384F83D30002384F83C3010BD67
:10216000012084F83D00002384F83C30F7E702208A
:10217000704701F01F014FF0010C0CFA01FC036ADB
:1021800023EA0C030362036A8A4013430362704725
:1021900010B5044610293CD8DFE801F0093B3B3B71
:1021A0001F3B3B3B263B3B3B2D3B3B3B340090F8EE
:1021B0003E30DBB2013B18BF0123002B40F0828090
:1021C00010296DD8DFE801F02C6C6C6C5C6C6C6CC9
:1021D000606C6C6C646C6C6C680090F83F30DBB2C7
:1021E000013B18BF0123E8E790F84030DBB2013B28
:1021F00018BF0123E1E790F84130DBB2013B18BF83
:102200000123DAE790F84230DBB2013B18BF01232B
:10221000D3E790F84330DBB2013B18BF0123CCE792
:10222000022384F83E3001222068FFF7A2FF2368D2
:10223000274A93420BD002F5A052934207D002F5F1
:102240008062934203D002F58062934203D15A6CBC
:1022500042F400425A6423681D4A934224D0B3F1E9
:10226000804F21D0A2F5943293421DD002F59E32C8
:10227000934219D01A6842F001021A60002022E04D
:10228000022384F83F30CEE7022384F84030CAE7C7
:10229000022384F84130C6E7022384F84230C2E7C3
:1022A000022384F84330BEE799680A4A0A40062AA6
:1022B0000AD0B2F5803F09D01A6842F001021A60D4
:1022C000002000E0012010BD0020FCE70020FAE71C
:1022D000002C01400700010001F00F014FF0040C39
:1022E0000CFA01FC036A23EA0C030362036A8A40C6
:1022F000134303627047000010B50446084659BBFB
:1023000094F84430DBB2013B18BF0123002B5AD1B3
:1023100000283AD1022384F8443004220146206880
:10232000FFF7DAFF2268536C43F4004353642368D9
:10233000284A934239D0B3F1804F36D0A2F5943277
:10234000934232D002F59E3293422ED01A6842F068
:1023500001021A60002037E0042908D008290DD0B6
:1023600094F84730DBB2013B18BF0123CEE794F865
:102370004530DBB2013B18BF0123C7E794F8463074
:10238000DBB2013B18BF0123C0E7042805D00828B1
:1023900007D0022384F84730BFE7022384F8453092
:1023A000BBE7022384F84630B7E799680A4A0A4037
:1023B000062A0AD0B2F5803F09D01A6842F001021D
:1023C0001A60002000E0012010BD0020FCE7002082
:1023D000FAE700BF002C01400700010090F83C2004
:1023E000012A33D030B40346012280F83C20022277
:1023F00080F83D20006842688468154DA84220D0CE
:1024000022F070020D682A4342601A681048824226
:102410000AD0B2F1804F07D0A0F59430824203D0A9
:1024200000F59E30824204D124F080048968214363
:102430009160012283F83D20002083F83C0030BCED
:10244000704722F470024D682A43D9E70220704792
:10245000002C014090F83C30012B3BD010B40246D8
:10246000012380F83C30CB6823F440738868034331
:1024700023F480634868034323F40063086803433C
:1024800023F480530869034323F40053486903434A
:1024900023F48043886A034323F47023886943EA62
:1024A000004310680C4CA04206D04364002082F820
:1024B0003C005DF8044B704723F470034C6A43EA18
:1024C000045323F08073CC69234323F00073096A1B
:1024D0000B43EAE702207047002C014010B5044688
:1024E0000E4B1A784FF47A73B3FBF2F30C4A106870
:1024F000B0FBF3F000F0D4FF68B90F2C01D9012034
:102500000AE0002221464FF0FF3000F0ABFF054B00
:102510001C60002000E0012010BD00BF0000002072
:10252000080000200400002008B5074A136843F0A3
:1025300010031360032000F083FF0020FFF7CEFF9D
:10254000FFF76AFA002008BD00200240034A116824
:10255000034B1B780B441360704700BFE41D002041
:1025600000000020014B1868704700BFE41D0020E8
:1025700038B50446FFF7F6FF0546B4F1FF3F02D039
:10258000044B1B781C44FFF7EDFF401BA042FAD31D
:1025900038BD00BF00000020002800F0FF8270B5A9
:1025A00082B00446036813F0010F3BD0B44B5B6864
:1025B00003F00C03042B1ED0B14B5B6803F00C033B
:1025C000082B13D06368B3F5803F68D0002B40F030
:1025D000928003F1804303F504331A6822F48032B9
:1025E0001A601A6822F480221A605DE0A44B5B68CE
:1025F00013F4803FE6D04FF4003393FAA3F3A04BDB
:1026000019684FF4003393FAA3F3B3FA83F303F09A
:102610001F03012202FA03F30B4203D06368002B6D
:1026200000F0BE82236813F0020F00F0C480944BC8
:102630005B6813F00C0F00F09C80914B5B6803F01B
:102640000C03082B00F08F802369002B00F0F08032
:10265000012292FAA2F3B3FA83F303F1845303F550
:1026600084139B001A60FFF77DFF0546022393FA4F
:10267000A3F3834B1968022393FAA3F3B3FA83F30A
:1026800003F01F03012202FA03F30B4240F0C28061
:10269000FFF768FF401B0228E8D9032089E2784A47
:1026A000136843F480331360754AD36A23F00F0331
:1026B000A1680B43D3626368002B36D0FFF752FF4B
:1026C00005464FF4003393FAA3F36D4B19684FF4AA
:1026D000003393FAA3F3B3FA83F303F01F03012249
:1026E00002FA03F30B429DD1FFF73CFF401B642825
:1026F000E7D903205DE2B3F5A02F09D0604B1A683B
:1027000022F480321A601A6822F480221A60CBE721
:1027100003F18043A3F53C331A6842F480221A6027
:102720001A6842F480321A60BEE7FFF71BFF0546C5
:102730004FF4003393FAA3F3514B19684FF400336D
:1027400093FAA3F3B3FA83F303F01F03012202FA0F
:1027500003F30B423FF466AFFFF704FF401B64280E
:10276000E6D9032025E2464B5B6813F4803F7FF4F3
:102770006BAF022393FAA3F3414B1968022393FA38
:10278000A3F3B3FA83F303F01F03012202FA03F366
:102790000B4203D02369934240F004823848036817
:1027A00023F0F8036169F82292FAA2F2B2FA82F2F7
:1027B00091400B430360236813F0080F00F08C80F6
:1027C000A369002B60D0012191FAA1F2B2FA82F242
:1027D0002C4B13449B001960FFF7C4FE05460223EF
:1027E00093FAA3F293FAA3F293FAA3F2244A516A5A
:1027F00093FAA3F3B3FA83F303F01F03012202FA5F
:1028000003F30B4268D1FFF7ADFE401B0228E6D967
:102810000320CEE11A48036823F0F8036169F82227
:1028200092FAA2F2B2FA82F291400B430360C2E73D
:10283000012393FAA3F3B3FA83F303F1845303F56B
:1028400084139B0000221A60FFF78CFE05460223CA
:1028500093FAA3F30A4B1968022393FAA3F3B3FA8A
:1028600083F303F01F03012202FA03F30B42A2D009
:10287000FFF778FE401B0228E9D9032099E100BF49
:102880000010024020819010012292FAA2F2B2FAC6
:1028900082F2B74B13449B0000221A60FFF762FEDE
:1028A0000546022393FAA3F293FAA3F293FAA3F252
:1028B000B04A516A93FAA3F3B3FA83F303F01F0308
:1028C000012202FA03F30B4206D0FFF74BFE401B36
:1028D0000228E6D903206CE1236813F0040F00F00E
:1028E000A980A44BDB6913F0805F20D1A14BDA698A
:1028F00042F08052DA61DB6903F080530193019B5F
:1029000001259D4B1B6813F4807F12D0E368012BD7
:1029100023D073BB03F1804303F504331A6A22F01A
:1029200001021A621A6A22F004021A621AE00025F1
:10293000E7E7914A136843F480731360FFF712FED0
:1029400006468D4B1B6813F4807FDFD1FFF70AFE2C
:10295000801B6428F5D903202BE1864A136A43F0D3
:1029600001031362E368002B3CD0FFF7FBFD064632
:102970002EE0052B09D07F4B1A6A22F001021A6261
:102980001A6A22F004021A62ECE77A4B1A6A42F0E1
:1029900004021A621A6A42F001021A62E2E7022392
:1029A00093FAA3F3734B596A022393FAA3F3B3FA8E
:1029B00083F303F01F03012202FA03F3194238D113
:1029C000FFF7D0FD801B41F28833984200F2EC8083
:1029D000022393FAA3F293FAA3F3002BDFD0654B03
:1029E000196AE1E7FFF7BEFD064618E0022393FAF5
:1029F000A3F3604B596A022393FAA3F3B3FA83F368
:102A000003F01F03012202FA03F3194211D0FFF76A
:102A1000A9FD801B41F28833984200F2C78002234F
:102A200093FAA3F293FAA3F3002BDFD0514B196A68
:102A3000E1E7B5BBE369002B00F0BA804D4A52686C
:102A400002F00C02082A00F09980022B2FD04FF0E0
:102A5000807393FAA3F3B3FA83F303F1845303F57A
:102A600084139B0000221A60FFF77CFD04464FF0A0
:102A7000007393FAA3F33F4B19684FF0007393FA76
:102A8000A3F3B3FA83F303F01F03012202FA03F363
:102A900019426BD0FFF766FD001B0228E7D903201F
:102AA00087E0344AD36923F08053D361C2E74FF003
:102AB000807393FAA3F3B3FA83F303F1845303F51A
:102AC00084139B0000221A60FFF74CFD05464FF06F
:102AD000007393FAA3F3274B19684FF0007393FA2E
:102AE000A3F3B3FA83F303F01F03012202FA03F303
:102AF000194206D0FFF736FD401B0228E7D9032014
:102B000057E01C494B6823F47413626A206A02433D
:102B100013434B604FF0807393FAA3F3B3FA83F33C
:102B200003F1845303F584139B0001221A60FFF71D
:102B300019FD04464FF0007393FAA3F30D4B196887
:102B40004FF0007393FAA3F3B3FA83F303F01F0378
:102B5000012202FA03F3194206D1FFF703FD001B1D
:102B60000228E7D9032024E0002022E0002020E012
:102B7000208190100010024000700040012B1AD0FC
:102B8000104B5B6803F48031226A914215D103F443
:102B90007013626A934212D100200AE0012070474C
:102BA000012006E0012004E0032002E0032000E011
:102BB000002002B070BD0120FBE70120F9E70120F1
:102BC000F7E700BF001002400F4B5B6803F00C02F8
:102BD000082A01D00D487047C3F383420C49885C32
:102BE000094AD26A02F00F020A498A5C13F4803F54
:102BF00005D0064BB3FBF2F303FB00F07047064B26
:102C000003FB00F0704700BF0010024000127A0082
:102C1000B8870008A887000800093D00002800F0D8
:102C2000BE8070B50D460446614B1B6803F0070378
:102C30008B420BD25E4A136823F007030B431360E9
:102C4000136803F007038B4240F0AB80236813F056
:102C5000020F06D0574A536823F0F003A1680B43D4
:102C60005360236813F0010F5AD06368012B2DD0F5
:102C7000022B40D0022292FAA2F24E4A106802229F
:102C800092FAA2F2B2FA82F202F01F02012101FAD4
:102C900002F2104200F0878046494A6822F003029F
:102CA00013434B60FFF75EFC0646424B5B6803F044
:102CB0000C036268B3EB820F32D0FFF753FC801B2A
:102CC00041F288339842F0D9032067E04FF4003294
:102CD00092FAA2F2374A10684FF4003292FAA2F246
:102CE000B2FA82F202F01F02012101FA02F202425C
:102CF000D2D1012052E04FF0007292FAA2F22D4A96
:102D000010684FF0007292FAA2F2B2FA82F202F068
:102D10001F02012101FA02F21042BDD101203DE063
:102D2000234B1B6803F00703AB420AD9204A136800
:102D300023F007032B431360136803F00703AB4230
:102D400033D1236813F0040F06D01A4A536823F4D2
:102D5000E063E1680B435360236813F0080F07D06A
:102D6000144A536823F46053216943EAC103536052
:102D7000FFF72AFF0F4B5B6803F0F003F02292FA93
:102D8000A2F2B2FA82F2D3400B4AD35CD8400B4B8A
:102D900018600B4B1868FFF7A1FB002070BD0120E5
:102DA00070470120FAE70120F8E70120F6E700BFAD
:102DB0000020024000100240D087000808000020D8
:102DC00004000020014B1868704700BF0800002075
:102DD00008B5FFF7F7FF074B5B6803F4E0634FF4B8
:102DE000E06292FAA2F2B2FA82F2D340024AD35CD3
:102DF000D84008BD00100240C887000808B5FFF79A
:102E0000E1FF074B5B6803F460534FF4605292FAA2
:102E1000A2F2B2FA82F2D340024AD35CD84008BD93
:102E200000100240C8870008F0B583B0044603686C
:102E300013F4803F44D05C4BDB6913F0805F6DD1AD
:102E4000594BDA6942F08052DA61DB6903F0805352
:102E50000193019B0125554B1B6813F4807F5FD0C4
:102E6000514B1B6A13F4407321D0626802F4407224
:102E70009A421CD04C48016A21F440764FF48033CA
:102E800093FAA3F2B2FA82F2494F3A4492004FF019
:102E9000010CC2F800C093FAA3F3B3FA83F33B44E6
:102EA0009B0000221A60066211F0010F4CD13E4ACD
:102EB000136A23F4407361680B431362002D69D1D8
:102EC000236813F0010F06D0374A136B23F0030376
:102ED000A1680B431363236813F0200F06D0324A16
:102EE000136B23F01003E1680B431363236813F0A3
:102EF000800F06D02C4AD36A23F4F87321690B4360
:102F0000D362236813F4805F4BD0274A136B23F4FA
:102F1000807361690B431363002043E000259AE747
:102F2000224A136843F480731360FFF71BFB0646C5
:102F30001E4B1B6813F4807F92D1FFF713FB801B9D
:102F40006428F5D903202DE0FFF70CFB064617E0B7
:102F5000022393FAA3F3144B596A022393FAA3F3BF
:102F6000B3FA83F303F01F03012202FA03F30B42C7
:102F70009DD1FFF7F7FA801B41F2883398420ED8B3
:102F8000022393FAA3F293FAA3F3002BE0D0064BAB
:102F9000196AE2E7D36923F08053D36190E70320F5
:102FA00000E0002003B0F0BD0010024000700040BF
:102FB00000819010F0B583B0002362E085685E0068
:102FC0000324B44025EA0405CC68B4402C43846053
:102FD000456825EA0C054C68C4F300149C402C435A
:102FE00044605FE0DD08083550F8254003F0070C29
:102FF0004FEA8C0C4FF00F0E0EFA0CFE24EA0E0E68
:103000000C6904FA0CF444EA0E0440F8254060E030
:10301000032400E0002404FA0EF42C430CF1020C0B
:103020004F4D45F82C404F4CA568D44325EA020685
:103030004F6817F4801F01D042EA0506494DAE6083
:10304000ED6804EA05064F6817F4001F01D042EA54
:103050000506444DEE606D6804EA05064F6817F4F6
:10306000003F01D042EA05063E4D6E602D682C40BF
:103070004E6816F4803F01D042EA0504394A1460D4
:1030800001330A6832FA03F468D04FF0010C0CFAED
:1030900003FC1CEA0202F3D04C6804F00304013C78
:1030A000012C8BD94C6804F00304032C0CD0C468A9
:1030B0005D004FF0030C0CFA05FC24EA0C0C8C6844
:1030C000AC4044EA0C04C4604C6804F00304022CD5
:1030D00088D004684FEA430E4FF0030C0CFA0EFC44
:1030E00024EA0C0C4C6804F0030404FA0EF444EADD
:1030F0000C0404604C6814F4403FC1D01A4CA5691C
:1031000045F00105A561A46904F001040194019C46
:103110004FEA930C0CF10205114C54F8255003F0C2
:10312000030E4FEA8E0E0F2404FA0EF425EA04056E
:10313000B0F1904F3FF46EAF0C4CA0420AD004F5B2
:103140008064A04208D004F58064A0423FF460AFE0
:10315000052460E701245EE702245CE703B0F0BDCC
:10316000000001400004014000100240000400483B
:103170000AB1816170478162704730B40124056CE7
:10318000AC40C56B6C60046863604368102B05D06D
:10319000036899600368DA6030BC704703689A601E
:1031A0000368D960F8E700000268054B1344054A3C
:1031B000A2FB03231B099B000364034BC3637047FB
:1031C000F8FFFDBFCDCCCCCC0000024020B310B541
:1031D0000446022380F8213001680A6822F47F52F5
:1031E00022F03002436880680343E06803432069AB
:1031F000034360690343A0690343E0690343134346
:103200000B602046FFF7D0FF0020A063012384F865
:10321000213084F8200010BD0120704738B50446E5
:1032200090F82000012831D0012084F8200094F883
:103230002100012804D0002384F82030022038BD6A
:10324000022084F821000020A0632568286820F06F
:10325000010028602046FFF790FFE36A5BB1226817
:10326000136843F00E0313602268136843F00103F0
:1032700013600020E3E72268136843F00A03136039
:103280002268136823F004031360EDE70220D6E7F9
:10329000034600B390F82120022A06D0042282635C
:1032A000002280F820200120704701680A6822F07F
:1032B0000E020A6001680A6822F001020A60026CCC
:1032C000C06B012101FA02F2426083F82110002054
:1032D00083F8200070470120704708B590F821302E
:1032E000022B03D004238363012008BD0268136806
:1032F00023F00E0313600268136823F001031360C8
:10330000036CC16B012202FA03F34B6080F82120A9
:10331000002380F82030436B13B198470020E4E786
:103320000020E2E738B5C36B1A6804682568016CB1
:1033300004238B40134213D015F0040F10D02368E0
:1033400013F0200F03D1236823F004032360016CE2
:10335000C26B04238B405360C36A03B1984738BDE6
:1033600002238B4013421AD015F0020F17D02368A6
:1033700013F0200F06D1236823F00A0323600123F2
:1033800080F82130016CC26B02238B405360002314
:1033900080F82030836A002BE1D09847DFE70823CC
:1033A0008B401342DBD015F0080FD8D0236823F0F0
:1033B0000E032360026CC16B012303FA02F24A6020
:1033C000836380F82130002380F82030036B002BCA
:1033D000C5D09847C3E70000002808DB0901C9B23F
:1033E00000F1604000F5614080F80013704700F084
:1033F0000F000901C9B2014B1954704714ED00E0E8
:1034000000B500F00700C0F1070CBCF1040F28BFA5
:103410004FF0040C031D062B0FD9C31E4FF0FF3EC7
:103420000EFA0CF021EA000199400EFA03FE22EA9E
:103430000E0241EA02005DF804FB0023EEE7000003
:10344000074AD36823F4E0631B041B0C000200F45A
:10345000E060034343F0BF6343F40033D36070473D
:1034600000ED00E010B50446054BD868C0F302201B
:10347000FFF7C6FF01462046FFF7AEFF10BD00BFB5
:1034800000ED00E0002807DB00F01F0240090123E7
:103490009340024A42F82030704700BF00E100E04C
:1034A0000138B0F1807F0BD24FF0E0235861054A1C
:1034B000F02182F823100020986107221A617047DA
:1034C0000120704700ED00E0034AD2F8883043F451
:1034D0007003C2F88830704700ED00E010B5034675
:1034E0000C4A0D490D48006840B10C48006803447F
:1034F000521A934206D8094A136010BD0748084C77
:103500000460F2E702F01AFA0C2303604FF0FF3078
:10351000F3E700BF0030002000040000E81D002099
:10352000B02000200120704708B502F007FA1623EA
:1035300003604FF0FF3008BD08B54FF0FF31FFF7D3
:10354000F3FFFEE770B50C461646002506E0FDF7D2
:10355000DEFD214601F8010B01350C46B542F6DBD4
:10356000304670BD70B50C461646002504E014F8D0
:10357000010BFDF7C5FD0135B542F8DB304670BDE6
:103580004FF0FF3070474FF400534B6000207047FE
:10359000012070470020704708B51148114B0360A7
:1035A0004FF482734360002383604FF47062C26003
:1035B00002220261012242614FF4007282610822FC
:1035C000C2610362436283620722C2620363436390
:1035D00000F08CF900B908BDFDF79DFDFBE700BFC9
:1035E000EC1D00200030014000B589B0002303939A
:1035F00004930593069307930268144B9A4202D0F2
:1036000009B05DF804FB03F560439A6942F4805207
:103610009A619A6902F480520192019A5A6942F4BD
:1036200000325A615B6903F400330293029BE0238A
:10363000039302230493032306930523079303A90B
:103640004FF09040FFF7B6FCDAE700BF00300140D2
:103650002DE9F04782B00546884617461E46FEF71C
:1036600081FF0A9B1B1A03EB0609FEF77BFF8246CC
:10367000284B1B68C3F3CB3309FB03F301932B687F
:103680009C6838EA04040CBF01230023BB423DD0F0
:10369000B6F1FF3FF3D0FEF765FFA0EB0A00484507
:1036A00007D2019A02B14A46019B013B0193914620
:1036B000E5E72A68536823F0E00353606B68B3F5CD
:1036C000827F0BD0AB6AB3F5005F14D0012385F87D
:1036D0005D30002385F85C30032018E0AB68B3F55B
:1036E000004F02D0B3F5806FECD12A68136823F045
:1036F00040031360E6E72A68136823F4005313605D
:103700002A68136843F400531360DFE7002002B017
:10371000BDE8F087080000202DE9F04782B006469A
:103720000C4615461F4600238DF80330FEF71AFF9E
:103730000A9B1B1A03EB0708FEF714FF8146D6F815
:1037400000A0304B1B6803EB8303C3EBC3031B0DCB
:1037500008FB03F3019302E0B7F1FF3F12D1336896
:103760009B6803EA040CAC4547D0B4F5C06FF3D1B5
:10377000002DF1D19AF80C30DBB28DF803309DF8B2
:103780000330E9E7FEF7EEFEA0EB0900404507D263
:10379000019A02B14246019B013B01939046DEE74C
:1037A0003268536823F0E00353607368B3F5827F97
:1037B0000BD0B36AB3F5005F14D0012386F85D30F7
:1037C000002386F85C30032018E0B368B3F5004F9F
:1037D00002D0B3F5806FECD13268136823F0400358
:1037E0001360E6E73268136823F40053136032680D
:1037F000136843F400531360DFE7002002B0BDE814
:10380000F08700BF0800002070B582B004460D4666
:10381000164600920B4600224FF4C051FFF77CFF82
:10382000B0B900962B46002280212046FFF710FFFA
:10383000A8B900962B4600224FF4C0612046FFF73E
:103840006BFF50B1236E43F020032366032004E096
:10385000236E43F020032366032002B070BD236E65
:1038600043F0200323660320F7E770B582B00446D7
:103870000D4616464368B3F5827F0DD000962B4661
:10388000002280212046FFF7E3FE90B96368B3F57C
:10389000827F14D002B070BD8368B3F5004F02D0B0
:1038A000B3F5806FEAD12268136823F040031360F8
:1038B000E4E7236E43F0200323660320EAE7A368CE
:1038C000B3F5004F02D0B3F5806FE3D100962B46DD
:1038D00000224FF4C0612046FFF71EFF0028D9D018
:1038E000236E43F0200323660320D3E700286AD029
:1038F00010B50446436A33B94368B3F5827F05D0F7
:103900000023C36102E00023036143610023A3623B
:1039100094F85D30002B4DD0022384F85D3022688E
:10392000136823F040031360E368B3F5E06F47D9F1
:103930000022B3F5706F04D0B3F5E06F01D000231F
:10394000A362636803F48273A16801F404410B432A
:10395000216901F002010B43616901F001010B4390
:10396000A16901F400710B43E16901F038010B43D7
:10397000216A01F080010B43A16A01F40051206823
:103980000B430360638B03F00403616A01F01001D1
:103990000B43616B01F008010B43E16801F47061B6
:1039A0000B4321681A434A6000202066012384F8F3
:1039B0005D3010BD84F85C302046FFF715FEABE7A4
:1039C0004FF48052B5E7012070472DE9F04383B0F2
:1039D0001D4690F85C30012B00F0F48004468846C8
:1039E0009146012380F85C30FEF7BCFD074694F851
:1039F0005D60F6B2012E40F0DD80B8F1000F00F0FE
:103A0000DA80B9F1000F00F0D680032384F85D302E
:103A100000232366C4F83880A4F83C90A4F83E90B4
:103A20002364A4F84430A4F846302365E364A36813
:103A3000B3F5004F1ED023681A6812F0400F03D16F
:103A40001A6842F040021A60E368B3F5E06F44D9A7
:103A5000636813B1B9F1010F20D1A26B23681288FA
:103A6000DA60A36B0233A363E38F9BB2013B9BB28B
:103A7000E38713E02268136823F040031360226891
:103A8000136843F480431360D5E7FEF76BFDC01B5A
:103A9000A84202D3B5F1FF3F1AD1CDB1E38F9BB25B
:103AA000002B6FD023689A6812F0020FEDD0A26B42
:103AB0001288DA60A36B0233A363B4F83EC01FFA26
:103AC0008CFC0CF1FF3C1FFA8CFCA4F83EC0E5E72F
:103AD000012384F85D3003266DE0636813B1B9F10A
:103AE000010F32D1E38F9BB2012B0CD9A26B23685B
:103AF0001288DA60A36B0233A363E38F9BB2023BAD
:103B00009BB2E38721E0A26B236812781A73A36B40
:103B10000133A363E38F9BB2013B9BB2E38714E0C5
:103B2000A36B1B781373A36B0133A363E38F9BB267
:103B3000013B9BB2E38708E0FEF714FDC01BA842DF
:103B400002D3B5F1FF3F18D1BDB1E38F9BB2CBB12A
:103B50002268936813F0020FEED0E38F9BB2012B23
:103B6000DED9A36B1B88D360A36B0233A363E38FFF
:103B70009BB2023B9BB2E387E7E7012384F85D3009
:103B8000032618E03A4629462046FFF73DFE08B1D5
:103B900020232366A36833B901932368DA6801926E
:103BA0009B680193019B236E2BB9012384F85D3040
:103BB000002600E00226002384F85C30304603B083
:103BC000BDE8F0830226F9E72DE9F8431F46089D7A
:103BD00090F85C30012B00F06B81044688469146DA
:103BE000012380F85C30FEF7BDFC064694F85D309A
:103BF000DBB26268012B0AD0B2F5827F40F04681C9
:103C0000A268002A40F04881042B40F04781B8F1B7
:103C1000000F00F04581B9F1000F00F04381002F43
:103C200000F0428194F85D30DBB2042B02D0052312
:103C300084F85D3000232366C4F84090A4F84670F1
:103C4000A4F84470C4F83880E787A787E364236545
:103C5000E368B3F5E06F01D8012F23D922685368D8
:103C600023F48053536023681A6812F0400F03D185
:103C70001A6842F040021A60E368B3F5E06F5CD95D
:103C800063680BB1012F0BD1A26B23681288DA6035
:103C9000A36B0233A363E38F9BB2013B9BB2E38729
:103CA000012730E02268536843F480535360DAE719
:103CB000A26B1288DA60A36B0233A363E38F9BB21B
:103CC000013B9BB2E387002723689A6812F0010F3B
:103CD00011D0B4F8462092B26AB1DA68236C1A8027
:103CE000236C02332364B4F846309BB2013B9BB291
:103CF000A4F846300127FEF735FC831BAB4202D304
:103D0000B5F1FF3F14D1E38F9BB22BB9B4F8463025
:103D10009BB2002B00F0AB8023689A6812F0020F70
:103D2000D2D0E28F92B2002ACED0002FCCD0BFE703
:103D3000012384F85D300320A9E063680BB1012FF3
:103D40000FD1E38F9BB2012B0DD9A26B2368128890
:103D5000DA60A36B0233A363E38F9BB2023B9BB297
:103D6000E387012749E0A26B236812781A73A36BDB
:103D70000133A363E38F9BB2013B9BB2E387F0E780
:103D8000E28F92B2012A0CD9A26B1288DA60A36B7F
:103D90000233A363E38F9BB2023B9BB2E38700270E
:103DA0003DE0A26B12781A73A36B0133A363E38F18
:103DB0009BB2013B9BB2E387002730E02268536847
:103DC00043F48053536001270DE0226C1B7B13707A
:103DD000236C01332364B4F846309BB2013B9BB2A1
:103DE000A4F846300127FEF7BDFB801BA84202D392
:103DF000B5F1FF3F36D1002D34D0E38F9BB223B90C
:103E0000B4F846309BB2002B31D023689A6812F088
:103E1000020F04D0E28F92B20AB1002FB0D1236812
:103E20009A6812F0010FDED0B4F8462092B2002A50
:103E3000D9D0B4F8462092B2012AC6D9DA68236CE8
:103E40001A80236C02332364B4F846309BB2023BE1
:103E50009BB2A4F84630B4F846309BB2012BADD9E2
:103E60000127C0E7012384F85D3003200FE03246CC
:103E700029462046FFF7C8FC10B120232366012005
:103E8000236E9BB9012384F85D3000E002200023FB
:103E900084F85C30BDE8F8830220F8E70220F6E7FA
:103EA0000120F4E70120F2E70120F0E70120EEE72E
:103EB0000220EFE72DE9F04383B0044690F85D60FF
:103EC000F6B2012E40F0C080884691461D464368F8
:103ED000B3F5827F3DD094F85C30012B00F0BC80BC
:103EE000012384F85C30FEF73DFB0746B8F1000F74
:103EF00000F0AB80B9F1000F00F0A780042384F834
:103F00005D3000232366C4F84080A4F84490A4F8F0
:103F10004690A363A387E387E3642365E368B3F56F
:103F2000E06F23D92268536823F480535360A36859
:103F3000B3F5004F20D023681A6812F0400F03D168
:103F40001A6842F040021A60E368B3F5E06F27D9BF
:103F50004CE08368002BBED1042380F85D300095CF
:103F600013460A46FFF730FE064671E022685368A2
:103F700043F480535360DAE72268136823F0400368
:103F800013602268136823F480431360D3E7FEF7BD
:103F9000E9FAC01BA84202D3B5F1FF3F18D1BDB169
:103FA000B4F846309BB2002B3FD023689A6812F0D9
:103FB000010FECD0226C1B7B1370236C0133236444
:103FC000B4F846309BB2013B9BB2A4F84630E7E719
:103FD000012384F85D30032637E0FEF7C3FAC01BE7
:103FE000A84202D3B5F1FF3F1AD1CDB1B4F84630A3
:103FF0009BB2D3B123689A6812F0010FEDD0DA6852
:10400000236C1A80236C02332364B4F846C01FFA71
:104010008CFC0CF1FF3C1FFA8CFCA4F846C0E5E7D1
:10402000012384F85D3003260FE03A4629462046F6
:10403000FFF71BFC08B120232366236E2BB9012355
:1040400084F85D30002600E00226002384F85C300E
:10405000304603B0BDE8F0830226F9E708B50B4807
:104060000B4B03604FF4E133436000238360C36074
:1040700003610C2242618361C3610362436200F009
:1040800006FD00B908BDFDF746F8FBE7D81E002085
:104090000038014010B588B00023039304930593C2
:1040A000069307930268304B9A4201D008B010BDC6
:1040B000044603F558439A6942F480429A619A692A
:1040C00002F480420192019A5A6942F400325A6124
:1040D0005B6903F400330293029B4FF4C0630393C4
:1040E00002230493032306930723079303A94FF0A6
:1040F0009040FEF75FFF1D481D4B036000234360A7
:1041000083608022C26003614361202383614FF496
:104110000053C361FFF75AF800BB144B63675C623E
:104120001448154B036010234360002383608022F2
:10413000C2600361436183614FF40053C361FFF7C1
:1041400045F870B90B4B23675C62002211462520AD
:10415000FFF788F92520FFF795F9A7E7FCF7DBFFC4
:10416000DBE7FCF7D8FFEDE700380140941E0020A4
:1041700058000240501E002044000240026852E8ED
:10418000003F23F0C00342E800310029F6D120238C
:10419000C3677047026852E8003F23F4907342E817
:1041A00000310029F6D1026802F1080353E8003F0C
:1041B00023F00103083242E800310029F3D1036EF5
:1041C000012B06D02023C0F88030002303668366CD
:1041D0007047026852E8003F23F0100342E80031C4
:1041E0000029F6D1EEE700001346C26F202A3BD12A
:1041F00010B50446002939D0002B39D0C164A0F88D
:104200005030A0F852300022C0F884202122C2672A
:10421000026FC2B117499162026F1749D162026FF2
:1042200016491163026F0021516302682832C16C84
:10423000006FFEF7F3FF30B11023C4F88430202361
:10424000E36701200FE0236840221A62226802F12E
:10425000080353E8003F43F08003083242E800318E
:104260000029F3D1002010BD022070470120FAE799
:104270000120F8E781420008E9420008F9420008FD
:1042800008B5416A8369202B18D00023A1F8523069
:104290000A6802F1080353E8003F23F08003083264
:1042A00042E800300028F3D10A6852E8003F43F0AA
:1042B000400342E800300028F6D108BD0846FCF76C
:1042C0001BFFFAE708B5026852E8003F23F04003FD
:1042D00042E800310029F6D12023C3670023C366DA
:1042E000FCF70AFF08BD704708B5406AFFF7FBFFFF
:1042F00008BD70477047704738B5446AE26FD4F81C
:10430000805023689B6813F0800F01D0212A10D0C1
:1043100023689B6813F0400F01D0222D10D0D4F8F1
:10432000843043F01003C4F884302046FFF7E3FFE5
:1043300038BD0023A4F852302046FFF71FFFE7E7FF
:104340000023A4F85A302046FFF724FFE7E708B51A
:10435000406A0023A0F85A30A0F85230FFF7CBFF94
:1043600008BD704770B504460268D369116890684B
:1043700040F60F0C13EA0C0F0AD113F0200F0DD0EA
:1043800011F0200F0AD0A36E0BB3204698471EE011
:1043900010F001051CD1AB4E314219D1256E012D13
:1043A00000F0A48013F4801F03D010F4800F40F0BD
:1043B000368113F0800F03D011F0800F40F036816A
:1043C00013F0400F03D011F0400F40F0368170BD64
:1043D00013F0010F09D011F4807F06D00120106284
:1043E000D4F884200243C4F8842013F0020F09D0CB
:1043F00045B1226802201062D4F8842042F0040201
:10440000C4F8842013F0040F09D045B122680420B9
:104410001062D4F8842042F00202C4F8842013F021
:10442000080F0BD011F0200F00D13DB122680820F9
:104430001062D4F884200243C4F8842013F4006F7F
:104440000CD011F0806F09D022684FF40060106228
:10445000D4F8842042F02002C4F88420D4F88420C8
:10446000002AB4D013F0200F06D011F0200F03D093
:10447000A36E0BB120469847D4F8842023689B682C
:1044800013F0400F02D112F0280F28D02046FFF77A
:1044900081FE23689B6813F0400F1CD0226802F154
:1044A000080353E8003F23F04003083242E800319C
:1044B0000029F3D1636F53B1634A5A63606FFEF70B
:1044C0000CFF002883D0606F436B98477FE720463E
:1044D000FFF711FF7BE72046FFF70DFF77E7204648
:1044E000FFF709FF0023C4F8843070E713F0100FC2
:1044F0003FF458AF11F0100F3FF454AF1023136284
:1045000023689B6813F0400F4FD0626F13685B689D
:104510009BB2002B3FF45BAFB4F8581099427FF682
:1045200056AFA4F85A309369202B31D0226852E854
:10453000003F23F4807342E800310029F6D122685D
:1045400002F1080353E8003F23F00103083242E878
:1045500000310029F3D1226802F1080353E8003F3B
:1045600023F04003083242E800310029F3D1202330
:10457000C4F8803000232366226852E8003F23F00D
:10458000100342E800310029F6D1606FFEF780FE8B
:1045900002236366B4F85810B4F85A309BB2C91AB3
:1045A00089B22046FFF7DDFE11E7B4F85810B4F8E1
:1045B0005A309BB2C91A89B2B4F85A309BB2002B58
:1045C0003FF405AF00293FF402AF226852E8003FF4
:1045D00023F4907342E800300028F6D1226802F1FB
:1045E000080353E8003F23F00103083242E800309B
:1045F0000028F3D12023C4F8803000232366A3666B
:10460000226852E8003F23F0100342E800300028FF
:10461000F6D1022363662046FFF7A3FED7E64FF4E8
:1046200080131362204600F0D7FAD0E6E36E002B29
:104630003FF4CDAE20469847C9E62046FFF742FE3C
:10464000C5E600BF200100044F43000808B5406ADA
:1046500001234366036E012B02D0FFF74BFE08BD1A
:10466000B0F858104908FFF77CFEF8E708B5034694
:10467000406A9B69202B29D00023A0F85A30026899
:1046800052E8003F23F4807342E800310029F6D15C
:10469000026802F1080353E8003F23F001030832E7
:1046A00042E800310029F3D1026802F1080353E81F
:1046B000003F23F04003083242E800310029F3D1E3
:1046C0002023C0F88030036E012B07D000234366FF
:1046D000036E012B0CD0FFF70CFE08BD026852E8F8
:1046E000003F23F0100342E800310029F6D1EDE746
:1046F000B0F85810FFF735FEEFE7000010B504469C
:1047000083680269134342691343C2691343016812
:1047100008684E4A02401A430A602268536823F42C
:104720004053E1680B435360A269236A1A4321682E
:104730008B6823F4306313438B602368444A9342AD
:1047400014D0444A934227D002F5806293421FD08E
:104750001023E069B0F5004F20D0082B70D8DFE8B7
:1047600003F04A60486F636F6F6F66003A4B1B6BD4
:1047700003F00303032B09D8DFE803F00204060C5F
:104780000023E6E70423E4E70823E2E71023E0E759
:104790000023DEE70223DCE70023DAE7082B49D811
:1047A000DFE803F0051F2548224848480900FEF7C6
:1047B0000FFB002840D06268530803EB4003B3FBB3
:1047C000F2F3A3F110014FF6EF72914236D89AB28C
:1047D00022F00F02C3F3420313432268D360002088
:1047E0001BE0FEF70BFBE4E7FEF7EEF9E1E71B4801
:1047F000E1E71A4802E0FEF7EBFA18B3636800EB52
:104800005300B0FBF3F0A0F110024FF6EF739A42A1
:104810001AD8236880B2D86000200023A366E3661C
:1048200010BDFEF7EBFAE8E7FEF7CEF9E5E74FF447
:104830000040E3E70120F0E70020EEE70120ECE78D
:104840000120EAE70020E8E70120E6E7F369FFEF4F
:1048500000380140004400400010024000127A007D
:10486000436A13F0080F06D00268536823F400432C
:10487000416B0B435360436A13F0010F06D002688B
:10488000536823F40033816A0B435360436A13F087
:10489000020F06D00268536823F48033C16A0B43C9
:1048A0005360436A13F0040F06D00268536823F480
:1048B0008023016B0B435360436A13F0100F06D043
:1048C0000268936823F48053816B0B439360436ABF
:1048D00013F0200F06D00268936823F40053C16BD5
:1048E0000B439360436A13F0400F0AD00268536889
:1048F00023F48013016C0B435360036CB3F5801FEA
:104900000BD0436A13F0800F06D00268536823F47B
:104910000023816C0B43536070470268536823F493
:10492000C003416C0B435360EBE72DE9F8430546A8
:104930000E4617469946DDF820802B68DC6936EA7A
:1049400004040CBF01240024BC4236D1B8F1FF3F5F
:10495000F3D0FDF707FEA0EB0900404530D8B8F1D1
:10496000000F2FD02B681A6812F0040FE5D0802EAC
:10497000E3D0402EE1D0DA6912F0080F11D1DA69E4
:1049800012F4006FD9D04FF400621A622846FFF784
:1049900001FC2023C5F88430002385F878300320FB
:1049A0000CE008241C622846FFF7F4FBC5F884409D
:1049B000002385F87830012000E00020BDE8F8836E
:1049C0000320FBE70320F9E730B583B0044600235A
:1049D000C0F88430FDF7C6FD05462268126812F063
:1049E000080F0FD123681B6813F0040F26D1202372
:1049F000E367C4F8803000202066606684F87800A1
:104A000003B030BD6FF07E430093034600224FF4A5
:104A100000112046FFF789FF0028E3D0226852E802
:104A2000003F23F0800342E800310029F6D1202323
:104A3000E367002384F878300320E1E76FF07E43DA
:104A400000932B4600224FF480012046FFF76DFFB4
:104A50000028CCD0226852E8003F23F4907342E84B
:104A600000310029F6D1226802F1080353E8003F23
:104A700023F00103083242E800310029F3D120235A
:104A8000C4F88030002384F878300320B8E768B396
:104A900010B50446C36F03B32423E3672268136889
:104AA00023F001031360636AE3B92046FFF726FE93
:104AB000012811D02268536823F490435360226880
:104AC000936823F02A0393602268136843F001037C
:104AD00013602046FFF778FF10BD80F87830FFF7AD
:104AE000D9FAD9E72046FFF7BBFEDEE70120704781
:104AF00010B5044613464165A0F858200022C0F8BE
:104B000084202222C0F88020426F8AB11F4991621E
:104B1000426F1F49D162426F1E491163426F0021EB
:104B200051630168426D2431406FFEF777FB20BB73
:104B3000236943B1226852E8003F43F4807342E89E
:104B400000310029F6D1226802F1080353E8003F42
:104B500043F00103083242E800310029F3D1226812
:104B600002F1080353E8003F43F04003083242E8F3
:104B700000310029F3D1002010BD1023C4F8843087
:104B80002023C4F880300120F6E700BF6D460008FE
:104B90004D460008F942000838B5D0F88030202B87
:104BA00014D1A9B1B2B10023036603685B6813F4A2
:104BB000000F08D0046854E8003F43F0806344E8E5
:104BC0000035002DF6D1FFF793FF00E0022038BD3D
:104BD0000120FCE70120FAE77047000000B583B030
:104BE0000E4B5A6942F001025A615B6903F00103FE
:104BF0000193019B002211460E20FEF733FC0E208C
:104C0000FEF740FC002211460F20FEF72BFC0F2080
:104C1000FEF738FC03B05DF804FB00BF0010024053
:104C2000DFF834D0FEF750FC0C480D490D4A002344
:104C300002E0D458C4500433C4188C42F9D30A4A51
:104C40000A4C002301E013600432A242FBD300F0BF
:104C50007BFEFCF7A5FAFEE70030002000000020F4
:104C6000D4010020388D0008D4010020AC200020A1
:104C7000FEE72DE9FF4757EC106B002F0C46194655
:104C80003B46BBBF07F100431F4600232D230B709B
:104C90000D9BDDF830A0914623F02008BCBF3246C2
:104CA0001646B8F1460F05D0B8F1450F00D10134D2
:104CB000022100E0032103AB019302AB009347EC18
:104CC000106B5346224600F0EFFEB8F1470F054641
:104CD00019D119F0010F0ED000EB040900220023B6
:104CE00030463946FBF7F0FE08B1CDF80C90302283
:104CF000039B4B451ED3039B0E9A5B1B28461360F8
:104D000004B0BDE8F087B8F1460F00EB0409E5D127
:104D10000378302B0AD10022002330463946FBF7B6
:104D2000D3FE18B9C4F10104CAF80040DAF8003023
:104D30009944D3E7591C03911A70D9E7F7B50029B4
:104D4000BABF49422D232B2309290270437029DD64
:104D50000DF107031D460A271A46B1FBF7F607FBBC
:104D60001614303402F8014C0C46632C03F1FF3367
:104D70003146F1DC3031941E03F8011C411C2346FE
:104D8000AB420AD30DF109039B1AAC4288BF002342
:104D900002330344181A03B0F0BD13F8016B01F895
:104DA000016FEDE7302330318370C170031DF1E7EF
:104DB0002DE9F04F8DB00C46DDF8588016461F46A1
:104DC000054600F095FD036804931846FBF750FA7A
:104DD00000230A93D8F800300590073323F0070327
:104DE00003F1080294F818A0D4F800B0C8F8002025
:104DF000D3E9008929F000430793CDF81880C4E96E
:104E00001289DDE906019C4B4FF0FF32FBF78EFE65
:104E100070BBDDE90601984B4FF0FF32FBF768FEEF
:104E200030BB0022002340464946FBF757FE10B135
:104E30002D2384F84330914A914BBAF1470F94BF28
:104E400090469846032323612BF0040323604FF020
:104E50000009009733460BAA2146284600F0D2F9F4
:104E6000013040F08D804FF0FF300DB0BDE8F08F85
:104E700042464B4640464946FBF758FE40B14B463A
:104E8000002BBCBF2D2384F843307E4A7E4BD4E7F1
:104E900063680AF0DF0206925A1C3BD10623636066
:104EA0004BF480620023226003930AABCDE901A397
:104EB00009AB0093616849EC108B0DF12303284680
:104EC000FFF7D7FE069B0999472B804629D1C81CBE
:104ED00002DB6368994241DDAAF1020A5FFA8AFAAD
:104EE0000139524604F150000991FFF727FF0A9A51
:104EF0001318012A8146236102DC2268D20701D5FA
:104F0000013323619DF82330002BA2D02D2384F898
:104F100043309EE7069A472AC2D1002BC0D1012315
:104F2000BDE7BAF1650FDBD9BAF1660F18D10029D8
:104F300063680BDD216113B92268D00702D5013304
:104F40000B442361A1654FF00009DBE713B9226828
:104F5000D20701D50233F4E70123F2E74FF0670AE5
:104F60000A9B994205DB23682161D807EAD54B1CCF
:104F7000E7E70029D4BFC1F1020201221344E0E7B0
:104F800023685A0507D42369424631462846B84764
:104F900001302BD167E7BAF1650F40F2DD80D4E92B
:104FA000120100220023FBF78FFD002833D0374A7F
:104FB000012331462846B84701303FF454AFDDE9BC
:104FC0000938434502DB2368D8070FD5DDE9042300
:104FD00031462846B84701303FF445AF4FF000094D
:104FE00008F1FF3804F11A0AC84509DC23689B0759
:104FF00000F10381E0680B9B9842B8BF184634E784
:105000000123524631462846B84701303FF42BAFC2
:1050100009F10109E8E7099B002B39DC1B4A012350
:1050200031462846B84701303FF41DAFDDE9093964
:1050300059EA030302D12368D907D7D5DDE9042350
:1050400031462846B84701303FF40DAF4FF0000A13
:1050500004F11A0B099B5B42534501DC4B4693E775
:1050600001235A4631462846B84701303FF4FBAE8B
:105070000AF1010AEEE700BFFFFFEF7FE0870008BB
:10508000E4870008E8870008EC870008F08700083C
:10509000A36DDDF828A05345A8BF5346002B9946C1
:1050A00036DC4FF0000B29EAE97904F11A02A36D0E
:1050B0000693A3EB09035B4531DC099B9A453ADC77
:1050C0002368DA0737D4099BAAEB0309069BAAEBEE
:1050D00003039945A8BF9946B9F1000F33DC4FF09F
:1050E000000829EAE97904F11A0B099BAAEB0303EA
:1050F000A3EB090343457FF779AF01235A463146B5
:105100002846B84701303FF4AEAE08F10108ECE79D
:10511000424631462846B8470130C2D1A3E60123B2
:10512000314628460692B84701303FF49CAE069AB5
:105130000BF1010BBBE7DDE9042331462846B847F4
:105140000130C0D18FE6069A4B464244314628468C
:10515000B8470130C3D186E6DDF828A0BAF1010FC7
:1051600001DCDB0736D50123424631462846B847E5
:1051700001303FF478AEDDE9042331462846B847D4
:1051800001303FF470AED4E91201002200230AF18D
:10519000FF3AFBF799FCC0B9534608F101023146CA
:1051A0002846B84701300CD15DE601235A46314606
:1051B0002846B84701303FF456AE08F10108D04503
:1051C000F3DB4B4604F15002DFE64FF0000804F138
:1051D0001A0BF4E701234246E1E701234A46314630
:1051E0002846B84701303FF43EAE08F10108E368B5
:1051F0000B995B1A4345F0DCFCE64FF0000804F124
:105200001909F4E72DE9F047164698468A680B69B4
:10521000DDF820909342B8BF1346336091F84320E5
:1052200007460C460AB1013333602368990642BF32
:10523000336802333360256815F0060506D104F1A2
:10524000190AE36832689B1AAB4226DC94F84330B3
:105250002268003B18BF012392062BD404F14302BD
:1052600041463846C84701301ED02368226903F002
:105270000603042B02BFE5683368ED1AA3680CBF70
:1052800025EAE57500259342C4BF9B1AED18002658
:105290001A34B5421AD1002008E001235246414693
:1052A0003846C847013003D14FF0FF30BDE8F087E2
:1052B0000135C6E7E1185A1C302081F8430022442A
:1052C00094F8451082F843100233C7E701232246C1
:1052D00041463846C8470130E6D00136D9E70000DC
:1052E0002DE9FF470F7E0C9E782F914680460C4695
:1052F0009A4601F1430207D8622F0AD8002F00F026
:10530000D280582F00F0B98004F1420684F8427030
:105310003AE0A7F16303152BF6D801A151F823F069
:10532000795300088D5300080953000809530008F9
:1053300009530008095300088D5300080953000859
:105340000953000809530008095300088D54000848
:10535000B7530008475400080953000809530008D0
:10536000AF54000809530008B75300080953000858
:10537000095300084F54000833681A1D1B68326037
:1053800004F1420684F8423001239DE0336820682E
:10539000191D3160060601D51D6803E04506FBD5E1
:1053A000B3F90050002D03DA2D236D4284F8433009
:1053B00059480A2311E021683368080653F8045B52
:1053C00002D4490648BFADB26F2F5348336014BFB3
:1053D0000A230823002184F843106668A660002E83
:1053E000A2BF216821F0040121600DB9002E4BD02D
:1053F0001646B5FBF3F103FB1157C75D06F8017DB7
:105400002F46BB420D46F4D9082B0BD12368DF078A
:1054100008D5236961689942DEBF302306F8013C54
:1054200006F1FF36921B2261CDF800A04B4603AA7D
:1054300021464046FFF7E6FE01304AD14FF0FF30EB
:1054400004B0BDE8F087236843F0200323603348AD
:10545000782784F84570236831681F0651F8045B8B
:1054600002D45F0648BFADB23160D90744BF43F0F4
:10547000200323601DB11023ACE72748E9E7236828
:1054800023F020032360F6E71646BDE7336825685E
:105490006169181D30602E061B6801D5196002E095
:1054A0006806FBD51980002323611646BCE73368E4
:1054B0001A1D32601E68626800213046FAF788FEC5
:1054C00008B1801B606063682361002384F8433067
:1054D000AAE72369324649464046D0470130ADD05D
:1054E00023689B0713D4E068039B9842B8BF184613
:1054F000A6E70123324649464046D04701309DD0B9
:105500000135E36803995B1AAB42F2DCEBE7002557
:1055100004F11906F5E700BFF287000803880008C8
:10552000B1FA81F252094FF48063520000F000B8E2
:105530002DE9F7431D46574B1F6804460E4690461B
:1055400027B13B6A13B9384600F032F9B8F1020FBF
:1055500006D0B8F1010F00F29A80002DC0F29780BA
:10556000636ED90705D4A3899A0502D4A06D00F013
:1055700010FA2146384601F015FB616B41B104F188
:105580004403994202D0384601F052F80023636385
:105590000023A3616360A3891B0603D521693846F4
:1055A00001F046F8A38923F44A6323F00303B8F11A
:1055B000020FA38161D001AB6A462146384600F054
:1055C0002DF9A3891843A0812DBB009D284601F029
:1055D000BBF90646002852D1DDF80090A94540D11C
:1055E0004FF0FF35B4F90C3043F00202A2810022E3
:1055F000A26004F147022260226101226261626EB0
:10560000D60704D4980502D4A06D00F0C3F928464B
:1056100003B0BDE8F083002ED8D03B6A13B93846FA
:1056200000F0C6F8B8F1010F08BFA389266004BFD7
:1056300043F00103A381B4F90C3013F00802C4E96C
:1056400004651ED0D90741BF00226D42A260A5614A
:1056500058BFA560626ED20701D49B0513D5002503
:10566000D5E7484601F070F906460028B8D0A3896E
:1056700043F08003A3814D46CFE70025B2E7A9465A
:10568000F5E7A260E6E7A06D00F084F9E7E74FF0E8
:10569000FF35BCE718000020002310B50446C0E920
:1056A0000033C0E90433836081814366C281836132
:1056B000194608225C3000F013F90D4B63620D4B64
:1056C000A3620D4BE3620D4B23630D4B24629C429E
:1056D00006D003F16802944202D0D0339C4205D137
:1056E00004F15800BDE8104000F052B910BD00BFF1
:1056F00011730008337300086B7300088F73000880
:10570000601F0020024A0349034800F069B800BF47
:105710000C000020A56B00081C00002041680C4B09
:10572000994210B5044601D001F03CFAA168094B3A
:10573000994202D0204601F035FAE168064B9942C1
:1057400004D02046BDE8104001F02CBA10BD00BFC7
:10575000601F0020C81F00203020002010B50B4B18
:105760000B4C0C4A1A60204600220421FFF794FFDC
:1057700004F1680001220921FFF78EFF04F1D00037
:105780000222BDE810401221FFF786BF98200020BA
:10579000601F002005570008014800F0FAB800BF5C
:1057A0009D200020014800F0F5B800BF9D2000209A
:1057B00010B50446FFF7F0FF236A1BB1BDE81040A7
:1057C000FFF7F0BF044B2362044B1B68002BF5D19D
:1057D000FFF7C4FFF2E700BF1D5700089820002024
:1057E0002DE9F8430746884614460026D4E901957A
:1057F000B9F1010905D52468002CF7D13046BDE880
:10580000F883AB89012B07D9B5F90E30013303D0EA
:1058100029463846C04706436835E9E770B50C4667
:10582000B1F90E10002996B015461E460DDAA3896F
:1058300013F0800F4FF0000114BF40234FF480633A
:10584000002031602B6016B070BD6A4600F054F83D
:105850000028ECDB019901F47041A1F50053594295
:1058600059414FF48063EBE78B89F7B59D070646F6
:105870000C4607D504F147032360236101236361CC
:1058800003B0F0BD01AB6A46FFF7C8FF009F0546B5
:105890003946304601F082F848B9B4F90C309A051F
:1058A000EED423F0030343F00203A381E2E7A389CC
:1058B000206043F08003A381019BC4E904075BB12E
:1058C000B4F90E10304600F029F828B1A38923F06E
:1058D000030343F00103A381A3891D43A581CFE7FF
:1058E00002440346934200D1704703F8011BF9E7D5
:1058F000004870475801002038B5074D0023044682
:10590000084611462B60FDF73EFE431C02D12B6872
:1059100003B1236038BD00BFA820002038B5064D74
:105920000023044608462B60FDF732FE431C02D1DB
:105930002B6803B1236038BDA8200020014B1868F4
:10594000704700BF1800002070B50D4D0D4C641B52
:10595000A4100026A64209D10B4D0C4C02F0F4FE17
:10596000641BA4100026A64205D170BD55F8043B67
:1059700098470136EEE755F8043B98470136F2E7C1
:10598000308D0008308D0008308D0008348D0008FF
:105990007047704770472DE9F74F03690C69A342C0
:1059A00007467EDB013C01F11408A30000F1140559
:1059B000009305EB8403019358F8243055F8242014
:1059C00001339A4208EB8409B2FBF3F62ED34FF071
:1059D000000AC446AE46D3465CF8043B98B206FBC8
:1059E00000A0020C1B0C06FB0323DEF8002080B293
:1059F00092B2121A5A44DEF800004FEA134A9BB2E0
:105A0000C3EB224303EB104392B242EA0342E14567
:105A10004EF8042B4FEA234BDED2009BEB582BB9F8
:105A2000019B043B9D421A462FD33C61384601F04E
:105A300067FB002825DB2946002058F8042BD1F805
:105A400000C01FFA82FE1FFA8CF3A3EB0E0303447F
:105A5000120CC2EB234202EB1C429BB243EA02430C
:105A6000C14541F8043B4FEA2240E6D255F82420D4
:105A700005EB840322B9043B9D421A460BD33C61DB
:105A80000136304603B0BDE8F08F1268043B002AAF
:105A9000CBD1013CC6E71268043B002AEFD1013CA0
:105AA000EAE70020EEE700002DE9F04FC76999B062
:105AB0008DED020B55EC104B229E099183460E9200
:105AC00013937FB9102000F03FFF0246CBF81C0073
:105AD00020B9A74BEF21A74801F056FDC0E9017797
