:020000040800F2
:1000000000300020994900086D1700086F1700089C
:10001000711700087317000875170008000000002A
:10002000000000000000000000000000771700083A
:1000300079170008000000007B1700087D170008F2
:10004000E9490008E9490008E9490008E9490008C8
:10005000E9490008E9490008E9490008E9490008B8
:10006000E9490008E9490008E9490008E9490008A8
:10007000E9490008E94900088517000895170008B4
:10008000E9490008E9490008E9490008E949000888
:10009000E9490008E9490008E9490008E949000878
:1000A000E9490008E9490008E9490008E949000868
:1000B000E9490008E949000800000000E949000892
:1000C000E94900080000000000000000E9490008BC
:1000D00000000000A5170008E9490008E9490008E8
:1000E000E9490008E949000800000000000000009C
:1000F0000000000000000000000000000000000000
:1001000000000000000000000000000000000000EF
:100110000000000000000000E9490008E94900086B
:1001200000000000000000000000000000000000CF
:1001300000000000000000000000000000000000BF
:10014000E9490008E949000800000000000000003B
:10015000000000000000000000000000000000009F
:10016000000000000000000000000000000000008F
:10017000000000000000000000000000000000007F
:0801800000000000E94900083D
:1001880010B5054C237833B9044B13B10448AFF3C9
:1001980000800123237010BD6800002000000000CB
:1001A800B062000808B5034B1BB103490348AFF31D
:1001B800008008BD000000006C000020B06200084C
:1001C80081F0004102E000BF83F0004330B54FEA00
:1001D80041044FEA430594EA050F08BF90EA020F6D
:1001E8001FBF54EA000C55EA020C7FEA645C7FEA00
:1001F800655C00F0E2804FEA5454D4EB5555B8BF23
:100208006D420CDD2C4480EA020281EA030382EA93
:10021800000083EA010180EA020281EA0303362D25
:1002280088BF30BD11F0004F4FEA01314FF4801CF8
:100238004CEA113102D0404261EB410113F0004F0A
:100248004FEA03334CEA133302D0524263EB4303C1
:1002580094EA050F00F0A780A4F10104D5F1200E5F
:100268000DDB02FA0EFC22FA05F2801841F10001BA
:1002780003FA0EF2801843FA05F359410EE0A5F18E
:1002880020050EF1200E012A03FA0EFC28BF4CF0BF
:10029800020C43FA05F3C01851EBE37101F0004575
:1002A80007D54FF0000EDCF1000C7EEB00006EEB82
:1002B8000101B1F5801F1BD3B1F5001F0CD349080C
:1002C8005FEA30004FEA3C0C04F101044FEA445263
:1002D80012F5800F80F09A80BCF1004F08BF5FEAEA
:1002E800500C50F1000041EB045141EA050130BDCA
:1002F8005FEA4C0C404141EB0101013C28BFB1F5DC
:10030800801FE9D291F0000F04BF01460020B1FA26
:1003180081F308BF2033A3F10B03B3F120020CDAF9
:100328000C3208DD02F1140CC2F10C0201FA0CF0D7
:1003380021FA02F10CE002F11402D8BFC2F1200C3C
:1003480001FA02F120FA0CFCDCBF41EA0C019040F2
:10035800E41AA2BF01EB0451294330BD6FEA04043B
:100368001F3C1CDA0C340EDC04F11404C4F1200226
:1003780020FA04F001FA02F340EA030021FA04F338
:1003880045EA030130BDC4F10C04C4F1200220FA8F
:1003980002F001FA04F340EA0300294630BD21FACD
:1003A80004F0294630BD94F0000F83F4801306BF93
:1003B80081F480110134013D4EE77FEA645C18BF87
:1003C8007FEA655C29D094EA050F08BF90EA020F1E
:1003D80005D054EA000C04BF1946104630BD91EA16
:1003E800030F1EBF0021002030BD5FEA545C05D119
:1003F8004000494128BF41F0004130BD14F5800458
:100408003CBF01F5801130BD01F0004545F0FE41CB
:1004180041F470014FF0000030BD7FEA645C1ABF00
:10042800194610467FEA655C1CBF0B46024650EA37
:10043800013406BF52EA033591EA030F41F4002163
:1004480030BD00BF90F0000F04BF0021704730B5E9
:100458004FF4806404F132044FF000054FF00001BE
:1004680050E700BF90F0000F04BF0021704730B57F
:100478004FF4806404F1320410F0004548BF404254
:100488004FF000013EE700BF42004FEAE2014FEAA9
:1004980031014FEA02701FBF12F07F4393F07F4F84
:1004A80081F06051704732F07F4208BF704793F087
:1004B8007F4F04BF41F40021704730B54FF460749A
:1004C80001F0004521F000411CE700BF50EA01029D
:1004D80008BF704730B54FF000050AE050EA010246
:1004E80008BF704730B511F0004502D5404261EBB6
:1004F80041014FF4806404F132045FEA915C3FF4F7
:10050800D8AE4FF003025FEADC0C18BF03325FEA93
:10051800DC0C18BF033202EBDC02C2F1200300FA44
:1005280003FC20FA02F001FA03FE40EA0E0021FA69
:1005380002F11444BDE600BF70B54FF0FF0C4CF457
:10054800E06C1CEA11541DBF1CEA135594EA0C0F09
:1005580095EA0C0F00F0DEF82C4481EA030621EA44
:100568004C5123EA4C5350EA013518BF52EA03357F
:1005780041F4801143F4801338D0A0FB02CE4FF031
:100588000005E1FB02E506F00042E0FB03E54FF061
:100598000006E1FB03569CF0000F18BF4EF0010E59
:1005A800A4F1FF04B6F5007F64F5407404D25FEA55
:1005B8004E0E6D4146EB060642EAC62141EA555108
:1005C8004FEAC52040EA5E504FEACE2EB4F1FD0C4A
:1005D80088BFBCF5E06F1ED8BEF1004F08BF5FEAC8
:1005E800500E50F1000041EB045170BD06F000467A
:1005F80046EA010140EA020081EA0301B4EB5C0427
:10060800C2BFD4EB0C0541EA045170BD41F480111E
:100618004FF0000E013C00F3AB8014F1360FDEBF43
:10062800002001F0004170BDC4F10004203C35DA1F
:100638000C341BDC04F11404C4F1200500FA05F3A2
:1006480020FA04F001FA05F240EA020001F0004243
:1006580021F0004110EBD37021FA04F642EB0601B9
:100668005EEA430E08BF20EAD37070BDC4F10C04E3
:10067800C4F1200500FA04F320FA05F001FA04F2A7
:1006880040EA020001F0004110EBD37041F1000193
:100698005EEA430E08BF20EAD37070BDC4F120059E
:1006A80000FA05F24EEA020E20FA04F301FA05F206
:1006B80043EA020321FA04F001F0004121FA04F2AE
:1006C80020EA020000EBD3705EEA430E08BF20EA7E
:1006D800D37070BD94F0000F0FD101F000464000B8
:1006E80041EB010111F4801F08BF013CF7D041EA3A
:1006F800060195F0000F18BF704703F0004652003E
:1007080043EB030313F4801F08BF013DF7D043EA0E
:100718000603704794EA0C0F0CEA135518BF95EAC4
:100728000C0F0CD050EA410618BF52EA4306D1D14B
:1007380081EA030101F000414FF0000070BD50EA6A
:10074800410606BF1046194652EA430619D094EAF4
:100758000C0F02D150EA013613D195EA0C0F05D1DE
:1007680052EA03361CBF104619460AD181EA030132
:1007780001F0004141F0FE4141F470014FF00000EA
:1007880070BD41F0FE4141F4780170BD70B54FF085
:10079800FF0C4CF4E06C1CEA11541DBF1CEA135505
:1007A80094EA0C0F95EA0C0F00F0A7F8A4EB0504E7
:1007B80081EA030E52EA03354FEA013100F08880DE
:1007C8004FEA03334FF0805545EA131343EA1263A7
:1007D8004FEA022245EA111545EA10654FEA00265C
:1007E8000EF000419D4208BF964244F1FD0404F515
:1007F800407402D25B084FEA3202B61A65EB030571
:100808005B084FEA32024FF480104FF4002CB6EB2D
:10081800020E75EB030E22BFB61A754640EA0C00AD
:100828005B084FEA3202B6EB020E75EB030E22BFED
:10083800B61A754640EA5C005B084FEA3202B6EB2E
:10084800020E75EB030E22BFB61A754640EA9C00ED
:100858005B084FEA3202B6EB020E75EB030E22BFBD
:10086800B61A754640EADC0055EA060E18D04FEA7B
:10087800051545EA16754FEA06164FEAC30343EA1B
:1008880052734FEAC2025FEA1C1CC0D111F4801FE8
:100898000BD141EA00014FF000004FF0004CB6E7E1
:1008A80011F4801F04BF01430020B4F1FD0C88BF80
:1008B800BCF5E06F3FF6AFAEB5EB030C04BFB6EB8B
:1008C800020C5FEA500C50F1000041EB045170BD7E
:1008D8000EF0004E4EEA113114EB5C04C2BFD4EBAB
:1008E8000C0541EA045170BD41F480114FF0000E2F
:1008F800013C90E645EA060E8DE60CEA135594EAAB
:100908000C0F08BF95EA0C0F3FF43BAF94EA0C0FAD
:100918000AD150EA01347FF434AF95EA0C0F7FF422
:1009280025AF104619462CE795EA0C0F06D152EA76
:1009380003353FF4FDAE1046194622E750EA41065A
:1009480018BF52EA43067FF4C5AE50EA41047FF46B
:100958000DAF52EA43057FF4EBAE12E74FF0FF3CD0
:1009680006E000BF4FF0010C02E000BF4FF0010CA1
:100978004DF804CD4FEA410C7FEA6C5C4FEA430C1A
:1009880018BF7FEA6C5C1BD001B050EA410C0CBF69
:1009980052EA430C91EA030F02BF90EA020F0020CB
:1009A800704710F1000F91EA030F58BF994208BF32
:1009B80090422CBFD8176FEAE37040F001007047EF
:1009C8004FEA410C7FEA6C5C02D150EA013C07D146
:1009D8004FEA430C7FEA6C5CD6D152EA033CD3D091
:1009E8005DF8040B704700BF8446104662468C468B
:1009F8001946634600E000BF01B5FFF7B7FF0028BE
:100A080048BF10F1000F01BD4DF808EDFFF7F4FFE6
:100A18000CBF012000205DF808FB00BF4DF808ED71
:100A2800FFF7EAFF34BF012000205DF808FB00BF94
:100A38004DF808EDFFF7E0FF94BF012000205DF8B6
:100A480008FB00BF4DF808EDFFF7CEFF94BF01206B
:100A580000205DF808FB00BF4DF808EDFFF7C4FF64
:100A680034BF012000205DF808FB00BF4FEA4102B7
:100A780012F5001215D211D56FF47873B3EB6252E8
:100A880012D94FEAC12343F0004343EA505311F00F
:100A9800004F23FA02F018BF404270474FF00000A1
:100AA800704750EA013005D111F0004008BF6FF0DF
:100AB800004070474FF00000704700BF4A0011D255
:100AC80012F5001211D20DD56FF47873B3EB6252A0
:100AD8000ED44FEAC12343F0004343EA505323FAAC
:100AE80002F070474FF00000704750EA013002D121
:100AF8004FF0FF3070474FF00000704710B50146C7
:100B0800054CC4F81004204600F099F80023C4F8F6
:100B18000C34C4F8143410BD8400002070B50146AC
:100B28000D4C204600F0B3F8D4F80C3403B170BD76
:100B3800204600F0D6F885B2C4F814540123C4F84E
:100B48000C34D4F81064204600F0D7F82A4621184F
:100B5800304603F001FAEAE78400002010B50446A5
:100B680002E00134FFF7DAFF20780028F9D110BD40
:100B7800134BD3F81034834200D0704770B5104C33
:100B8800D4F81414204600F0BBF8204600F0A9F869
:100B980084B224B90A4B0022C3F80C2470BD084D56
:100BA800C5F814440123C5F80C34D5F81064284658
:100BB80000F0A3F822462918304603F0CDF9EDE7F6
:100BC8008400002010B50146064CC4F80C042046E9
:100BD80000F035F8B4F800242146D4F80C0403F0EA
:100BE80093FE10BD9C04002000B583B00BE00D48B7
:100BF800B0F80014D0F80C345B6F1B685B68C91A36
:100C080089B200F091F8074800F05AF80028EED0B1
:100C18000DF10701034800F020F89DF8070003B024
:100C28005DF804FB9C040020B0F80034D0F80824D8
:100C3800526F126852689B1AA0F8023470474FF43A
:100C48008063A0F800340023A0F80234A0F804342C
:100C5800A0F80634C0F80814704738B504460D46A5
:100C6800FFF7E2FFB4F80424B4F802349A420CD037
:100C7800531C9BB2B4F80014994200D80023A25C1C
:100C88002A70A4F80434002038BD0120FCE7B0F82D
:100C98000224531C9BB2B0F800C49C4500D8002322
:100CA800B0F804C49C4504D08154A0F80234002054
:100CB8007047B0F806340133A0F8063401207047B5
:100CC80010B50446FFF7B0FFB4F80234B4F80404D2
:100CD800834201D3181A10BDB4F800241344181A1B
:100CE800F9E7B0F80224B0F804349A4201D3D01AD4
:100CF8007047B0F80024D01A7047B0F80404704761
:100D080003E00133A0F80434013900290BDDB0F801
:100D1800043403F1010CB0F800249445F1DB0023FE
:100D2800A0F80434F0E77047A0F8021470470246B0
:100D38000023184602E052080133DBB20F2B05D816
:100D480012F0010FF7D00130C0B2F4E700F0010053
:100D58007047000030B583B040F48044ADF80640D9
:100D68002046FFF7E4FF44EAC034ADF8064000240B
:100D7800ADF80440224610214FF0904002F0C2F82E
:100D8800134D4FF0FF3301220DF10601284602F002
:100D9800D4FC012210214FF0904002F0B3F8224613
:100DA80010214FF0904002F0ADF84FF0FF330122D0
:100DB80001A9284602F036FF012210214FF0904089
:100DC80002F0A0F8BDF80400C0F30D0003B030BD78
:100DD8007C15002008B543F6FF70FFF7BBFF00B293
:100DE80008BD00002DE9F04F83B083460846FFF7A1
:100DF80039FB06460F46314C84FB0B235B441B1220
:100E08004FF4B47A0AFB13B32D4D05EBC303D3E9B2
:100E18000023FFF791FB02460B4630463946FFF7A1
:100E2800D5F9FFF74BFE1FFA80F9ADF800900BF1EA
:100E3800780284FB021313441B120AFB132305EBED
:100E4800C303D3E9002330463946FFF775FB024652
:100E58000B4630463946FFF7B9F9FFF72FFE1FFA60
:100E680080F8ADF802800BF1F00B84FB0B345C4486
:100E780024120AFB14B405EBC405D5E90023304657
:100E88003946FFF759FB02460B4630463946FFF70D
:100E98009DF9FFF713FE80B2ADF80400094B1B68FB
:100EA800C3F83490084A1268C2F83480074A1268B6
:100EB8001064D86303B0BDE8F08F00BFB7600BB60D
:100EC800B808002028150020F813002090140020EE
:100ED8000146164BA3FB00239B0903F1300214487B
:100EE80002704FF47A7202FB131292B2114BA3FBF9
:100EF80002C2520930324270A3FB01235B0964220B
:100F080002FB13139BB20C4AA2FB03C3DB0830336A
:100F18008370A2FB0123DB0803EB8303A1EB4301EE
:100F28003031C17000230371704700BFD34D621088
:100F3800AC0800201F85EB51CDCCCCCC08B5FFF711
:100F480017FE08BD10B50446C0B2FFF7E7FD2046FE
:100F580010BD08B5FFF748FE08BD72B6FEE700B53C
:100F680097B0282200210CA803F0E0FE0023079385
:100F7800089309930A930B930193029303930493A1
:100F88000593069302230C930122109210221192CA
:100F980013934FF4C01315930CA801F0C7F9D8B9EF
:100FA8000F23079302230893002309934FF48062C9
:100FB8000A920B93012107A801F0FAFC70B941F2DB
:100FC8000103019300230393069301A801F0F6FDA2
:100FD80030B917B05DF804FBFFF7BFFFFFF7BDFF9F
:100FE800FFF7BBFF0000000038B501F067F9FFF715
:100FF800B6FF00F0DFF803F0A9FC00F04FFA00F0AC
:101008005DFB00F0C1FA00F0FFFA00F01DF902F0F4
:101018007BF902F0DBFE564C23680021586803F088
:10102800E0FC23680021986803F0DBFC23680021BA
:10103800D86803F0D6FC4F4C2046FFF75FFD2046EA
:10104800FFF7C0FD4C4C0021204600F06BFF00214B
:10105800204601F01BF8494D0021284600F062FFA8
:101068000021284601F012F80C21454800F05AFFEB
:101078000821204601F00AF80021424800F052FFFA
:10108800414800F0EBFC00220221404801F03AFF01
:10109800002415E02046FFF7E5F933A3D3E9002340
:1010A800FFF74AFA00223A4BFFF770FB41EC100BAE
:1010B80004F0CAF8374B03EBC40383ED000B01348B
:1010C800B4F5B47FE6DB3448FFF748FD3348FFF753
:1010D80045FD32210020FFF785FE4FF4FA7001F03C
:1010E80011F9FFF777FEFFF775FE04462C48FFF766
:1010F80035FDA4B22046FFF7EBFEFFF72FFD294888
:10110800FFF72CFD2848FFF729FDFFF763FE001BBA
:10111800C0F30C05C0F34B03244AA2FB03135B0A7C
:1011280040F2924101FB13534FF4B47101FB03F3F6
:101138005B08A2FB03231A0B1D4DA5FB02029208B4
:1011480001FB02F2C2EB53225A32D008A5FB005031
:10115800800801FB10204FF4C87180B2FFF742FEEF
:10116800D3E700BFAFF30080182D4454FB2109409A
:10117800180000206816002028150020F813002009
:1011880090140020DC1400204414002000040048BF
:1011980000806640B8080020C8620008D8620008CD
:1011A800EC620008F8620008FC620008E1000EE04A
:1011B800176CC11670B588B0002403940494059484
:1011C800069407941E4B5A6942F480025A615A6980
:1011D80002F480020092009A5A6942F400325A617D
:1011E8005A6902F400320192019A5A6942F4802243
:1011F8005A615B6903F480230293029B2246102103
:101208004FF0904001F07EFE0E4D22460221284606
:1012180001F078FE102303930126049605940694A2
:1012280003A94FF0904001F08FFD02230393049629
:101238000594069403A9284601F086FD08B070BD00
:10124800001002400004004800B585B00023019357
:10125800029303930E480F4A02600722426083609C
:101268004FF6FF72C260836100F07EFC50B9002324
:101278000193039301A9064800F07AFF28B905B045
:101288005DF804FBFFF769FEF1E7FFF766FEF6E796
:10129800441400200010004082B003680F4A9342B3
:1012A80004D0B3F1804F0CD002B070470C4B9A6950
:1012B80042F400629A619B6903F400630093009B07
:1012C800F2E703F50433DA6942F00102DA61DB6917
:1012D80003F001030193019BE6E700BF002C0140E6
:1012E8000010024084B00368154A934207D0154A9B
:1012F80093420FD0144A934217D004B07047134B4F
:10130800DA6942F00202DA61DB6903F00203019351
:10131800019BF2E70D4BDA6942F01002DA61DB69F2
:1013280003F010030293029BE7E7084B9A6942F423
:1013380000329A619B6903F400330393039BDCE753
:10134800000400400010004000440140001002402A
:1013580030B58DB000230793089309930A930B9334
:101368000368484A93420AD0B3F1804F32D0464AC4
:10137800934247D0454A934259D00DB030BD444BB3
:101388005A6942F480025A615A6902F48002019251
:10139800019A5A6942F400325A615B6903F40033D6
:1013A8000293029B012307930225089506240B94B8
:1013B80007A9384801F0C8FC4FF410630793089553
:1013C800002309930A930B9407A94FF0904001F06A
:1013D800BBFCD2E703F504335A6942F400325A6180
:1013E8005B6903F400330393039B4FF400430793B3
:1013F8000223089301230B9307A94FF0904001F0B3
:10140800A3FCBAE7224B5A6942F480225A615B690D
:1014180003F480230493049B8023079302230893F7
:101428000A230B9307A91C4801F08EFCA5E7184B6B
:101438005A6942F400325A615A6902F4003205923C
:10144800059A5A6942F480225A615B6903F4802341
:101458000693069B4FF480530793022508950124B1
:101468000B9407A94FF0904001F06EFC40230793BE
:101478000895002309930A930B9407A9064801F0DD
:1014880063FC7AE7002C014000040040004401405E
:1014980000100240001400480004004810B596B03F
:1014A80000241394149415940C940D940E940F9492
:1014B8001094119412942C22214601A803F036FCB2
:1014C8002E482F4B03604460846040F2FF33C360B2
:1014D80004614461846100F077FB00283FD1202338
:1014E8001393002314938023159313A9234800F022
:1014F8003FFE002836D1234B0C9300220D920E920A
:101508000F9204231093119212920CA91B4800F019
:10151800C9FB50BB60230C9308220F920023109341
:101528000CA9164800F0BEFB10BB002301930293E0
:101538000393049305934FF400520692079308937C
:101548004FF0007209920A930B9301A90B4800F01F
:101558004BFE80B90948FFF7FBFE16B010BDFFF738
:10156800FCFCBCE7FFF7F9FCC5E7FFF7F6FCD1E7A1
:10157800FFF7F3FCD9E7FFF7F0FCEBE728150020AD
:10158800002C01406000010000B58BB000230793D8
:10159800089309930093019302930393049305938B
:1015A800069318484FF0804202604360836040F21F
:1015B800FF32C2600361836100F006FBC0B90023FB
:1015C8000793099307A90F4800F0D2FD98B9602343
:1015D800009300220192029204926946094800F0A1
:1015E80061FB58B90748FFF7B3FE0BB05DF804FB81
:1015F800FFF7B3FCE3E7FFF7B0FCE8E7FFF7ADFC64
:10160800F0E700BFDC14002000B591B000230B9375
:101618000C930D930E930F93089309930A930193D8
:101628000293039304930593069307932148224A50
:1016380002604360836040F2FF32C26003618361ED
:1016480000F092FA30BB1B4800F0BEFA28BB062314
:101658000B9300230C930BA9164800F02BFCF8B948
:10166800002308930A9308A9124800F081FDD0B915
:101678006023019300230293039305930C2201A98D
:101688000C4800F00FFB88B90A48FFF761FE11B05B
:101698005DF804FBFFF761FCD5E7FFF75EFCD6E7D2
:1016A800FFF75BFCDCE7FFF758FCE1E7FFF755FCC9
:1016B800EAE700BF901400200004004010B592B083
:1016C80000240B940C940D940E940F941094119480
:1016D8002C222146684603F029FB2048204B036052
:1016E8004460846040F2FF33C360046144618461F4
:1016F80000F03AFA30BB194800F066FA28BB6023BC
:101708000B9300220C920D920E920F92109211924E
:101718000BA9124800F0C6FAD0B900230093019330
:101728000293039304934FF40052059206930A938D
:1017380069460A4800F058FD68B90848FFF708FEEE
:1017480012B010BDFFF709FCD5E7FFF706FCD6E796
:10175800FFF703FCE1E7FFF700FCEEE7F8130020D2
:1017680000440140FEE7FEE7FEE7FEE7FEE77047BC
:101778007047704708B500F0B3FD08BD08B50248CA
:1017880001F09AFC08BD00BFE015002008B502482A
:1017980001F092FC08BD00BF2416002008B50248DD
:1017A80002F098FC08BD00BF6816002082B00A4B02
:1017B8009A6942F001029A619A6902F00102009264
:1017C800009ADA6942F08052DA61DB6903F08053EB
:1017D8000193019B02B070470010024030B4026AC6
:1017E800036A23F0010303624468836923F48033A6
:1017F80023F073030D681D4322F002028B68134324
:10180800184A90420BD002F5A052904207D002F538
:101818008062904203D002F58062904205D123F0A5
:101828000803CA681A4322F004030E4A90420BD0F8
:1018380002F5A052904207D002F58062904203D090
:1018480002F58062904205D124F440744A6922432B
:101858008C691443446085614A684263036230BC02
:10186800704700BF002C014030B4036A026A22F4BA
:10187800807202624268C46924F4803C2CF0730CC4
:101888000C6844EA0C0523F400738C6843EA0423CB
:10189800124CA0420BD0124CA0420FD004F5806429
:1018A800A0420BD004F58064A0420FD106E023F4D7
:1018B8000063CC6843EA042323F4806322F4405293
:1018C8004C6942EA04128C6942EA04124260C5611A
:1018D8004A68C263036230BC704700BF002C0140F5
:1018E8000040014030B4026A036A23F48053036263
:1018F8004468C36923F0807323F4E6430D6843EA20
:10190800052322F400528D6842EA05320D4DA842A3
:101918000BD005F5A055A84207D005F58065A8426B
:1019280003D005F58065A84204D124F480444D69AC
:1019380044EA85144460C3614B680364026230BCA6
:10194800704700BF002C014030B4036A026A22F4D9
:10195800803202624468426D22F4803222F07002C2
:101968000D682A4323F400338D6843EA05430D4D7F
:10197800A8420BD005F5A055A84207D005F580650B
:10198800A84203D005F58065A84204D124F4803428
:101998004D6944EA0524446042654A6882650362E9
:1019A80030BC7047002C014030B4026A036A23F44B
:1019B800801303624468436D23F0807323F4E0438B
:1019C8000D6843EA052322F400128D6842EA0552A5
:1019D8000D4DA8420BD005F5A055A84207D005F536
:1019E8008065A84203D005F58065A84204D124F497
:1019F80080244D6944EA8524446043654B68C36587
:101A0800026230BC704700BF002C014010B4036A6A
:101A1800046A24F001040462846924F0F00C4CEA9E
:101A2800021223F00A030B43826103625DF8044B40
:101A3800704710B4036A046A24F0100404628469CD
:101A480024F4704C4CEA023223F0A00343EA011359
:101A5800826103625DF8044B7047000090F83D30E6
:101A6800DBB2012B25D1022380F83D300368144AEC
:101A7800934210D0B3F1804F0DD0A2F59432934227
:101A880009D002F59E32934205D01A6842F001024D
:101A98001A600020704799680A4A0A40062A0AD044
:101AA800B2F5803F09D01A6842F001021A6000209E
:101AB800704701207047002070470020704700BF22
:101AC800002C0140070001000368264A904206D016
:101AD800B0F1804F03D0A2F59432904203D123F0A5
:101AE80070034A6813431F4A904212D0B0F1804FE6
:101AF8000FD0A2F5943290420BD002F59E3290425C
:101B080007D002F58062904203D002F580629042CD
:101B180003D123F44073CA68134323F080034A694E
:101B2800134303608B68C3620B6883620D4B984252
:101B38000BD003F5A053984207D003F58063984271
:101B480003D003F58063984201D10B690363012335
:101B58004361036913F0010F03D0036923F0010304
:101B680003617047002C014060B310B5044690F83B
:101B78003D3013B3022384F83D30214651F8040B5D
:101B8800FFF7A2FF012384F8483084F83E3084F838
:101B98003F3084F8403084F8413084F8423084F88B
:101BA800433084F8443084F8453084F8463084F86B
:101BB800473084F83D30002010BD80F83C30FFF7F6
:101BC80091FBD7E70120704760B310B5044690F841
:101BD8003D3013B3022384F83D30214651F8040BFD
:101BE800FFF772FF012384F8483084F83E3084F808
:101BF8003F3084F8403084F8413084F8423084F82B
:101C0800433084F8443084F8453084F8463084F80A
:101C1800473084F83D30002010BD80F83C30FFF795
:101C28003BFBD7E70120704730B4036A026A22F011
:101C3800100202624268846924F0807C2CF4E64C2D
:101C48000C684CEA042423F020038D6843EA05134A
:101C5800124DA8420BD0124DA8420FD005F5806551
:101C6800A8420BD005F58065A8420FD106E023F005
:101C78008003CD6843EA051323F0400322F4406251
:101C88004D6942EA85028D6942EA850242608461B3
:101C98004A688263036230BC704700BF002C014071
:101CA8000040014038B590F83C30012B00F0958099
:101CB80004460D46012380F83C30142A00F288803F
:101CC800DFE802F00B8686861F868686348686863F
:101CD800488686865D86868671000068FFF77EFDE9
:101CE8002268936943F0080393612268936923F09B
:101CF800040393612268936929690B439361002067
:101D080067E00068FFF790FF2268936943F4006377
:101D180093612268936923F48063936122689369CD
:101D2800296943EA01239361002052E00068FFF724
:101D38009BFD2268D36943F00803D3612268D36905
:101D480023F00403D3612268D36929690B43D36163
:101D580000203EE00068FFF7C5FD2268D36943F420
:101D68000063D3612268D36923F48063D361226856
:101D7800D369296943EA0123D361002029E0006877
:101D8800FFF7E2FD2268536D43F0080353652268AC
:101D9800536D23F0040353652268536D29690B437F
:101DA8005365002015E00068FFF7FEFD2268536DBB
:101DB80043F4006353652268536D23F480635365CD
:101DC8002268536D296943EA01235365002000E026
:101DD8000120002384F83C3038BD0220FCE710B411
:101DE800846824F47F4C42EA03220A4342EA0C0244
:101DF80082605DF8044B704710B50468A26822F051
:101E080070024B68134323F4803323F007030A68F6
:101E18001A43A2604B68502B32D00BD9602B36D0B6
:101E2800702B43D10B698A68C9680068FFF7D7FF30
:101E380000200FE0402B0ED001D901200AE0202B12
:101E48002CD003D9302B2FD1002003E043B3102B23
:101E580028D1002010BD0B68052B29D003681C6A07
:101E68001A6A22F001021A620268936923F0F003E9
:101E7800096943EA0113936103681C620020E9E7DA
:101E88000A6989680068FFF7C1FD0020E2E70A696E
:101E980089680068FFF7CDFD0020DBE70020D9E75F
:101EA8000020D7E70120D5E70120D3E70120D1E7BB
:101EB8000120CFE790F83C30012B22D010B5044622
:101EC800012380F83C30022380F83D30FFF794FF6F
:101ED80080B92268D36823F04003D3602268D368AE
:101EE80023F48043D360012384F83D30002384F831
:101EF8003C3010BD012084F83D00002384F83C30BC
:101F0800F7E70220704701F01F014FF0010C0CFAAF
:101F180001FC036A23EA0C030362036A8A40134341
:101F28000362704710B5044610293CD8DFE801F079
:101F3800093B3B3B1F3B3B3B263B3B3B2D3B3B3B5A
:101F4800340090F83E30DBB2013B18BF0123002B70
:101F580040F0828010296DD8DFE801F02C6C6C6CA1
:101F68005C6C6C6C606C6C6C646C6C6C680090F88D
:101F78003F30DBB2013B18BF0123E8E790F840305F
:101F8800DBB2013B18BF0123E1E790F84130DBB237
:101F9800013B18BF0123DAE790F84230DBB2013B7E
:101FA80018BF0123D3E790F84330DBB2013B18BFD9
:101FB8000123CCE7022384F83E3001222068FFF792
:101FC800A2FF2368274A93420BD002F5A0529342FE
:101FD80007D002F58062934203D002F580629342F3
:101FE80003D15A6C42F400425A6423681D4A934252
:101FF80024D0B3F1804F21D0A2F5943293421DD062
:1020080002F59E32934219D01A6842F001021A6012
:10201800002022E0022384F83F30CEE7022384F830
:102028004030CAE7022384F84130C6E7022384F827
:102038004230C2E7022384F84330BEE799680A4A6F
:102048000A40062A0AD0B2F5803F09D01A6842F041
:1020580001021A60002000E0012010BD0020FCE70A
:102068000020FAE7002C01400700010001F00F01F1
:102078004FF0040C0CFA01FC036A23EA0C03036218
:10208800036A8A40134303627047000010B5044690
:10209800084659BB94F84430DBB2013B18BF012312
:1020A800002B5AD100283AD1022384F84430042264
:1020B80001462068FFF7DAFF2268536C43F40043B7
:1020C80053642368284A934239D0B3F1804F36D0FD
:1020D800A2F59432934232D002F59E3293422ED02A
:1020E8001A6842F001021A60002037E0042908D07B
:1020F80008290DD094F84730DBB2013B18BF012303
:10210800CEE794F84530DBB2013B18BF0123C7E79F
:1021180094F84630DBB2013B18BF0123C0E704281E
:1021280005D0082807D0022384F84730BFE70223E8
:1021380084F84530BBE7022384F84630B7E799684E
:102148000A4A0A40062A0AD0B2F5803F09D01A681E
:1021580042F001021A60002000E0012010BD0020BA
:10216800FCE70020FAE700BF002C0140070001004F
:1021780090F83C20012A33D030B40346012280F87D
:102188003C20022280F83D20006842688468154D92
:10219800A84220D022F070020D682A4342601A68D3
:1021A800104882420AD0B2F1804F07D0A0F594308F
:1021B800824203D000F59E30824204D124F080048C
:1021C800896821439160012283F83D20002083F82B
:1021D8003C0030BC704722F470024D682A43D9E7AE
:1021E80002207047002C014090F83C30012B3BD076
:1021F80010B40246012380F83C30CB6823F44073C6
:102208008868034323F480634868034323F4006326
:102218000868034323F480530869034323F40053F5
:102228004869034323F48043886A034323F47023F3
:10223800886943EA004310680C4CA04206D0436406
:10224800002082F83C005DF8044B704723F47003CB
:102258004C6A43EA045323F08073CC69234323F088
:102268000073096A0B43EAE702207047002C01401B
:1022780010B504460E4B1A784FF47A73B3FBF2F399
:102288000C4A1068B0FBF3F000F0D4FF68B90F2CCB
:1022980001D901200AE0002221464FF0FF3000F06A
:1022A800ABFF054B1C60002000E0012010BD00BF03
:1022B80000000020080000200400002008B5074A9C
:1022C800136843F010031360032000F083FF00201D
:1022D800FFF7CEFFFFF76AFA002008BD0020024092
:1022E800034A1168034B1B780B441360704700BF07
:1022F8007415002000000020014B1868704700BFCB
:102308007415002038B50446FFF7F6FF0546B4F10A
:10231800FF3F02D0044B1B781C44FFF7EDFF401B26
:10232800A042FAD338BD00BF00000020002800F00A
:10233800FF8270B582B00446036813F0010F3BD0EA
:10234800B44B5B6803F00C03042B1ED0B14B5B68E5
:1023580003F00C03082B13D06368B3F5803F68D0F3
:10236800002B40F0928003F1804303F504331A6890
:1023780022F480321A601A6822F480221A605DE022
:10238800A44B5B6813F4803FE6D04FF4003393FA14
:10239800A3F3A04B19684FF4003393FAA3F3B3FAED
:1023A80083F303F01F03012202FA03F30B4203D065
:1023B8006368002B00F0BE82236813F0020F00F060
:1023C800C480944B5B6813F00C0F00F09C80914B19
:1023D8005B6803F00C03082B00F08F802369002B47
:1023E80000F0F080012292FAA2F3B3FA83F303F12A
:1023F800845303F584139B001A60FFF77DFF05469D
:10240800022393FAA3F3834B1968022393FAA3F3E5
:10241800B3FA83F303F01F03012202FA03F30B421A
:1024280040F0C280FFF768FF401B0228E8D903206C
:1024380089E2784A136843F480331360754AD36A93
:1024480023F00F03A1680B43D3626368002B36D0D7
:10245800FFF752FF05464FF4003393FAA3F36D4B91
:1024680019684FF4003393FAA3F3B3FA83F303F034
:102478001F03012202FA03F30B429DD1FFF73CFF31
:10248800401B6428E7D903205DE2B3F5A02F09D0EB
:10249800604B1A6822F480321A601A6822F480228B
:1024A8001A60CBE703F18043A3F53C331A6842F482
:1024B80080221A601A6842F480321A60BEE7FFF779
:1024C8001BFF05464FF4003393FAA3F3514B1968E9
:1024D8004FF4003393FAA3F3B3FA83F303F01F0323
:1024E800012202FA03F30B423FF466AFFFF704FF41
:1024F800401B6428E6D9032025E2464B5B6813F4A9
:10250800803F7FF46BAF022393FAA3F3414B196822
:10251800022393FAA3F3B3FA83F303F01F03012210
:1025280002FA03F30B4203D02369934240F004827A
:102538003848036823F0F8036169F82292FAA2F296
:10254800B2FA82F291400B430360236813F0080F3C
:1025580000F08C80A369002B60D0012191FAA1F2D0
:10256800B2FA82F22C4B13449B001960FFF7C4FEA9
:102578000546022393FAA3F293FAA3F293FAA3F27D
:10258800244A516A93FAA3F3B3FA83F303F01F03BF
:10259800012202FA03F30B4268D1FFF7ADFE401B9C
:1025A8000228E6D90320CEE11A48036823F0F8038D
:1025B8006169F82292FAA2F2B2FA82F291400B43D0
:1025C8000360C2E7012393FAA3F3B3FA83F303F199
:1025D800845303F584139B0000221A60FFF78CFED6
:1025E8000546022393FAA3F30A4B1968022393FAC8
:1025F800A3F3B3FA83F303F01F03012202FA03F3F0
:102608000B42A2D0FFF778FE401B0228E9D903202D
:1026180099E100BF0010024020819010012292FA37
:10262800A2F2B2FA82F2B74B13449B0000221A605E
:10263800FFF762FE0546022393FAA3F293FAA3F288
:1026480093FAA3F2B04A516A93FAA3F3B3FA83F365
:1026580003F01F03012202FA03F30B4206D0FFF72F
:102668004BFE401B0228E6D903206CE1236813F0D7
:10267800040F00F0A980A44BDB6913F0805F20D120
:10268800A14BDA6942F08052DA61DB6903F08053CA
:102698000193019B01259D4B1B6813F4807F12D089
:1026A800E368012B23D073BB03F1804303F50433A4
:1026B8001A6A22F001021A621A6A22F004021A62E5
:1026C8001AE00025E7E7914A136843F48073136022
:1026D800FFF712FE06468D4B1B6813F4807FDFD18F
:1026E800FFF70AFE801B6428F5D903202BE1864AF0
:1026F800136A43F001031362E368002B3CD0FFF731
:10270800FBFD06462EE0052B09D07F4B1A6A22F006
:1027180001021A621A6A22F004021A62ECE77A4B82
:102728001A6A42F004021A621A6A42F001021A6234
:10273800E2E7022393FAA3F3734B596A022393FA4D
:10274800A3F3B3FA83F303F01F03012202FA03F39E
:10275800194238D1FFF7D0FD801B41F288339842E7
:1027680000F2EC80022393FAA3F293FAA3F3002B6E
:10277800DFD0654B196AE1E7FFF7BEFD064618E0B2
:10278800022393FAA3F3604B596A022393FAA3F343
:10279800B3FA83F303F01F03012202FA03F3194289
:1027A80011D0FFF7A9FD801B41F28833984200F24F
:1027B800C780022393FAA3F293FAA3F3002BDFD086
:1027C800514B196AE1E7B5BBE369002B00F0BA8009
:1027D8004D4A526802F00C02082A00F09980022B38
:1027E8002FD04FF0807393FAA3F3B3FA83F303F176
:1027F800845303F584139B0000221A60FFF77CFDC5
:1028080004464FF0007393FAA3F33F4B19684FF057
:10281800007393FAA3F3B3FA83F303F01F030122BF
:1028280002FA03F319426BD0FFF766FD001B02287A
:10283800E7D9032087E0344AD36923F08053D36172
:10284800C2E74FF0807393FAA3F3B3FA83F303F16B
:10285800845303F584139B0000221A60FFF74CFD94
:1028680005464FF0007393FAA3F3274B19684FF00E
:10287800007393FAA3F3B3FA83F303F01F0301225F
:1028880002FA03F3194206D0FFF736FD401B02286F
:10289800E7D9032057E01C494B6823F47413626A94
:1028A800206A024313434B604FF0807393FAA3F3FB
:1028B800B3FA83F303F1845303F584139B000122D5
:1028C8001A60FFF719FD04464FF0007393FAA3F35B
:1028D8000D4B19684FF0007393FAA3F3B3FA83F31F
:1028E80003F01F03012202FA03F3194206D1FFF78E
:1028F80003FD001B0228E7D9032024E0002022E082
:10290800002020E02081901000100240007000405C
:10291800012B1AD0104B5B6803F48031226A914274
:1029280015D103F47013626A934212D100200AE0B1
:1029380001207047012006E0012004E0032002E0A6
:10294800032000E0002002B070BD0120FBE7012059
:10295800F9E70120F7E700BF001002400F4B5B6862
:1029680003F00C02082A01D00D487047C3F38342D4
:102978000C49885C094AD26A02F00F020A498A5C4B
:1029880013F4803F05D0064BB3FBF2F303FB00F0D2
:102998007047064B03FB00F0704700BF0010024071
:1029A80000127A00206300081063000800093D0047
:1029B800002800F0BE8070B50D460446614B1B68C8
:1029C80003F007038B420BD25E4A136823F0070318
:1029D8000B431360136803F007038B4240F0AB808E
:1029E800236813F0020F06D0574A536823F0F00308
:1029F800A1680B435360236813F0010F5AD0636832
:102A0800012B2DD0022B40D0022292FAA2F24E4A7C
:102A18001068022292FAA2F2B2FA82F202F01F02BF
:102A2800012101FA02F2104200F0878046494A6803
:102A380022F0030213434B60FFF75EFC0646424B4D
:102A48005B6803F00C036268B3EB820F32D0FFF7C8
:102A580053FC801B41F288339842F0D9032067E089
:102A68004FF4003292FAA2F2374A10684FF400325B
:102A780092FAA2F2B2FA82F202F01F02012101FADE
:102A880002F20242D2D1012052E04FF0007292FAD3
:102A9800A2F22D4A10684FF0007292FAA2F2B2FA2E
:102AA80082F202F01F02012101FA02F21042BDD1A6
:102AB80001203DE0234B1B6803F00703AB420AD912
:102AC800204A136823F007032B431360136803F0AD
:102AD8000703AB4233D1236813F0040F06D01A4A18
:102AE800536823F4E063E1680B435360236813F0F1
:102AF800080F07D0144A536823F46053216943EA46
:102B0800C1035360FFF72AFF0F4B5B6803F0F00324
:102B1800F02292FAA2F2B2FA82F2D3400B4AD35CC4
:102B2800D8400B4B18600B4B1868FFF7A1FB00202F
:102B380070BD012070470120FAE70120F8E7012065
:102B4800F6E700BF0020024000100240386300088A
:102B58000800002004000020014B1868704700BFDF
:102B68000800002008B5FFF7F7FF074B5B6803F480
:102B7800E0634FF4E06292FAA2F2B2FA82F2D34032
:102B8800024AD35CD84008BD0010024030630008F8
:102B980008B5FFF7E1FF074B5B6803F460534FF498
:102BA800605292FAA2F2B2FA82F2D340024AD35C9D
:102BB800D84008BD0010024030630008F0B583B06B
:102BC8000446036813F4803F44D05C4BDB6913F080
:102BD800805F6DD1594BDA6942F08052DA61DB6966
:102BE80003F080530193019B0125554B1B6813F497
:102BF800807F5FD0514B1B6A13F4407321D0626809
:102C080002F440729A421CD04C48016A21F4407682
:102C18004FF4803393FAA3F2B2FA82F2494F3A445E
:102C280092004FF0010CC2F800C093FAA3F3B3FA74
:102C380083F33B449B0000221A60066211F0010FE7
:102C48004CD13E4A136A23F4407361680B43136204
:102C5800002D69D1236813F0010F06D0374A136B92
:102C680023F00303A1680B431363236813F0200FB9
:102C780006D0324A136B23F01003E1680B43136349
:102C8800236813F0800F06D02C4AD36A23F4F87314
:102C980021690B43D362236813F4805F4BD0274A22
:102CA800136B23F4807361690B431363002043E0C3
:102CB80000259AE7224A136843F480731360FFF7EC
:102CC8001BFB06461E4B1B6813F4807F92D1FFF74F
:102CD80013FB801B6428F5D903202DE0FFF70CFBBC
:102CE800064617E0022393FAA3F3144B596A02230A
:102CF80093FAA3F3B3FA83F303F01F03012202FA52
:102D080003F30B429DD1FFF7F7FA801B41F288339A
:102D180098420ED8022393FAA3F293FAA3F3002B56
:102D2800E0D0064B196AE2E7D36923F08053D361F8
:102D380090E7032000E0002003B0F0BD001002403F
:102D48000070004000819010F0B583B0002362E06D
:102D580085685E000324B44025EA0405CC68B440C5
:102D68002C438460456825EA0C054C68C4F30014BC
:102D78009C402C4344605FE0DD08083550F825404E
:102D880003F0070C4FEA8C0C4FF00F0E0EFA0CFEF6
:102D980024EA0E0E0C6904FA0CF444EA0E0440F816
:102DA800254060E0032400E0002404FA0EF42C43DC
:102DB8000CF1020C4F4D45F82C404F4CA568D443FC
:102DC80025EA02064F6817F4801F01D042EA05067B
:102DD800494DAE60ED6804EA05064F6817F4001F18
:102DE80001D042EA0506444DEE606D6804EA050626
:102DF8004F6817F4003F01D042EA05063E4D6E6069
:102E08002D682C404E6816F4803F01D042EA050434
:102E1800394A146001330A6832FA03F468D04FF073
:102E2800010C0CFA03FC1CEA0202F3D04C6804F013
:102E38000304013C012C8BD94C6804F00304032CD7
:102E48000CD0C4685D004FF0030C0CFA05FC24EAB2
:102E58000C0C8C68AC4044EA0C04C4604C6804F068
:102E68000304022C88D004684FEA430E4FF0030C89
:102E78000CFA0EFC24EA0C0C4C6804F0030404FA67
:102E88000EF444EA0C0404604C6814F4403FC1D0CA
:102E98001A4CA56945F00105A561A46904F001046F
:102EA8000194019C4FEA930C0CF10205114C54F863
:102EB800255003F0030E4FEA8E0E0F2404FA0EF489
:102EC80025EA0405B0F1904F3FF46EAF0C4CA042D8
:102ED8000AD004F58064A04208D004F58064A042BA
:102EE8003FF460AF052460E701245EE702245CE755
:102EF80003B0F0BD00000140000401400010024092
:102F0800000400480AB1816170478162704730B49B
:102F18000124056CAC40C56B6C6004686360436851
:102F2800102B05D0036899600368DA6030BC7047DD
:102F380003689A600368D960F8E700000268054BE7
:102F48001344054AA2FB03231B099B000364034B9C
:102F5800C3637047F8FFFDBFCDCCCCCC0000024066
:102F680020B310B50446022380F8213001680A68AE
:102F780022F47F5222F03002436880680343E068FD
:102F880003432069034360690343A0690343E0697D
:102F9800034313430B602046FFF7D0FF0020A063D4
:102FA800012384F8213084F8200010BD01207047E7
:102FB80038B5044690F82000012831D0012084F863
:102FC800200094F82100012804D0002384F8203040
:102FD800022038BD022084F821000020A063256863
:102FE800286820F0010028602046FFF790FFE36A78
:102FF8005BB12268136843F00E03136022681368FC
:1030080043F0010313600020E3E72268136843F0EC
:103018000A0313602268136823F004031360EDE7C2
:103028000220D6E7034600B390F82120022A06D0F2
:1030380004228263002280F8202001207047016862
:103048000A6822F00E020A6001680A6822F001028A
:103058000A60026CC06B012101FA02F2426083F837
:103068002110002083F8200070470120704708B520
:1030780090F82130022B03D004238363012008BD7C
:103088000268136823F00E0313600268136823F0C4
:1030980001031360036CC16B012202FA03F34B6056
:1030A80080F82120002380F82030436B13B1984723
:1030B8000020E4E70020E2E738B5C36B1A6804682B
:1030C8002568016C04238B40134213D015F0040FBC
:1030D80010D0236813F0200F03D1236823F00403D2
:1030E8002360016CC26B04238B405360C36A03B135
:1030F800984738BD02238B4013421AD015F0020FAF
:1031080017D0236813F0200F06D1236823F00A0391
:103118002360012380F82130016CC26B02238B40AD
:103128005360002380F82030836A002BE1D0984751
:10313800DFE708238B401342DBD015F0080FD8D007
:10314800236823F00E032360026CC16B012303FA8A
:1031580002F24A60836380F82130002380F820302F
:10316800036B002BC5D09847C3E70000002808DB95
:103178000901C9B200F1604000F5614080F8001310
:10318800704700F00F000901C9B2014B195470478C
:1031980014ED00E000B500F00700C0F1070CBCF129
:1031A800040F28BF4FF0040C031D062B0FD9C31EB4
:1031B8004FF0FF3E0EFA0CF021EA000199400EFA9A
:1031C80003FE22EA0E0241EA02005DF804FB002336
:1031D800EEE70000074AD36823F4E0631B041B0CE6
:1031E800000200F4E060034343F0BF6343F400339C
:1031F800D360704700ED00E010B50446054BD86871
:10320800C0F30220FFF7C6FF01462046FFF7AEFFD6
:1032180010BD00BF00ED00E0002807DB00F01F0232
:10322800400901239340024A42F82030704700BF0A
:1032380000E100E00138B0F1807F0BD24FF0E023CD
:103248005861054AF02182F823100020986107226E
:103258001A6170470120704700ED00E0034AD2F878
:10326800883043F47003C2F88830704700ED00E0FE
:1032780010B503460C4A0D490D48006840B10C488A
:1032880000680344521A934206D8094A136010BDD5
:103298000748084C0460F2E701F062FD0C23036064
:1032A8004FF0FF30F3E700BF0030002000040000BB
:1032B800781500204018002070B50C4616460025E9
:1032C80006E0FDF746FE214601F8010B01350C46E4
:1032D800B542F6DB304670BD70B50C461646002583
:1032E80004E014F8010BFDF72DFE0135B542F8DBBB
:1032F800304670BD4FF0FF3070474FF400534B60BD
:10330800002070470020704708B51148114B036032
:103318004FF482734360002383604FF47062C2608D
:1033280002220261012242614FF400728261182276
:10333800C2610362436283620722C262036343631A
:1033480000F08CF900B908BDFDF707FEFBE700BFE8
:103358007C1500200030014000B589B0002303939C
:1033680004930593069307930268144B9A4202D07C
:1033780009B05DF804FB03F560439A6942F4805292
:103388009A619A6902F480520192019A5A6942F448
:1033980000325A615B6903F400330293029BE02315
:1033A800039302230493032306930523079303A996
:1033B8004FF09040FFF7C8FCDAE700BF003001404B
:1033C8002DE9F04782B00546884617461E46FEF7A7
:1033D80093FF0A9B1B1A03EB0609FEF78DFF824633
:1033E800284B1B68C3F3CB3309FB03F301932B680A
:1033F8009C6838EA04040CBF01230023BB423DD07B
:10340800B6F1FF3FF3D0FEF777FFA0EB0A0048457F
:1034180007D2019A02B14A46019B013B01939146AA
:10342800E5E72A68536823F0E00353606B68B3F557
:10343800827F0BD0AB6AB3F5005F14D0012385F807
:103448005D30002385F85C30032018E0AB68B3F5E5
:10345800004F02D0B3F5806FECD12A68136823F0CF
:1034680040031360E6E72A68136823F400531360E7
:103478002A68136843F400531360DFE7002002B0A2
:10348800BDE8F087080000202DE9F04782B0064625
:103498000C4615461F4600238DF80330FEF72CFF17
:1034A8000A9B1B1A03EB0708FEF726FF8146D6F88E
:1034B80000A0304B1B6803EB8303C3EBC3031B0D56
:1034C80008FB03F3019302E0B7F1FF3F12D1336821
:1034D8009B6803EA040CAC4547D0B4F5C06FF3D140
:1034E800002DF1D19AF80C30DBB28DF803309DF83D
:1034F8000330E9E7FEF700FFA0EB0900404507D2DB
:10350800019A02B14246019B013B01939046DEE7D6
:103518003268536823F0E00353607368B3F5827F21
:103528000BD0B36AB3F5005F14D0012386F85D3081
:10353800002386F85C30032018E0B368B3F5004F29
:1035480002D0B3F5806FECD13268136823F04003E2
:103558001360E6E73268136823F400531360326897
:10356800136843F400531360DFE7002002B0BDE89E
:10357800F08700BF0800002070B582B004460D46F1
:10358800164600920B4600224FF4C051FFF77CFF0D
:10359800B0B900962B46002280212046FFF710FF85
:1035A800A8B900962B4600224FF4C0612046FFF7C9
:1035B8006BFF50B1236E43F020032366032004E021
:1035C800236E43F020032366032002B070BD236EF0
:1035D80043F0200323660320F7E770B582B0044662
:1035E8000D4616464368B3F5827F0DD000962B46EC
:1035F800002280212046FFF7E3FE90B96368B3F507
:10360800827F14D002B070BD8368B3F5004F02D03A
:10361800B3F5806FEAD12268136823F04003136082
:10362800E4E7236E43F0200323660320EAE7A36858
:10363800B3F5004F02D0B3F5806FE3D100962B4667
:1036480000224FF4C0612046FFF71EFF0028D9D0A2
:10365800236E43F0200323660320D3E700286AD0B3
:1036680010B50446436A33B94368B3F5827F05D081
:103678000023C36102E00023036143610023A362C6
:1036880094F85D30002B4DD0022384F85D30226819
:10369800136823F040031360E368B3F5E06F47D97C
:1036A8000022B3F5706F04D0B3F5E06F01D00023AA
:1036B800A362636803F48273A16801F404410B43B5
:1036C800216901F002010B43616901F001010B431B
:1036D800A16901F400710B43E16901F038010B4362
:1036E800216A01F080010B43A16A01F400512068AE
:1036F8000B430360638B03F00403616A01F010015C
:103708000B43616B01F008010B43E16801F4706140
:103718000B4321681A434A6000202066012384F87D
:103728005D3010BD84F85C302046FFF715FEABE72E
:103738004FF48052B5E7012070472DE9F04383B07C
:103748001D4690F85C30012B00F0F4800446884652
:103758009146012380F85C30FEF7CEFD074694F8C9
:103768005D60F6B2012E40F0DD80B8F1000F00F088
:10377800DA80B9F1000F00F0D680032384F85D30B9
:1037880000232366C4F83880A4F83C90A4F83E903F
:103798002364A4F84430A4F846302365E364A3689E
:1037A800B3F5004F1ED023681A6812F0400F03D1FA
:1037B8001A6842F040021A60E368B3F5E06F44D932
:1037C800636813B1B9F1010F20D1A26B2368128885
:1037D800DA60A36B0233A363E38F9BB2013B9BB216
:1037E800E38713E02268136823F04003136022681C
:1037F800136843F480431360D5E7FEF77DFDC01BD3
:10380800A84202D3B5F1FF3F1AD1CDB1E38F9BB2E5
:10381800002B6FD023689A6812F0020FEDD0A26BCC
:103828001288DA60A36B0233A363B4F83EC01FFAB0
:103838008CFC0CF1FF3C1FFA8CFCA4F83EC0E5E7B9
:10384800012384F85D3003266DE0636813B1B9F194
:10385800010F32D1E38F9BB2012B0CD9A26B2368E5
:103868001288DA60A36B0233A363E38F9BB2023B37
:103878009BB2E38721E0A26B236812781A73A36BCB
:103888000133A363E38F9BB2013B9BB2E38714E050
:10389800A36B1B781373A36B0133A363E38F9BB2F2
:1038A800013B9BB2E38708E0FEF726FDC01BA84258
:1038B80002D3B5F1FF3F18D1BDB1E38F9BB2CBB1B5
:1038C8002268936813F0020FEED0E38F9BB2012BAE
:1038D800DED9A36B1B88D360A36B0233A363E38F8A
:1038E8009BB2023B9BB2E387E7E7012384F85D3094
:1038F800032618E03A4629462046FFF73DFE08B160
:1039080020232366A36833B901932368DA680192F8
:103918009B680193019B236E2BB9012384F85D30CA
:10392800002600E00226002384F85C30304603B00D
:10393800BDE8F0830226F9E72DE9F8431F46089D04
:1039480090F85C30012B00F06B8104468846914664
:10395800012380F85C30FEF7CFFC064694F85D3012
:10396800DBB26268012B0AD0B2F5827F40F0468153
:10397800A268002A40F04881042B40F04781B8F142
:10398800000F00F04581B9F1000F00F04381002FCE
:1039980000F0428194F85D30DBB2042B02D005239D
:1039A80084F85D3000232366C4F84090A4F846707C
:1039B800A4F84470C4F83880E787A787E3642365D0
:1039C800E368B3F5E06F01D8012F23D92268536863
:1039D80023F48053536023681A6812F0400F03D110
:1039E8001A6842F040021A60E368B3F5E06F5CD9E8
:1039F80063680BB1012F0BD1A26B23681288DA60C0
:103A0800A36B0233A363E38F9BB2013B9BB2E387B3
:103A1800012730E02268536843F480535360DAE7A3
:103A2800A26B1288DA60A36B0233A363E38F9BB2A5
:103A3800013B9BB2E387002723689A6812F0010FC5
:103A480011D0B4F8462092B26AB1DA68236C1A80B1
:103A5800236C02332364B4F846309BB2013B9BB21B
:103A6800A4F846300127FEF747FC831BAB4202D37C
:103A7800B5F1FF3F14D1E38F9BB22BB9B4F84630B0
:103A88009BB2002B00F0AB8023689A6812F0020FFB
:103A9800D2D0E28F92B2002ACED0002FCCD0BFE78E
:103AA800012384F85D300320A9E063680BB1012F7E
:103AB8000FD1E38F9BB2012B0DD9A26B236812881B
:103AC800DA60A36B0233A363E38F9BB2023B9BB222
:103AD800E387012749E0A26B236812781A73A36B66
:103AE8000133A363E38F9BB2013B9BB2E387F0E70B
:103AF800E28F92B2012A0CD9A26B1288DA60A36B0A
:103B08000233A363E38F9BB2023B9BB2E387002798
:103B18003DE0A26B12781A73A36B0133A363E38FA2
:103B28009BB2013B9BB2E387002730E022685368D1
:103B380043F48053536001270DE0226C1B7B137004
:103B4800236C01332364B4F846309BB2013B9BB22B
:103B5800A4F846300127FEF7CFFB801BA84202D30A
:103B6800B5F1FF3F36D1002D34D0E38F9BB223B996
:103B7800B4F846309BB2002B31D023689A6812F013
:103B8800020F04D0E28F92B20AB1002FB0D123689D
:103B98009A6812F0010FDED0B4F8462092B2002ADB
:103BA800D9D0B4F8462092B2012AC6D9DA68236C73
:103BB8001A80236C02332364B4F846309BB2023B6C
:103BC8009BB2A4F84630B4F846309BB2012BADD96D
:103BD8000127C0E7012384F85D3003200FE0324657
:103BE80029462046FFF7C8FC10B120232366012090
:103BF800236E9BB9012384F85D3000E00220002386
:103C080084F85C30BDE8F8830220F8E70220F6E784
:103C18000120F4E70120F2E70120F0E70120EEE7B8
:103C28000220EFE72DE9F04383B0044690F85D6089
:103C3800F6B2012E40F0C080884691461D46436882
:103C4800B3F5827F3DD094F85C30012B00F0BC8046
:103C5800012384F85C30FEF74FFB0746B8F1000FEC
:103C680000F0AB80B9F1000F00F0A780042384F8BE
:103C78005D3000232366C4F84080A4F84490A4F87B
:103C88004690A363A387E387E3642365E368B3F5FA
:103C9800E06F23D92268536823F480535360A368E4
:103CA800B3F5004F20D023681A6812F0400F03D1F3
:103CB8001A6842F040021A60E368B3F5E06F27D94A
:103CC8004CE08368002BBED1042380F85D3000955A
:103CD80013460A46FFF730FE064671E0226853682D
:103CE80043F480535360DAE72268136823F04003F3
:103CF80013602268136823F480431360D3E7FEF748
:103D0800FBFAC01BA84202D3B5F1FF3F18D1BDB1E1
:103D1800B4F846309BB2002B3FD023689A6812F063
:103D2800010FECD0226C1B7B1370236C01332364CE
:103D3800B4F846309BB2013B9BB2A4F84630E7E7A3
:103D4800012384F85D30032637E0FEF7D5FAC01B5F
:103D5800A84202D3B5F1FF3F1AD1CDB1B4F846302D
:103D68009BB2D3B123689A6812F0010FEDD0DA68DC
:103D7800236C1A80236C02332364B4F846C01FFAFC
:103D88008CFC0CF1FF3C1FFA8CFCA4F846C0E5E75C
:103D9800012384F85D3003260FE03A462946204681
:103DA800FFF71BFC08B120232366236E2BB90123E0
:103DB80084F85D30002600E00226002384F85C3099
:103DC800304603B0BDE8F0830226F9E708B50B4892
:103DD8000B4B03604FF4E133436000238360C360FF
:103DE80003610C2242618361C3610362436200F094
:103DF80006FD00B908BDFDF7B0F8FBE7681600201E
:103E08000038014010B588B000230393049305934C
:103E1800069307930268304B9A4201D008B010BD50
:103E2800044603F558439A6942F480429A619A69B4
:103E380002F480420192019A5A6942F400325A61AE
:103E48005B6903F400330293029B4FF4C06303934E
:103E580002230493032306930723079303A94FF030
:103E68009040FEF771FF1D481D4B0360002343601F
:103E780083608022C26003614361202383614FF421
:103E88000053C361FFF76CF800BB144B63675C62B7
:103E98001448154B0360102343600023836080227D
:103EA800C2600361436183614FF40053C361FFF74C
:103EB80057F870B90B4B23675C6200221146252026
:103EC800FFF79AF92520FFF7A7F9A7E7FDF745F8C7
:103ED800DBE7FDF742F8EDE7003801402416002043
:103EE80058000240E015002044000240026852E8F1
:103EF800003F23F0C00342E800310029F6D1202317
:103F0800C3677047026852E8003F23F4907342E8A1
:103F180000310029F6D1026802F1080353E8003F96
:103F280023F00103083242E800310029F3D1036E7F
:103F3800012B06D02023C0F8803000230366836657
:103F48007047026852E8003F23F0100342E800314E
:103F58000029F6D1EEE700001346C26F202A3BD1B4
:103F680010B50446002939D0002B39D0C164A0F817
:103F78005030A0F852300022C0F884202122C267B5
:103F8800026FC2B117499162026F1749D162026F7D
:103F980016491163026F0021516302682832C16C0F
:103FA800006FFFF705F830B11023C4F884302023E0
:103FB800E36701200FE0236840221A62226802F1B9
:103FC800080353E8003F43F08003083242E8003119
:103FD8000029F3D1002010BD022070470120FAE724
:103FE8000120F8E7F93F0008614000087140000827
:103FF80008B5416A8369202B18D00023A1F85230F4
:104008000A6802F1080353E8003F23F080030832EE
:1040180042E800300028F3D10A6852E8003F43F034
:10402800400342E800300028F6D108BD0846FCF7F6
:1040380085FFFAE708B5026852E8003F23F040031D
:1040480042E800310029F6D12023C3670023C36664
:10405800FCF774FF08BD704708B5406AFFF7FBFF1F
:1040680008BD70477047704738B5446AE26FD4F8A6
:10407800805023689B6813F0800F01D0212A10D04C
:1040880023689B6813F0400F01D0222D10D0D4F87C
:10409800843043F01003C4F884302046FFF7E3FF70
:1040A80038BD0023A4F852302046FFF71FFFE7E78A
:1040B8000023A4F85A302046FFF724FFE7E708B5A5
:1040C800406A0023A0F85A30A0F85230FFF7CBFF1F
:1040D80008BD704770B504460268D36911689068D6
:1040E80040F60F0C13EA0C0F0AD113F0200F0DD075
:1040F80011F0200F0AD0A36E0BB3204698471EE09C
:1041080010F001051CD1AB4E314219D1256E012D9D
:1041180000F0A48013F4801F03D010F4800F40F047
:10412800368113F0800F03D011F0800F40F03681F4
:1041380013F0400F03D011F0400F40F0368170BDEE
:1041480013F0010F09D011F4807F06D0012010620E
:10415800D4F884200243C4F8842013F0020F09D055
:1041680045B1226802201062D4F8842042F004028B
:10417800C4F8842013F0040F09D045B12268042044
:104188001062D4F8842042F00202C4F8842013F0AC
:10419800080F0BD011F0200F00D13DB12268082084
:1041A8001062D4F884200243C4F8842013F4006F0A
:1041B8000CD011F0806F09D022684FF400601062B3
:1041C800D4F8842042F02002C4F88420D4F8842053
:1041D800002AB4D013F0200F06D011F0200F03D01E
:1041E800A36E0BB120469847D4F8842023689B68B7
:1041F80013F0400F02D112F0280F28D02046FFF705
:1042080081FE23689B6813F0400F1CD0226802F1DE
:10421800080353E8003F23F04003083242E8003126
:104228000029F3D1636F53B1634A5A63606FFEF795
:104238001EFF002883D0606F436B98477FE72046B6
:10424800FFF711FF7BE72046FFF70DFF77E72046D2
:10425800FFF709FF0023C4F8843070E713F0100F4C
:104268003FF458AF11F0100F3FF454AF102313620E
:1042780023689B6813F0400F4FD0626F13685B6828
:104288009BB2002B3FF45BAFB4F8581099427FF60D
:1042980056AFA4F85A309369202B31D0226852E8DF
:1042A800003F23F4807342E800310029F6D12268E8
:1042B80002F1080353E8003F23F00103083242E803
:1042C80000310029F3D1226802F1080353E8003FC6
:1042D80023F04003083242E800310029F3D12023BB
:1042E800C4F8803000232366226852E8003F23F098
:1042F800100342E800310029F6D1606FFEF792FE04
:1043080002236366B4F85810B4F85A309BB2C91A3D
:1043180089B22046FFF7DDFE11E7B4F85810B4F86B
:104328005A309BB2C91A89B2B4F85A309BB2002BE2
:104338003FF405AF00293FF402AF226852E8003F7E
:1043480023F4907342E800300028F6D1226802F185
:10435800080353E8003F23F00103083242E8003025
:104368000028F3D12023C4F8803000232366A366F5
:10437800226852E8003F23F0100342E8003000288A
:10438800F6D1022363662046FFF7A3FED7E64FF473
:1043980080131362204600F0D7FAD0E6E36E002BB4
:1043A8003FF4CDAE20469847C9E62046FFF742FEC7
:1043B800C5E600BF20010004C740000808B5406AF0
:1043C80001234366036E012B02D0FFF74BFE08BDA5
:1043D800B0F858104908FFF77CFEF8E708B503461F
:1043E800406A9B69202B29D00023A0F85A30026824
:1043F80052E8003F23F4807342E800310029F6D1E7
:10440800026802F1080353E8003F23F00103083271
:1044180042E800310029F3D1026802F1080353E8A9
:10442800003F23F04003083242E800310029F3D16D
:104438002023C0F88030036E012B07D00023436689
:10444800036E012B0CD0FFF70CFE08BD026852E882
:10445800003F23F0100342E800310029F6D1EDE7D0
:10446800B0F85810FFF735FEEFE7000010B5044626
:1044780083680269134342691343C269134301689D
:1044880008684E4A02401A430A602268536823F4B7
:104498004053E1680B435360A269236A1A432168B9
:1044A8008B6823F4306313438B602368444A934238
:1044B80014D0444A934227D002F5806293421FD019
:1044C8001023E069B0F5004F20D0082B70D8DFE842
:1044D80003F04A60486F636F6F6F66003A4B1B6B5F
:1044E80003F00303032B09D8DFE803F00204060CEA
:1044F8000023E6E70423E4E70823E2E71023E0E7E4
:104508000023DEE70223DCE70023DAE7082B49D89B
:10451800DFE803F0051F2548224848480900FEF750
:1045280021FB002840D06268530803EB4003B3FB2B
:10453800F2F3A3F110014FF6EF72914236D89AB216
:1045480022F00F02C3F3420313432268D360002012
:104558001BE0FEF71DFBE4E7FEF700FAE1E71B4866
:10456800E1E71A4802E0FEF7FDFA18B3636800EBCA
:104578005300B0FBF3F0A0F110024FF6EF739A422C
:104588001AD8236880B2D86000200023A366E366A7
:1045980010BDFEF7FDFAE8E7FEF7E0F9E5E74FF4AE
:1045A8000040E3E70120F0E70020EEE70120ECE718
:1045B8000120EAE70020E8E70120E6E7F369FFEFDA
:1045C80000380140004400400010024000127A0008
:1045D800436A13F0080F06D00268536823F40043B7
:1045E800416B0B435360436A13F0010F06D0026816
:1045F800536823F40033816A0B435360436A13F012
:10460800020F06D00268536823F48033C16A0B4353
:104618005360436A13F0040F06D00268536823F40A
:104628008023016B0B435360436A13F0100F06D0CD
:104638000268936823F48053816B0B439360436A49
:1046480013F0200F06D00268936823F40053C16B5F
:104658000B439360436A13F0400F0AD00268536813
:1046680023F48013016C0B435360036CB3F5801F74
:104678000BD0436A13F0800F06D00268536823F406
:104688000023816C0B43536070470268536823F41E
:10469800C003416C0B435360EBE72DE9F843054633
:1046A8000E4617469946DDF820802B68DC6936EA05
:1046B80004040CBF01240024BC4236D1B8F1FF3FEA
:1046C800F3D0FDF719FEA0EB0900404530D8B8F14A
:1046D800000F2FD02B681A6812F0040FE5D0802E37
:1046E800E3D0402EE1D0DA6912F0080F11D1DA696F
:1046F80012F4006FD9D04FF400621A622846FFF70F
:1047080001FC2023C5F88430002385F87830032085
:104718000CE008241C622846FFF7F4FBC5F8844027
:10472800002385F87830012000E00020BDE8F883F8
:104738000320FBE70320F9E730B583B004460023E4
:10474800C0F88430FDF7D8FD05462268126812F0DB
:10475800080F0FD123681B6813F0040F26D12023FC
:10476800E367C4F8803000202066606684F878002B
:1047780003B030BD6FF07E430093034600224FF430
:1047880000112046FFF789FF0028E3D0226852E88D
:10479800003F23F0800342E800310029F6D12023AE
:1047A800E367002384F878300320E1E76FF07E4365
:1047B80000932B4600224FF480012046FFF76DFF3F
:1047C8000028CCD0226852E8003F23F4907342E8D6
:1047D80000310029F6D1226802F1080353E8003FAE
:1047E80023F00103083242E800310029F3D12023E5
:1047F800C4F88030002384F878300320B8E768B321
:1048080010B50446C36F03B32423E3672268136813
:1048180023F001031360636AE3B92046FFF726FE1D
:10482800012811D02268536823F49043536022680A
:10483800936823F02A0393602268136843F0010306
:1048480013602046FFF778FF10BD80F87830FFF737
:10485800D9FAD9E72046FFF7BBFEDEE7012070470B
:1048680010B5044613464165A0F858200022C0F848
:1048780084202222C0F88020426F8AB11F499162A9
:10488800426F1F49D162426F1E491163426F002176
:1048980051630168426D2431406FFEF789FB20BBEC
:1048A800236943B1226852E8003F43F4807342E829
:1048B80000310029F6D1226802F1080353E8003FCD
:1048C80043F00103083242E800310029F3D122689D
:1048D80002F1080353E8003F43F04003083242E87E
:1048E80000310029F3D1002010BD1023C4F8843012
:1048F8002023C4F880300120F6E700BFE543000814
:10490800C54300087140000838B5D0F88030202B26
:1049180014D1A9B1B2B10023036603685B6813F42C
:10492800000F08D0046854E8003F43F0806344E86F
:104938000035002DF6D1FFF793FF00E0022038BDC7
:104948000120FCE70120FAE77047000000B583B0BA
:104958000E4B5A6942F001025A615B6903F0010388
:104968000193019B002211460E20FEF745FC0E2004
:10497800FEF752FC002211460F20FEF73DFC0F20E7
:10498800FEF74AFC03B05DF804FB00BF00100240CC
:10499800DFF834D0FEF762FC0C480D490D4A0023BD
:1049A80002E0D458C4500433C4188C42F9D30A4ADC
:1049B8000A4C002301E013600432A242FBD300F04A
:1049C800D5F9FCF711FBFEE70030002000000020BD
:1049D8006800002028650008680000203C180020B6
:1049E800FEE7B1FA81F252094FF48063520000F0F9
:1049F80001B800002DE9F7431D46574B1F680446D0
:104A08000E46904627B13B6A13B9384600F032F992
:104A1800B8F1020F06D0B8F1010F00F29A80002D0C
:104A2800C0F29780636ED90705D4A3899A0502D48A
:104A3800A06D00F0C0F92146384600F037FB616BE5
:104A480041B104F14403994202D0384600F0B6F966
:104A5800002363630023A3616360A3891B0603D556
:104A68002169384600F0AAF9A38923F44A6323F0A0
:104A78000303B8F1020FA38161D001AB6A46214656
:104A8800384600F02DF9A3891843A0812DBB009D5D
:104A9800284600F0DDF90646002852D1DDF80090DE
:104AA800A94540D14FF0FF35B4F90C3043F002026C
:104AB800A2810022A26004F1470222602261012241
:104AC8006261626ED60704D4980502D4A06D00F026
:104AD80073F9284603B0BDE8F083002ED8D03B6AAE
:104AE80013B9384600F0C6F8B8F1010F08BFA3891A
:104AF800266004BF43F00103A381B4F90C3013F01E
:104B08000802C4E904651ED0D90741BF00226D42DE
:104B1800A260A56158BFA560626ED20701D49B054B
:104B280013D50025D5E7484600F092F90646002837
:104B3800B8D0A38943F08003A3814D46CFE7002571
:104B4800B2E7A946F5E7A260E6E7A06D00F034F900
:104B5800E7E74FF0FF35BCE718000020002310B549
:104B68000446C0E90033C0E90433836081814366A9
:104B7800C2818361194608225C3000F0D7F80D4BDA
:104B880063620D4BA3620D4BE3620D4B23630D4B28
:104B980024629C4206D003F16802944202D0D033CA
:104BA8009C4205D104F15800BDE8104000F002B95C
:104BB80010BD00BF1D5100083F5100087751000883
:104BC8009B510008F0160020024A0349034800F0F0
:104BD80069B800BF0C000020B55000081C00002078
:104BE80041680C4B994210B5044601D000F05EFABA
:104BF800A168094B994202D0204600F057FAE168B3
:104C0800064B994204D02046BDE8104000F04EBA49
:104C180010BD00BFF016002058170020C017002054
:104C280010B50B4B0B4C0C4A1A602046002204218D
:104C3800FFF794FF04F1680001220921FFF78EFFB6
:104C480004F1D0000222BDE810401221FFF786BF10
:104C580028180020F0160020D14B0008014800F069
:104C6800AAB800BF2D180020014800F0A5B800BF61
:104C78002D18002010B50446FFF7F0FF236A1BB17A
:104C8800BDE81040FFF7F0BF044B2362044B1B68DC
:104C9800002BF5D1FFF7C4FFF2E700BFE94B00088E
:104CA800281800202DE9F8430746884614460026B0
:104CB800D4E90195B9F1010905D52468002CF7D18B
:104CC8003046BDE8F883AB89012B07D9B5F90E301A
:104CD800013303D029463846C04706436835E9E71B
:104CE80070B50C46B1F90E10002996B015461E464F
:104CF8000DDAA38913F0800F4FF0000114BF402391
:104D08004FF48063002031602B6016B070BD6A4696
:104D180000F014F80028ECDB019901F47041A1F5CA
:104D28000053594259414FF48063EBE7024403466C
:104D3800934200D1704703F8011BF9E738B5074DD6
:104D480000230446084611462B60FEF7D6FA431C9A
:104D580002D12B6803B1236038BD00BF381800208A
:104D6800014B1868704700BF1800002070B50D4D42
:104D78000D4C641BA4100026A64209D10B4D0C4C07
:104D880001F092FA641BA4100026A64205D170BD5A
:104D980055F8043B98470136EEE755F8043B984729
:104DA8000136F2E720650008206500082065000844
:104DB80024650008704770477047000038B50546FD
:104DC800002941D051F8043C0C1F002BB8BFE4184F
:104DD80000F094F91D4A136833B9636014602846DB
:104DE800BDE8384000F090B9A34208D920682118DE
:104DF8008B4201BF19685B6809182160EDE71A4604
:104E08005B680BB1A342FAD911685018A0420BD1C4
:104E180020680144501883421160E0D118685B682B
:104E2800536008441060DAE702D90C232B60D6E7F8
:104E3800206821188B4204BF19685B68636004BF4F
:104E4800091821605460CAE738BD00BF3418002033
:104E5800024B0146186800F025B800BF1800002072
:104E680070B50F4E0C463168054611B900F0CAF905
:104E780030602146284600F0C5F9431C03D14FF0A5
:104E8800FF34204670BDC41C24F00304A042F8D0AF
:104E9800211A284600F0B6F90130F2D1EFE700BF39
:104EA800301800202DE9F843CD1C25F003050835FE
:104EB8000C2D38BF0C25002D064601DBA94204D96C
:104EC8000C2333600020BDE8F883DFF8D48000F0BD
:104ED80015F9D8F800301C4644BB29463046FFF780
:104EE800BFFF431C044658D1D8F800402746002F7E
:104EF80043D1002C4BD023683946304604EB0309D4
:104F080000F080F9814542D121686D1A2946304662
:104F1800FFF7A6FF01303AD023682B442360D8F866
:104F280000305A6862BBC8F800700FE02268521B54
:104F380020D40B2A17D96119A342256018BF5960DC
:104F4800636808BFC8F8001062514B60304600F033
:104F5800DBF804F10B00231D20F00700C21A1CBF68
:104F68001B1AA350AFE76268A3420CBFC8F8002021
:104F78005A60EBE723466468AEE73C467F68B6E7CD
:104F88001A465B68A342FBD100235360DEE70C237B
:104F98003360304600F0B8F894E70560D6E700BF04
:104FA80034180020B1F90C202DE9F0411607054608
:104FB8000C4654D44B68002B02DC0B6C002B48DDEC
:104FC800E66A002E45D0002312F480522F68216A29
:104FD8002B6030D0626DA389590705D56368D21A52
:104FE800636B0BB1236CD21A0023E66A216A284648
:104FF800B047431CA38906D129681D292BD82A4A02
:105008000A41D60727D400226260D90422692260A7
:1050180004D5421C01D12B6803B96065616B2F6010
:10502800B9B104F14403994202D02846FFF7C6FEFD
:10503800002363630DE001232846B0470246501C55
:10504800C9D12B68002BC6D01D2B01D0162B1ED121
:105058002F60002022E043F040031BB21BE00F69E1
:10506800002FF6D093070E6808BF4B690F6018BF72
:105078000023A6EB07088B60B8F1000FE9DD216A71
:10508800A66A43463A462846B047002808DCB4F9E1
:105098000C3043F04003A3814FF0FF30BDE8F081AE
:1050A8000744A8EB0008E7E7FEFFBFDF38B50B6948
:1050B80005460C4613B90025284638BD18B1036AC1
:1050C8000BB9FFF7D7FDB4F90C30002BF3D0626EA3
:1050D800D00704D4990502D4A06DFFF76CFE2846CA
:1050E8002146FFF75FFF636EDA070546E4D4A3891C
:1050F8009B05E1D4A06DFFF75FFEDDE70148FFF7F0
:105108005ABE00BF2C1800200148FFF755BE00BF4B
:105118002C18002010B50C46B1F90E1000F060F8FC
:105128000028ABBF636DA3891B1823F48053ACBF61
:105138006365A38110BD2DE9F0411F468B89DB050E
:1051480005460C46164605D5B1F90E100223002275
:1051580000F034F8A389B4F90E1023F48053A38126
:1051680032463B462846BDE8F04100F05BB810B532
:105178000C46B1F90E1000F021F8431CA38915BFA5
:10518800606523F4805343F48053A38118BFA3813F
:1051980010BDB1F90E1000F001B8000038B5064D89
:1051A8000023044608462B60FEF7A4F8431C02D1EE
:1051B8002B6803B1236038BD3818002038B5074D77
:1051C80004460846114600222A601A46FEF79AF855
:1051D800431C02D12B6803B1236038BD3818002066
:1051E80038B5074D04460846114600222A601A467B
:1051F800FEF762F8431C02D12B6803B1236038BD67
:105208003818002038B5064D0023044608462B60A0
:10521800FEF72EF8431C02D12B6803B1236038BD7A
:105228003818002038B5074D0446084611460022B4
:105238002A601A46FEF750F8431C02D12B6803B1C6
:10524800236038BD381800201FB553EC102B2648B2
:1052580023F00041814206D89FED211B05B05DF87F
:1052680004EB00F099BD2148814208D9104619463F
:10527800FAF7AAFF41EC100B05B05DF804FB68468D
:1052880000F036F800F0030001280BD0022815D0F2
:10529800D8B99DED021B9DED000B00F07DFD51EC92
:1052A800100BE7E79DED021B9DED000B00F03CFEA7
:1052B80053EC102B104603F10041DBE79DED021B78
:1052C8009DED000B00F068FDF2E79DED021B9DEDE2
:1052D800000B012000F028FEE1E700BFAFF30080DB
:1052E8000000000000000000FB21E93FFFFFEF7F06
:1052F8002DE9F04F57EC106BC54B8DB027F00048E7
:1053080098450446049707D80022002380ED000B37
:10531800C0E90223002528E0BE4B984578D8049BB5
:10532800BD4D002B3046ACA3D3E90023394638DD08
:10533800FAF74AFFA84506460F461AD0A8A3D3E9AC
:105348000023FAF741FF02460B468046894630465D
:105358003946FAF739FFA2A3D3E90023FAF734FF55
:10536800C4E90089C4E90201012528460DB0BDE859
:10537800F08F9DA3D3E90023FAF726FF9CA3D3E976
:10538800002306460F46FAF71FFF02460B468046E3
:10539800894630463946FAF717FF95A3D3E9002323
:1053A800DCE7FAF713FFA84506460F4618D08CA38A
:1053B800D3E90023FAF70AFF02460B4680468946DE
:1053C80030463946FAF700FF85A3D3E90023FAF7F8
:1053D800FDFE4FF0FF35C4E90089C4E90201C4E7C6
:1053E80081A3D3E90023FAF7F1FE81A3D3E90023CF
:1053F80006460F46FAF7EAFE02460B4680468946FD
:1054080030463946FAF7E0FE79A3D3E90023DEE710
:10541800824B984500F2D18000F040FE57EC106BAB
:1054280075A3D3E9002330463946FBF785F87C4B52
:105438000022FAF7CBFEFBF719FB0546FBF712F83B
:1054480002460B46CDE9022363A3D3E90023FBF709
:1054580073F802460B4630463946FAF7B5FE60A3A4
:10546800D3E9002382468B46DDE90201FBF764F8A5
:105478001F2D06460F460CDC6A4B6A1E53F8223075
:10548800434506D032463B4650465946FAF79CFEFD
:105498000EE03B46324650465946FAF795FE4FEA2B
:1054A80028530593C1F30A53C3EB1853102B02DC9E
:1054B800C4E9000139E04CA3D3E90023DDE9020186
:1054C800FBF73AF806460F4602460B465046594641
:1054D800FAF77AFE02460B468046894650465946F8
:1054E800FAF772FE32463B46FAF76EFE40A3D3E95E
:1054F800002306460F46DDE90201FBF71DF8324698
:105508003B46FAF761FE02460B4606460F46404602
:105518004946FAF759FE059AC1F30A53D31A312BB3
:1055280020DCC4E90001C246CB46D4E900895046D4
:1055380042464B465946FAF747FE3B463246FAF78B
:1055480043FE049B002BC4E90201BFF60EAF09F12C
:105558000043636001F10043C4F80080A060E36089
:105568006D4202E726A3D3E90023DDE90201FAF739
:10557800E3FF06460F4602460B4640464946FAF701
:1055880023FE02460B4682468B4640464946FAF7BA
:105598001BFE32463B46FAF717FE1BA3D3E900234E
:1055A80006460F46DDE90201FAF7C6FF32463B46DA
:1055B800FAF70AFE06460F4664E71B4B984535D9AD
:1055C80032463B4630463946FAF7FEFDC4E9020149
:1055D800C4E900019EE600BF00004054FB21F93FEA
:1055E8003163621A61B4D03D0000601A61B4D03DE5
:1055F8007370032E8A19A33B83C8C96D305FE43FDB
:105608000000002E8A19A33BC14920259A837B39C3
:10561800FB21E93F7BD90240FB21F93FFB213941BE
:105628000000E03F48630008FFFFEF7F4FEA28557E
:10563800A5F21645A8EB055130460F46FBF716FABA
:10564800FAF710FF02460B4630463946CDE90623E5
:10565800FAF7BAFD224B0022FAF76EFF0F4606460C
:10566800FBF704FAFAF7FEFE02460B4630463946C7
:10567800CDE90823FAF7A8FD194B0022FAF75CFFD9
:10568800CDE90A010DF130094FF003080026002783
:1056980079E9020132463B46C24608F1FF38FBF77A
:1056A800B3F90028F4D10F4B0193022300932A4643
:1056B8005346214606A800F017F8049B002B054620
:1056C800BFF653AED4E9002101F10043C4E9002339
:1056D800D4E9022101F10043C4E9022340E700BFF5
:1056E80000007041C86300082DE9F04F2DED028BD2
:1056F800ADF5197D12F1140F06930491BE4BA499D0
:10570800089053F821300093069B03F1FF33A8BF9C
:10571800D41E0593B2BF0024182394FBF3F46FF052
:10572800170304FB033303EB020B009B059A9FED61
:10573800AE8B03EB0208A59BA71A20AE03EB8709E3
:105748000025454513DD069B20AA02EBC3050DF590
:10575800E07A4FF00008009B984531DC9FEDA27B72
:10576800DDF820908DED027B2F4600261BE0EF42EE
:1057780007D459F82500FAF775FEE6E80201013565
:10578800DFE751EC180BF8E7D7E90023F9E8020145
:10579800FAF7D2FE02460B46DDE90201FAF716FDDA
:1057A800CDE902010136059B9E42A7F10807EBDD12
:1057B8009DED027B08F10108AAEC027B0835CAE7D7
:1057C800009BDDF800800CAA02EB83030A93A59BDB
:1057D80003EB840309934FEAC8030B9398AB03EBDD
:1057E800C80313ED287B8DED027B0CAC70AB03EB8B
:1057F800C805A146C246BAF1000FA5F1080577DC35
:1058080058469DED020B00F053FC57EC106B00223C
:105818004FF07F5330463946FAF78EFE41EC100BB5
:1058280000F0C6FC754B51EC100B0022FAF784FE11
:1058380002460B4630463946FAF7C6FC0F4606467E
:10584800FBF714F90290FAF70DFE02460B463046B4
:105858003946FAF7B9FCBBF1000F06460F466CDD76
:1058680008F1FF310CAB029D53F82130CBF1180041
:1058780043FA00F2154482409B1A0CAA029542F89A
:105888002130CBF1170243FA02F9B9F1000F64DDB8
:10589800029B00220133029315466FF07F41904529
:1058A80000F3B880BBF1000F07DDBBF1010F00F07A
:1058B800BF80BBF1020F00F0C680B9F1020F4CD1D6
:1058C80032463B464E490020FAF77EFC06460F4614
:1058D800002D42D058469FED460B00F0E9FB3046BC
:1058E800394653EC102BFAF76FFC06460F4634E0A6
:1058F800444B0022DDE90201FAF71EFEFBF7B6F879
:10590800FAF7B0FD404B002206460F46FAF714FEA0
:1059180002460B46DDE90201FAF756FCFBF7A6F84A
:10592800D5E9002349F8040B39463046FAF74EFC0E
:105938000AF1FF3ACDE902015DE707D108F1FF332B
:105948000CAA52F823304FEAE3599EE72F4B002266
:10595800FBF778F8002843D181460022002330461F
:105968003946FBF751F8002800F0BF8008F1FF33F3
:10597800002200998B426EDA002A00F0898008F133
:10598800FF380CABABF1180B53F82830002BF6D0CE
:1059980058469FED170B00F08BFB08F10103DA0066
:1059A800059255EC104B70AADFF858B002EBC3070C
:1059B80046464FF0000A002E80F2CF804446002C65
:1059C800C0F2FD80124B1F4670AB03EBC403069375
:1059D8004FF0000A4FF0000B0026A8EB0405E2E0A8
:1059E8004FF0020954E700BF00000000000000006B
:1059F800000000000000F03F106500080000204093
:105A08000000F03F0000703E000070410000E03FE1
:105A1800D064000854F8043B45B923B1C3F180733E
:105A280044F8043C012301321D4638E7CB1AF7E756
:105A380008F1FF320CAB53F82230C3F316030CA95C
:105A480041F8223039E708F1FF320CAB53F8223025
:105A5800C3F31503F3E70CA951F82310013B0A43DC
:105A680087E7013453F8042D002AFAD00B9B03F57D
:105A780018730DEB0305069B20AA434408F10107A0
:105A8800983D02EBC3064444BC4204DAA046A2E6B1
:105A98000A9B0124E6E7099B53F82700FAF7E2FC82
:105AA8009FEDB17BE6E802018DED027BDDF82090E9
:105AB800B2464FF00008059B984505DD9DED027B39
:105AC8000137A5EC027BDFE77AE90223F9E8020156
